{
  "contractName": "AgriSupplyChain",
  "abi": [
    {
      "anonymous": false,
      "inputs": [
        {
          "indexed": true,
          "internalType": "uint256",
          "name": "id",
          "type": "uint256"
        },
        {
          "indexed": true,
          "internalType": "address",
          "name": "customer",
          "type": "address"
        },
        {
          "indexed": true,
          "internalType": "address",
          "name": "farmer",
          "type": "address"
        },
        {
          "indexed": false,
          "internalType": "uint256",
          "name": "amount",
          "type": "uint256"
        }
      ],
      "name": "CropPurchased",
      "type": "event"
    },
    {
      "anonymous": false,
      "inputs": [
        {
          "indexed": true,
          "internalType": "uint256",
          "name": "id",
          "type": "uint256"
        },
        {
          "indexed": false,
          "internalType": "string",
          "name": "name",
          "type": "string"
        },
        {
          "indexed": true,
          "internalType": "address",
          "name": "farmer",
          "type": "address"
        }
      ],
      "name": "CropRegistered",
      "type": "event"
    },
    {
      "anonymous": false,
      "inputs": [
        {
          "indexed": true,
          "internalType": "address",
          "name": "farmer",
          "type": "address"
        },
        {
          "indexed": false,
          "internalType": "string",
          "name": "cropName",
          "type": "string"
        },
        {
          "indexed": false,
          "internalType": "uint256",
          "name": "id",
          "type": "uint256"
        }
      ],
      "name": "CropSoldOut",
      "type": "event"
    },
    {
      "anonymous": false,
      "inputs": [
        {
          "indexed": true,
          "internalType": "address",
          "name": "customer",
          "type": "address"
        },
        {
          "indexed": false,
          "internalType": "uint256",
          "name": "timestamp",
          "type": "uint256"
        }
      ],
      "name": "CustomerLoggedIn",
      "type": "event"
    },
    {
      "anonymous": false,
      "inputs": [
        {
          "indexed": true,
          "internalType": "address",
          "name": "customer",
          "type": "address"
        },
        {
          "indexed": false,
          "internalType": "string",
          "name": "name",
          "type": "string"
        }
      ],
      "name": "CustomerRegistered",
      "type": "event"
    },
    {
      "anonymous": false,
      "inputs": [
        {
          "indexed": true,
          "internalType": "address",
          "name": "farmer",
          "type": "address"
        },
        {
          "indexed": false,
          "internalType": "uint256",
          "name": "timestamp",
          "type": "uint256"
        }
      ],
      "name": "FarmerLoggedIn",
      "type": "event"
    },
    {
      "anonymous": false,
      "inputs": [
        {
          "indexed": true,
          "internalType": "address",
          "name": "farmer",
          "type": "address"
        },
        {
          "indexed": false,
          "internalType": "string",
          "name": "name",
          "type": "string"
        }
      ],
      "name": "FarmerRegistered",
      "type": "event"
    },
    {
      "inputs": [],
      "name": "cropCount",
      "outputs": [
        {
          "internalType": "uint256",
          "name": "",
          "type": "uint256"
        }
      ],
      "stateMutability": "view",
      "type": "function",
      "constant": true
    },
    {
      "inputs": [
        {
          "internalType": "uint256",
          "name": "",
          "type": "uint256"
        }
      ],
      "name": "crops",
      "outputs": [
        {
          "internalType": "uint256",
          "name": "id",
          "type": "uint256"
        },
        {
          "internalType": "string",
          "name": "name",
          "type": "string"
        },
        {
          "internalType": "string",
          "name": "location",
          "type": "string"
        },
        {
          "internalType": "uint256",
          "name": "quantityProduced",
          "type": "uint256"
        },
        {
          "internalType": "uint256",
          "name": "price",
          "type": "uint256"
        },
        {
          "internalType": "string",
          "name": "additionalInfo",
          "type": "string"
        },
        {
          "internalType": "address",
          "name": "farmer",
          "type": "address"
        }
      ],
      "stateMutability": "view",
      "type": "function",
      "constant": true
    },
    {
      "inputs": [
        {
          "internalType": "address",
          "name": "",
          "type": "address"
        },
        {
          "internalType": "uint256",
          "name": "",
          "type": "uint256"
        }
      ],
      "name": "customerTransactions",
      "outputs": [
        {
          "internalType": "uint256",
          "name": "cropId",
          "type": "uint256"
        },
        {
          "internalType": "address",
          "name": "farmer",
          "type": "address"
        },
        {
          "internalType": "address",
          "name": "customer",
          "type": "address"
        },
        {
          "internalType": "uint256",
          "name": "amount",
          "type": "uint256"
        },
        {
          "internalType": "uint256",
          "name": "timestamp",
          "type": "uint256"
        }
      ],
      "stateMutability": "view",
      "type": "function",
      "constant": true
    },
    {
      "inputs": [
        {
          "internalType": "address",
          "name": "",
          "type": "address"
        }
      ],
      "name": "customers",
      "outputs": [
        {
          "internalType": "address",
          "name": "walletAddress",
          "type": "address"
        },
        {
          "internalType": "string",
          "name": "username",
          "type": "string"
        },
        {
          "internalType": "string",
          "name": "password",
          "type": "string"
        },
        {
          "internalType": "string",
          "name": "name",
          "type": "string"
        },
        {
          "internalType": "bool",
          "name": "isRegistered",
          "type": "bool"
        },
        {
          "internalType": "uint256",
          "name": "lastLogin",
          "type": "uint256"
        }
      ],
      "stateMutability": "view",
      "type": "function",
      "constant": true
    },
    {
      "inputs": [
        {
          "internalType": "address",
          "name": "",
          "type": "address"
        },
        {
          "internalType": "uint256",
          "name": "",
          "type": "uint256"
        }
      ],
      "name": "farmerTransactions",
      "outputs": [
        {
          "internalType": "uint256",
          "name": "cropId",
          "type": "uint256"
        },
        {
          "internalType": "address",
          "name": "farmer",
          "type": "address"
        },
        {
          "internalType": "address",
          "name": "customer",
          "type": "address"
        },
        {
          "internalType": "uint256",
          "name": "amount",
          "type": "uint256"
        },
        {
          "internalType": "uint256",
          "name": "timestamp",
          "type": "uint256"
        }
      ],
      "stateMutability": "view",
      "type": "function",
      "constant": true
    },
    {
      "inputs": [
        {
          "internalType": "address",
          "name": "",
          "type": "address"
        }
      ],
      "name": "farmers",
      "outputs": [
        {
          "internalType": "address",
          "name": "walletAddress",
          "type": "address"
        },
        {
          "internalType": "string",
          "name": "username",
          "type": "string"
        },
        {
          "internalType": "string",
          "name": "password",
          "type": "string"
        },
        {
          "internalType": "string",
          "name": "name",
          "type": "string"
        },
        {
          "internalType": "bool",
          "name": "isRegistered",
          "type": "bool"
        },
        {
          "internalType": "uint256",
          "name": "lastLogin",
          "type": "uint256"
        }
      ],
      "stateMutability": "view",
      "type": "function",
      "constant": true
    },
    {
      "inputs": [
        {
          "internalType": "string",
          "name": "_username",
          "type": "string"
        },
        {
          "internalType": "string",
          "name": "_password",
          "type": "string"
        },
        {
          "internalType": "string",
          "name": "_name",
          "type": "string"
        }
      ],
      "name": "registerFarmer",
      "outputs": [],
      "stateMutability": "nonpayable",
      "type": "function"
    },
    {
      "inputs": [
        {
          "internalType": "string",
          "name": "_username",
          "type": "string"
        },
        {
          "internalType": "string",
          "name": "_password",
          "type": "string"
        }
      ],
      "name": "loginFarmer",
      "outputs": [],
      "stateMutability": "nonpayable",
      "type": "function"
    },
    {
      "inputs": [
        {
          "internalType": "string",
          "name": "_username",
          "type": "string"
        },
        {
          "internalType": "string",
          "name": "_password",
          "type": "string"
        },
        {
          "internalType": "string",
          "name": "_name",
          "type": "string"
        }
      ],
      "name": "registerCustomer",
      "outputs": [],
      "stateMutability": "nonpayable",
      "type": "function"
    },
    {
      "inputs": [
        {
          "internalType": "string",
          "name": "_username",
          "type": "string"
        },
        {
          "internalType": "string",
          "name": "_password",
          "type": "string"
        }
      ],
      "name": "loginCustomer",
      "outputs": [],
      "stateMutability": "nonpayable",
      "type": "function"
    },
    {
      "inputs": [
        {
          "internalType": "string",
          "name": "_name",
          "type": "string"
        },
        {
          "internalType": "string",
          "name": "_location",
          "type": "string"
        },
        {
          "internalType": "uint256",
          "name": "_quantityProduced",
          "type": "uint256"
        },
        {
          "internalType": "uint256",
          "name": "_price",
          "type": "uint256"
        },
        {
          "internalType": "string",
          "name": "_additionalInfo",
          "type": "string"
        }
      ],
      "name": "registerCrop",
      "outputs": [],
      "stateMutability": "nonpayable",
      "type": "function"
    },
    {
      "inputs": [
        {
          "internalType": "uint256",
          "name": "_id",
          "type": "uint256"
        }
      ],
      "name": "getCrop",
      "outputs": [
        {
          "internalType": "uint256",
          "name": "id",
          "type": "uint256"
        },
        {
          "internalType": "string",
          "name": "name",
          "type": "string"
        },
        {
          "internalType": "string",
          "name": "location",
          "type": "string"
        },
        {
          "internalType": "uint256",
          "name": "quantityProduced",
          "type": "uint256"
        },
        {
          "internalType": "uint256",
          "name": "price",
          "type": "uint256"
        },
        {
          "internalType": "string",
          "name": "additionalInfo",
          "type": "string"
        },
        {
          "internalType": "address",
          "name": "farmer",
          "type": "address"
        }
      ],
      "stateMutability": "view",
      "type": "function",
      "constant": true
    },
    {
      "inputs": [
        {
          "internalType": "uint256",
          "name": "_id",
          "type": "uint256"
        },
        {
          "internalType": "uint256",
          "name": "_quantity",
          "type": "uint256"
        }
      ],
      "name": "buyCrop",
      "outputs": [],
      "stateMutability": "payable",
      "type": "function",
      "payable": true
    },
    {
      "inputs": [
        {
          "internalType": "uint256",
          "name": "rupees",
          "type": "uint256"
        }
      ],
      "name": "convertRupeesToEther",
      "outputs": [
        {
          "internalType": "uint256",
          "name": "",
          "type": "uint256"
        }
      ],
      "stateMutability": "pure",
      "type": "function",
      "constant": true
    },
    {
      "inputs": [],
      "name": "getFarmerTransactions",
      "outputs": [
        {
          "components": [
            {
              "internalType": "uint256",
              "name": "cropId",
              "type": "uint256"
            },
            {
              "internalType": "address",
              "name": "farmer",
              "type": "address"
            },
            {
              "internalType": "address",
              "name": "customer",
              "type": "address"
            },
            {
              "internalType": "uint256",
              "name": "amount",
              "type": "uint256"
            },
            {
              "internalType": "uint256",
              "name": "timestamp",
              "type": "uint256"
            }
          ],
          "internalType": "struct AgriSupplyChain.Transaction[]",
          "name": "",
          "type": "tuple[]"
        }
      ],
      "stateMutability": "view",
      "type": "function",
      "constant": true
    },
    {
      "inputs": [],
      "name": "getCustomerTransactions",
      "outputs": [
        {
          "components": [
            {
              "internalType": "uint256",
              "name": "cropId",
              "type": "uint256"
            },
            {
              "internalType": "address",
              "name": "farmer",
              "type": "address"
            },
            {
              "internalType": "address",
              "name": "customer",
              "type": "address"
            },
            {
              "internalType": "uint256",
              "name": "amount",
              "type": "uint256"
            },
            {
              "internalType": "uint256",
              "name": "timestamp",
              "type": "uint256"
            }
          ],
          "internalType": "struct AgriSupplyChain.Transaction[]",
          "name": "",
          "type": "tuple[]"
        }
      ],
      "stateMutability": "view",
      "type": "function",
      "constant": true
    }
  ],
  "bytecode": "0x608060405234801561001057600080fd5b506121d3806100206000396000f3fe6080604052600436106100f35760003560e01c8063a086dd881161008a578063dfd55a2c11610059578063dfd55a2c146102d4578063ee12533c146102ea578063f8e66a4d1461030a578063fe7aa1531461032a57600080fd5b8063a086dd881461026c578063a604d7771461027f578063b46d637a1461029f578063d7a84dc7146102b457600080fd5b806370c9f1a5116100c657806370c9f1a5146101a35780638bc7fa9c146101d657806395768d5e146101f65780639c8c71151461021857600080fd5b806329a566d2146100f8578063336989ae1461011a5780633e7dc0bc14610155578063401b216814610183575b600080fd5b34801561010457600080fd5b50610118610113366004611ac2565b61034a565b005b34801561012657600080fd5b5061013a610135366004611b66565b6104af565b60405161014c96959493929190611bd1565b60405180910390f35b34801561016157600080fd5b50610175610170366004611c31565b61068b565b60405190815260200161014c565b34801561018f57600080fd5b5061013a61019e366004611b66565b6106b5565b3480156101af57600080fd5b506101c36101be366004611c31565b6106e1565b60405161014c9796959493929190611c4a565b3480156101e257600080fd5b506101c36101f1366004611c31565b6108bd565b34801561020257600080fd5b5061020b610b53565b60405161014c9190611cb2565b34801561022457600080fd5b50610238610233366004611d2c565b610bf5565b604080519586526001600160a01b03948516602087015292909316918401919091526060830152608082015260a00161014c565b61011861027a366004611d56565b610c4e565b34801561028b57600080fd5b5061011861029a366004611d78565b611355565b3480156102ab57600080fd5b5061020b6114a7565b3480156102c057600080fd5b506101186102cf366004611e14565b61153d565b3480156102e057600080fd5b5061017560055481565b3480156102f657600080fd5b50610238610305366004611d2c565b6116f8565b34801561031657600080fd5b50610118610325366004611ac2565b611714565b34801561033657600080fd5b50610118610345366004611e14565b611867565b3360009081526020819052604090206004015460ff16156103b25760405162461bcd60e51b815260206004820152601a60248201527f4661726d657220616c726561647920726567697374657265642e00000000000060448201526064015b60405180910390fd5b6040805160c08101825233808252602080830187815283850187905260608401869052600160808501819052600060a086018190529384529183905293909120825181546001600160a01b0319166001600160a01b039091161781559251919291908201906104219082611f01565b50604082015160028201906104369082611f01565b506060820151600382019061044b9082611f01565b50608082015160048201805460ff191691151591909117905560a09091015160059091015560405133907f42558426a946ab6e527d7f548e7bd3e34c2a7ddde555007464cdfbb5f58665f8906104a2908490611fc1565b60405180910390a2505050565b6001602081905260009182526040909120805491810180546001600160a01b03909316926104dc90611e78565b80601f016020809104026020016040519081016040528092919081815260200182805461050890611e78565b80156105555780601f1061052a57610100808354040283529160200191610555565b820191906000526020600020905b81548152906001019060200180831161053857829003601f168201915b50505050509080600201805461056a90611e78565b80601f016020809104026020016040519081016040528092919081815260200182805461059690611e78565b80156105e35780601f106105b8576101008083540402835291602001916105e3565b820191906000526020600020905b8154815290600101906020018083116105c657829003601f168201915b5050505050908060030180546105f890611e78565b80601f016020809104026020016040519081016040528092919081815260200182805461062490611e78565b80156106715780601f1061064657610100808354040283529160200191610671565b820191906000526020600020905b81548152906001019060200180831161065457829003601f168201915b505050506004830154600590930154919260ff1691905086565b600062013880806106a484670de0b6b3a7640000611fea565b6106ae9190612007565b9392505050565b600060208190529081526040902080546001820180546001600160a01b0390921692916104dc90611e78565b6002602052600090815260409020805460018201805491929161070390611e78565b80601f016020809104026020016040519081016040528092919081815260200182805461072f90611e78565b801561077c5780601f106107515761010080835404028352916020019161077c565b820191906000526020600020905b81548152906001019060200180831161075f57829003601f168201915b50505050509080600201805461079190611e78565b80601f01602080910402602001604051908101604052809291908181526020018280546107bd90611e78565b801561080a5780601f106107df5761010080835404028352916020019161080a565b820191906000526020600020905b8154815290600101906020018083116107ed57829003601f168201915b50505050509080600301549080600401549080600501805461082b90611e78565b80601f016020809104026020016040519081016040528092919081815260200182805461085790611e78565b80156108a45780601f10610879576101008083540402835291602001916108a4565b820191906000526020600020905b81548152906001019060200180831161088757829003601f168201915b505050600690930154919250506001600160a01b031687565b60006060806000806060600080600260008a81526020019081526020016000206040518060e00160405290816000820154815260200160018201805461090290611e78565b80601f016020809104026020016040519081016040528092919081815260200182805461092e90611e78565b801561097b5780601f106109505761010080835404028352916020019161097b565b820191906000526020600020905b81548152906001019060200180831161095e57829003601f168201915b5050505050815260200160028201805461099490611e78565b80601f01602080910402602001604051908101604052809291908181526020018280546109c090611e78565b8015610a0d5780601f106109e257610100808354040283529160200191610a0d565b820191906000526020600020905b8154815290600101906020018083116109f057829003601f168201915b505050505081526020016003820154815260200160048201548152602001600582018054610a3a90611e78565b80601f0160208091040260200160405190810160405280929190818152602001828054610a6690611e78565b8015610ab35780601f10610a8857610100808354040283529160200191610ab3565b820191906000526020600020905b815481529060010190602001808311610a9657829003601f168201915b5050509183525050600691909101546001600160a01b03166020909101528051909150600003610b1c5760405162461bcd60e51b815260206004820152601460248201527321b937b8103237b2b9903737ba1032bc34b9ba1760611b60448201526064016103a9565b8051602082015160408301516060840151608085015160a086015160c090960151949e939d50919b50995097509195509350915050565b336000908152600360209081526040808320805482518185028101850190935280835260609492939192909184015b82821015610bec5760008481526020908190206040805160a08101825260058602909201805483526001808201546001600160a01b039081168587015260028301541692840192909252600381015460608401526004015460808301529083529092019101610b82565b50505050905090565b60046020528160005260406000208181548110610c1157600080fd5b6000918252602090912060059091020180546001820154600283015460038401546004909401549295506001600160a01b03918216945016919085565b3360009081526001602052604090206004015460ff16610c805760405162461bcd60e51b81526004016103a990612029565b6000600260008481526020019081526020016000206040518060e001604052908160008201548152602001600182018054610cba90611e78565b80601f0160208091040260200160405190810160405280929190818152602001828054610ce690611e78565b8015610d335780601f10610d0857610100808354040283529160200191610d33565b820191906000526020600020905b815481529060010190602001808311610d1657829003601f168201915b50505050508152602001600282018054610d4c90611e78565b80601f0160208091040260200160405190810160405280929190818152602001828054610d7890611e78565b8015610dc55780601f10610d9a57610100808354040283529160200191610dc5565b820191906000526020600020905b815481529060010190602001808311610da857829003601f168201915b505050505081526020016003820154815260200160048201548152602001600582018054610df290611e78565b80601f0160208091040260200160405190810160405280929190818152602001828054610e1e90611e78565b8015610e6b5780601f10610e4057610100808354040283529160200191610e6b565b820191906000526020600020905b815481529060010190602001808311610e4e57829003601f168201915b5050509183525050600691909101546001600160a01b03166020909101528051909150600003610ed45760405162461bcd60e51b815260206004820152601460248201527321b937b8103237b2b9903737ba1032bc34b9ba1760611b60448201526064016103a9565b60008211610f305760405162461bcd60e51b815260206004820152602360248201527f5175616e74697479206d7573742062652067726561746572207468616e207a6560448201526239379760e91b60648201526084016103a9565b8181606001511015610f845760405162461bcd60e51b815260206004820152601e60248201527f4e6f7420656e6f756768207175616e7469747920617661696c61626c652e000060448201526064016103a9565b6000828260800151610f969190611fea565b90506000610fa38261068b565b905080341015610fee5760405162461bcd60e51b815260206004820152601660248201527524b739bab33334b1b4b2b73a1022aa241039b2b73a1760511b60448201526064016103a9565b6000858152600260205260408120600301805486929061100f908490612074565b9091555050600085815260026020526040812060030154900361107c578260c001516001600160a01b03167f2f8a62d83be3e21a01f4dff9bd63898bfa19e244e8638f01d8da285e7c43eb7584602001518560000151604051611073929190612087565b60405180910390a25b60008360c001516001600160a01b03163460405160006040518083038185875af1925050503d80600081146110cd576040519150601f19603f3d011682016040523d82523d6000602084013e6110d2565b606091505b50509050806111235760405162461bcd60e51b815260206004820152601960248201527f5061796d656e7420746f206661726d6572206661696c65642e0000000000000060448201526064016103a9565b60006040518060a001604052808881526020018660c001516001600160a01b03168152602001336001600160a01b03168152602001348152602001428152509050600360008660c001516001600160a01b03166001600160a01b031681526020019081526020016000208190806001815401808255809150506001900390600052602060002090600502016000909190919091506000820151816000015560208201518160010160006101000a8154816001600160a01b0302191690836001600160a01b0316021790555060408201518160020160006101000a8154816001600160a01b0302191690836001600160a01b031602179055506060820151816003015560808201518160040155505060046000336001600160a01b03166001600160a01b031681526020019081526020016000208190806001815401808255809150506001900390600052602060002090600502016000909190919091506000820151816000015560208201518160010160006101000a8154816001600160a01b0302191690836001600160a01b0316021790555060408201518160020160006101000a8154816001600160a01b0302191690836001600160a01b03160217905550606082015181600301556080820151816004015550508460c001516001600160a01b0316336001600160a01b0316887f2299b4cd9d087cdc255d89434e324744167a23928d822da7ae3c8fff3a2fed4c3460405161134491815260200190565b60405180910390a450505050505050565b3360009081526020819052604090206004015460ff166113875760405162461bcd60e51b81526004016103a9906120a9565b60058054906000611397836120f2565b90915550506040805160e0810182526005548082526020808301898152838501899052606084018890526080840187905260a084018690523360c08501526000928352600290915292902081518155915190919060018201906113fa9082611f01565b506040820151600282019061140f9082611f01565b50606082015160038201556080820151600482015560a082015160058201906114389082611f01565b5060c09190910151600690910180546001600160a01b0319166001600160a01b039092169190911790556005546040513391907fc1acc370fe30e65479d5930e5d3a589fdb983cda0e121a492096448493f7475a90611498908990611fc1565b60405180910390a35050505050565b336000908152600460209081526040808320805482518185028101850190935280835260609492939192909184018215610bec5760008481526020908190206040805160a08101825260058602909201805483526001808201546001600160a01b039081168587015260028301541692840192909252600381015460608401526004015460808301529083529092019101610b82565b3360009081526020819052604090206004015460ff1661156f5760405162461bcd60e51b81526004016103a9906120a9565b81604051602001611580919061210b565b60408051601f1981840301815282825280516020918201203360009081528083529290922091926115b5926001019101612127565b604051602081830303815290604052805190602001201461160c5760405162461bcd60e51b815260206004820152601160248201527024b73b30b634b2103ab9b2b93730b6b29760791b60448201526064016103a9565b8060405160200161161d919061210b565b60408051601f198184030181528282528051602091820120336000908152808352929092209192611652926002019101612127565b60405160208183030381529060405280519060200120146116a95760405162461bcd60e51b815260206004820152601160248201527024b73b30b634b2103830b9b9bbb7b9321760791b60448201526064016103a9565b336000818152602081815260409182902042600590910181905591519182527fb9eb663bbd7d3a14d2cbd2be0e54e554faa7b006f9e0c7880eb7587d2a9f94af91015b60405180910390a25050565b60036020528160005260406000208181548110610c1157600080fd5b3360009081526001602052604090206004015460ff16156117775760405162461bcd60e51b815260206004820152601c60248201527f437573746f6d657220616c726561647920726567697374657265642e0000000060448201526064016103a9565b6040805160c08101825233808252602080830187815283850187905260608401869052600160808501819052600060a086018190529384529182905293909120825181546001600160a01b0319166001600160a01b039091161781559251919291908201906117e69082611f01565b50604082015160028201906117fb9082611f01565b50606082015160038201906118109082611f01565b50608082015160048201805460ff191691151591909117905560a09091015160059091015560405133907f2bf7863d4068dda3123298d02ee28530519d2e96eaab6784f5f0b6184ddd2015906104a2908490611fc1565b3360009081526001602052604090206004015460ff166118995760405162461bcd60e51b81526004016103a990612029565b816040516020016118aa919061210b565b60408051601f198184030181528282528051602091820120336000908152600180845293902090936118e193919091019101612127565b60405160208183030381529060405280519060200120146119385760405162461bcd60e51b815260206004820152601160248201527024b73b30b634b2103ab9b2b93730b6b29760791b60448201526064016103a9565b80604051602001611949919061210b565b60408051601f1981840301815282825280516020918201203360009081526001835292909220919261197f926002019101612127565b60405160208183030381529060405280519060200120146119d65760405162461bcd60e51b815260206004820152601160248201527024b73b30b634b2103830b9b9bbb7b9321760791b60448201526064016103a9565b3360008181526001602090815260409182902042600590910181905591519182527f3711c88cf1f8804cf5d507909644d217fe253da461776b63dc6d821a0d031ffb91016116ec565b634e487b7160e01b600052604160045260246000fd5b600082601f830112611a4657600080fd5b813567ffffffffffffffff80821115611a6157611a61611a1f565b604051601f8301601f19908116603f01168101908282118183101715611a8957611a89611a1f565b81604052838152866020858801011115611aa257600080fd5b836020870160208301376000602085830101528094505050505092915050565b600080600060608486031215611ad757600080fd5b833567ffffffffffffffff80821115611aef57600080fd5b611afb87838801611a35565b94506020860135915080821115611b1157600080fd5b611b1d87838801611a35565b93506040860135915080821115611b3357600080fd5b50611b4086828701611a35565b9150509250925092565b80356001600160a01b0381168114611b6157600080fd5b919050565b600060208284031215611b7857600080fd5b6106ae82611b4a565b60005b83811015611b9c578181015183820152602001611b84565b50506000910152565b60008151808452611bbd816020860160208601611b81565b601f01601f19169290920160200192915050565b6001600160a01b038716815260c060208201819052600090611bf590830188611ba5565b8281036040840152611c078188611ba5565b90508281036060840152611c1b8187611ba5565b9415156080840152505060a00152949350505050565b600060208284031215611c4357600080fd5b5035919050565b87815260e060208201526000611c6360e0830189611ba5565b8281036040840152611c758189611ba5565b905086606084015285608084015282810360a0840152611c958186611ba5565b91505060018060a01b03831660c083015298975050505050505050565b602080825282518282018190526000919060409081850190868401855b82811015611d1f57815180518552868101516001600160a01b0390811688870152868201511686860152606080820151908601526080908101519085015260a09093019290850190600101611ccf565b5091979650505050505050565b60008060408385031215611d3f57600080fd5b611d4883611b4a565b946020939093013593505050565b60008060408385031215611d6957600080fd5b50508035926020909101359150565b600080600080600060a08688031215611d9057600080fd5b853567ffffffffffffffff80821115611da857600080fd5b611db489838a01611a35565b96506020880135915080821115611dca57600080fd5b611dd689838a01611a35565b955060408801359450606088013593506080880135915080821115611dfa57600080fd5b50611e0788828901611a35565b9150509295509295909350565b60008060408385031215611e2757600080fd5b823567ffffffffffffffff80821115611e3f57600080fd5b611e4b86838701611a35565b93506020850135915080821115611e6157600080fd5b50611e6e85828601611a35565b9150509250929050565b600181811c90821680611e8c57607f821691505b602082108103611eac57634e487b7160e01b600052602260045260246000fd5b50919050565b601f821115611efc57600081815260208120601f850160051c81016020861015611ed95750805b601f850160051c820191505b81811015611ef857828155600101611ee5565b5050505b505050565b815167ffffffffffffffff811115611f1b57611f1b611a1f565b611f2f81611f298454611e78565b84611eb2565b602080601f831160018114611f645760008415611f4c5750858301515b600019600386901b1c1916600185901b178555611ef8565b600085815260208120601f198616915b82811015611f9357888601518255948401946001909101908401611f74565b5085821015611fb15787850151600019600388901b60f8161c191681555b5050505050600190811b01905550565b6020815260006106ae6020830184611ba5565b634e487b7160e01b600052601160045260246000fd5b808202811582820484141761200157612001611fd4565b92915050565b60008261202457634e487b7160e01b600052601260045260246000fd5b500490565b6020808252602b908201527f4f6e6c79207265676973746572656420637573746f6d6572732063616e20657860408201526a32b1baba32903a3434b99760a91b606082015260800190565b8181038181111561200157612001611fd4565b60408152600061209a6040830185611ba5565b90508260208301529392505050565b60208082526029908201527f4f6e6c792072656769737465726564206661726d6572732063616e20657865636040820152683aba32903a3434b99760b91b606082015260800190565b60006001820161210457612104611fd4565b5060010190565b6000825161211d818460208701611b81565b9190910192915050565b600080835461213581611e78565b6001828116801561214d576001811461216257612191565b60ff1984168752821515830287019450612191565b8760005260208060002060005b858110156121885781548a82015290840190820161216f565b50505082870194505b5092969550505050505056fea2646970667358221220f1815383c1cc51bf1eca4d01b583758bcdf2b6cae5744998a083e91d0878716864736f6c63430008130033",
  "immutableReferences": {},
  "source": "// SPDX-License-Identifier: MIT\r\npragma solidity ^0.8.19;\r\n\r\ncontract AgriSupplyChain {\r\n    // Farmer Structure\r\n    struct Farmer {\r\n        address walletAddress;\r\n        string username;\r\n        string password;\r\n        string name;\r\n        bool isRegistered;\r\n        uint256 lastLogin;\r\n    }\r\n\r\n    // Customer Structure\r\n    struct Customer {\r\n        address walletAddress;\r\n        string username;\r\n        string password;\r\n        string name;\r\n        bool isRegistered;\r\n        uint256 lastLogin;\r\n    }\r\n\r\n    // Crop Structure\r\n    struct Crop {\r\n        uint256 id;\r\n        string name;\r\n        string location;\r\n        uint256 quantityProduced; \r\n        uint256 price; // Price in rupees\r\n        string additionalInfo;\r\n        address farmer; // Owner of the crop\r\n    }\r\n\r\n    // Transaction Structure\r\n    struct Transaction {\r\n        uint256 cropId;\r\n        address farmer;\r\n        address customer;\r\n        uint256 amount; // Paid in ether\r\n        uint256 timestamp;\r\n    }\r\n\r\n    // State Variables\r\n    mapping(address => Farmer) public farmers;\r\n    mapping(address => Customer) public customers;\r\n    mapping(uint256 => Crop) public crops;\r\n    mapping(address => Transaction[]) public farmerTransactions;\r\n    mapping(address => Transaction[]) public customerTransactions;\r\n    uint256 public cropCount;\r\n\r\n    // Events\r\n    event FarmerRegistered(address indexed farmer, string name);\r\n    event CustomerRegistered(address indexed customer, string name);\r\n    event CropRegistered(uint256 indexed id, string name, address indexed farmer);\r\n    event CropPurchased(uint256 indexed id, address indexed customer, address indexed farmer, uint256 amount);\r\n    event CropSoldOut(address indexed farmer, string cropName, uint256 id);\r\n    event FarmerLoggedIn(address indexed farmer, uint256 timestamp);\r\n    event CustomerLoggedIn(address indexed customer, uint256 timestamp);\r\n\r\n    // Modifiers\r\n    modifier onlyFarmer() {\r\n        require(farmers[msg.sender].isRegistered, \"Only registered farmers can execute this.\");\r\n        _;\r\n    }\r\n\r\n    modifier onlyCustomer() {\r\n        require(customers[msg.sender].isRegistered, \"Only registered customers can execute this.\");\r\n        _;\r\n    }\r\n\r\n    // Register Farmer\r\n    function registerFarmer(\r\n        string memory _username,\r\n        string memory _password,\r\n        string memory _name\r\n    ) public {\r\n        require(!farmers[msg.sender].isRegistered, \"Farmer already registered.\");\r\n        farmers[msg.sender] = Farmer({\r\n            walletAddress: msg.sender,\r\n            username: _username,\r\n            password: _password,\r\n            name: _name,\r\n            isRegistered: true,\r\n            lastLogin: 0\r\n        });\r\n        emit FarmerRegistered(msg.sender, _name);\r\n    }\r\n\r\n    // Farmer Login\r\n    function loginFarmer(string memory _username, string memory _password) public onlyFarmer {\r\n        require(keccak256(abi.encodePacked(farmers[msg.sender].username)) == keccak256(abi.encodePacked(_username)), \"Invalid username.\");\r\n        require(keccak256(abi.encodePacked(farmers[msg.sender].password)) == keccak256(abi.encodePacked(_password)), \"Invalid password.\");\r\n        farmers[msg.sender].lastLogin = block.timestamp;\r\n        emit FarmerLoggedIn(msg.sender, block.timestamp);\r\n    }\r\n\r\n    // Register Customer\r\n    function registerCustomer(\r\n        string memory _username,\r\n        string memory _password,\r\n        string memory _name\r\n    ) public {\r\n        require(!customers[msg.sender].isRegistered, \"Customer already registered.\");\r\n        customers[msg.sender] = Customer({\r\n            walletAddress: msg.sender,\r\n            username: _username,\r\n            password: _password,\r\n            name: _name,\r\n            isRegistered: true,\r\n            lastLogin: 0\r\n        });\r\n        emit CustomerRegistered(msg.sender, _name);\r\n    }\r\n\r\n    // Customer Login\r\n    function loginCustomer(string memory _username, string memory _password) public onlyCustomer {\r\n        require(keccak256(abi.encodePacked(customers[msg.sender].username)) == keccak256(abi.encodePacked(_username)), \"Invalid username.\");\r\n        require(keccak256(abi.encodePacked(customers[msg.sender].password)) == keccak256(abi.encodePacked(_password)), \"Invalid password.\");\r\n        customers[msg.sender].lastLogin = block.timestamp;\r\n        emit CustomerLoggedIn(msg.sender, block.timestamp);\r\n    }\r\n\r\n    // Register Crop\r\n    function registerCrop(\r\n        string memory _name,\r\n        string memory _location,\r\n        uint256 _quantityProduced,\r\n        uint256 _price,\r\n        string memory _additionalInfo\r\n    ) public onlyFarmer {\r\n        cropCount++;\r\n        crops[cropCount] = Crop({\r\n            id: cropCount,\r\n            name: _name,\r\n            location: _location,\r\n            quantityProduced: _quantityProduced,\r\n            price: _price,\r\n            additionalInfo: _additionalInfo,\r\n            farmer: msg.sender\r\n        });\r\n        emit CropRegistered(cropCount, _name, msg.sender);\r\n    }\r\n\r\n    // View details of a specific crop by its ID\r\n    function getCrop(uint256 _id) public view returns (\r\n        uint256 id,\r\n        string memory name,\r\n        string memory location,\r\n        uint256 quantityProduced,\r\n        uint256 price,\r\n        string memory additionalInfo,\r\n        address farmer\r\n    ) {\r\n        Crop memory crop = crops[_id];\r\n        require(crop.id != 0, \"Crop does not exist.\");\r\n        return (\r\n            crop.id,\r\n            crop.name,\r\n            crop.location,\r\n            crop.quantityProduced,\r\n            crop.price,\r\n            crop.additionalInfo,\r\n            crop.farmer\r\n        );\r\n    }\r\n\r\n    // Purchase Crop\r\n    function buyCrop(uint256 _id, uint256 _quantity) public payable onlyCustomer {\r\n        Crop memory crop = crops[_id];\r\n        require(crop.id != 0, \"Crop does not exist.\");\r\n        require(_quantity > 0, \"Quantity must be greater than zero.\");\r\n        require(crop.quantityProduced >= _quantity, \"Not enough quantity available.\");\r\n\r\n        // Calculate the total price in ETH\r\n        uint256 totalPriceInRupees = crop.price * _quantity;\r\n        uint256 totalPriceInEther = convertRupeesToEther(totalPriceInRupees);\r\n\r\n        // Ensure the sent value is sufficient\r\n        require(msg.value >= totalPriceInEther, \"Insufficient ETH sent.\");\r\n\r\n        // Deduct the purchased quantity from the crop's available stock\r\n        crops[_id].quantityProduced -= _quantity;\r\n\r\n        // If the crop's quantity becomes zero, emit the CropSoldOut event\r\n        if (crops[_id].quantityProduced == 0) {\r\n            emit CropSoldOut(crop.farmer, crop.name, crop.id);\r\n        }\r\n\r\n        // Transfer payment to the farmer\r\n        (bool success, ) = crop.farmer.call{value: msg.value}(\"\");\r\n        require(success, \"Payment to farmer failed.\");\r\n\r\n        // Record the transaction\r\n        Transaction memory txn = Transaction({\r\n            cropId: _id,\r\n            farmer: crop.farmer,\r\n            customer: msg.sender,\r\n            amount: msg.value,\r\n            timestamp: block.timestamp\r\n        });\r\n        farmerTransactions[crop.farmer].push(txn);\r\n        customerTransactions[msg.sender].push(txn);\r\n\r\n        emit CropPurchased(_id, msg.sender, crop.farmer, msg.value);\r\n    }\r\n\r\n    // Utility: Convert Rupees to Ether\r\n    function convertRupeesToEther(uint256 rupees) public pure returns (uint256) {\r\n        uint256 etherRate = 80000; // Example conversion rate: 1 ETH = 80,000 INR\r\n        return rupees * 1 ether / etherRate;\r\n    }\r\n\r\n    // View Farmer Transactions\r\n    function getFarmerTransactions() public view returns (Transaction[] memory) {\r\n        return farmerTransactions[msg.sender];\r\n    }\r\n\r\n    // View Customer Transactions\r\n    function getCustomerTransactions() public view returns (Transaction[] memory) {\r\n        return customerTransactions[msg.sender];\r\n    }\r\n}\r\n",
  "sourcePath": "D:\\Prajeeta\\Major Project 7th sem\\Krishi Yug\\contracts\\AgriSupplyChain.sol",
  "compiler": {
    "name": "solc",
    "version": "0.8.19+commit.7dd6d404.Emscripten.clang"
  },
  "schemaVersion": "3.4.16",
  "updatedAt": "2024-12-02T10:02:01.460Z",
  "networkType": "ethereum",
  "devdoc": {
    "kind": "dev",
    "methods": {},
    "version": 1
  },
  "userdoc": {
    "kind": "user",
    "methods": {},
    "version": 1
  }
}