{
  "contractName": "AgriSupplyChain",
  "abi": [
    {
      "inputs": [],
      "stateMutability": "nonpayable",
      "type": "constructor"
    },
    {
      "anonymous": false,
      "inputs": [
        {
          "indexed": true,
          "internalType": "address",
          "name": "farmerAddress",
          "type": "address"
        },
        {
          "indexed": false,
          "internalType": "string",
          "name": "name",
          "type": "string"
        }
      ],
      "name": "FarmerRegistered",
      "type": "event"
    },
    {
      "anonymous": false,
      "inputs": [
        {
          "indexed": true,
          "internalType": "uint256",
          "name": "id",
          "type": "uint256"
        },
        {
          "indexed": false,
          "internalType": "string",
          "name": "name",
          "type": "string"
        },
        {
          "indexed": false,
          "internalType": "string",
          "name": "source",
          "type": "string"
        },
        {
          "indexed": false,
          "internalType": "string",
          "name": "destination",
          "type": "string"
        },
        {
          "indexed": false,
          "internalType": "uint256",
          "name": "timestamp",
          "type": "uint256"
        }
      ],
      "name": "ProductAdded",
      "type": "event"
    },
    {
      "anonymous": false,
      "inputs": [
        {
          "indexed": true,
          "internalType": "uint256",
          "name": "id",
          "type": "uint256"
        }
      ],
      "name": "ProductDeleted",
      "type": "event"
    },
    {
      "inputs": [
        {
          "internalType": "address",
          "name": "",
          "type": "address"
        }
      ],
      "name": "farmers",
      "outputs": [
        {
          "internalType": "address",
          "name": "farmerAddress",
          "type": "address"
        },
        {
          "internalType": "string",
          "name": "name",
          "type": "string"
        },
        {
          "internalType": "bool",
          "name": "isRegistered",
          "type": "bool"
        }
      ],
      "stateMutability": "view",
      "type": "function",
      "constant": true
    },
    {
      "inputs": [],
      "name": "productCount",
      "outputs": [
        {
          "internalType": "uint256",
          "name": "",
          "type": "uint256"
        }
      ],
      "stateMutability": "view",
      "type": "function",
      "constant": true
    },
    {
      "inputs": [
        {
          "internalType": "string",
          "name": "_name",
          "type": "string"
        }
      ],
      "name": "registerFarmer",
      "outputs": [],
      "stateMutability": "nonpayable",
      "type": "function"
    },
    {
      "inputs": [
        {
          "internalType": "address",
          "name": "_farmerAddress",
          "type": "address"
        }
      ],
      "name": "isFarmerRegistered",
      "outputs": [
        {
          "internalType": "bool",
          "name": "",
          "type": "bool"
        }
      ],
      "stateMutability": "view",
      "type": "function",
      "constant": true
    },
    {
      "inputs": [
        {
          "internalType": "string",
          "name": "_name",
          "type": "string"
        },
        {
          "internalType": "string",
          "name": "_source",
          "type": "string"
        },
        {
          "internalType": "string",
          "name": "_destination",
          "type": "string"
        }
      ],
      "name": "addProduct",
      "outputs": [],
      "stateMutability": "nonpayable",
      "type": "function"
    },
    {
      "inputs": [
        {
          "internalType": "uint256",
          "name": "_id",
          "type": "uint256"
        }
      ],
      "name": "deleteProduct",
      "outputs": [],
      "stateMutability": "nonpayable",
      "type": "function"
    },
    {
      "inputs": [
        {
          "internalType": "uint256",
          "name": "_id",
          "type": "uint256"
        }
      ],
      "name": "getProduct",
      "outputs": [
        {
          "internalType": "uint256",
          "name": "id",
          "type": "uint256"
        },
        {
          "internalType": "string",
          "name": "name",
          "type": "string"
        },
        {
          "internalType": "string",
          "name": "source",
          "type": "string"
        },
        {
          "internalType": "string",
          "name": "destination",
          "type": "string"
        },
        {
          "internalType": "uint256",
          "name": "timestamp",
          "type": "uint256"
        }
      ],
      "stateMutability": "view",
      "type": "function",
      "constant": true
    }
  ],
  "bytecode": "0x608060405234801561001057600080fd5b506000600255610e2c806100256000396000f3fe608060405234801561001057600080fd5b506004361061007d5760003560e01c80637ba7295e1161005b5780637ba7295e14610101578063b9db15b414610114578063e0f6ef8714610138578063ed90c7b71461014f57600080fd5b80630e34b00e14610082578063401b2168146100975780636762d43c146100c2575b600080fd5b610095610090366004610a4c565b610162565b005b6100aa6100a5366004610ad4565b6103ca565b6040516100b993929190610b4a565b60405180910390f35b6100f16100d0366004610ad4565b6001600160a01b031660009081526020819052604090206002015460ff1690565b60405190151581526020016100b9565b61009561010f366004610b80565b610482565b610127610122366004610bbd565b6105df565b6040516100b9959493929190610bd6565b61014160025481565b6040519081526020016100b9565b61009561015d366004610bbd565b6108aa565b3360009081526020819052604090206002015460ff166101c95760405162461bcd60e51b815260206004820181905260248201527f596f75206d75737420626520612072656769737465726564206661726d65722e60448201526064015b60405180910390fd5b600083511161021a5760405162461bcd60e51b815260206004820152601d60248201527f50726f64756374206e616d652063616e6e6f7420626520656d7074792e00000060448201526064016101c0565b600082511161026b5760405162461bcd60e51b815260206004820152601f60248201527f50726f6475637420736f757263652063616e6e6f7420626520656d7074792e0060448201526064016101c0565b60008151116102c85760405162461bcd60e51b8152602060048201526024808201527f50726f647563742064657374696e6174696f6e2063616e6e6f7420626520656d604482015263383a3c9760e11b60648201526084016101c0565b600280549060006102d883610c28565b90915550506040805160c081018252600254808252602080830187815283850187905260608401869052426080850152600060a0850181905292835260019182905293909120825181559251919291908201906103359082610cd8565b506040820151600282019061034a9082610cd8565b506060820151600382019061035f9082610cd8565b506080820151600482015560a0909101516005909101805460ff19169115159190911790556002546040517fa127ee737deed7e6a3eb9ecdbd42a96489cb100ef70d5fab49970984c10bf977906103bd908690869086904290610d98565b60405180910390a2505050565b600060208190529081526040902080546001820180546001600160a01b0390921692916103f690610c4f565b80601f016020809104026020016040519081016040528092919081815260200182805461042290610c4f565b801561046f5780601f106104445761010080835404028352916020019161046f565b820191906000526020600020905b81548152906001019060200180831161045257829003601f168201915b5050506002909301549192505060ff1683565b3360009081526020819052604090206002015460ff16156104e55760405162461bcd60e51b815260206004820152601d60248201527f4661726d657220697320616c726561647920726567697374657265642e00000060448201526064016101c0565b600081511161052e5760405162461bcd60e51b81526020600482015260156024820152742730b6b29031b0b73737ba1031329032b6b83a3c9760591b60448201526064016101c0565b60408051606081018252338082526020808301858152600184860181905260009384529183905293909120825181546001600160a01b0319166001600160a01b039091161781559251919291908201906105889082610cd8565b50604091820151600291909101805460ff19169115159190911790555133907f42558426a946ab6e527d7f548e7bd3e34c2a7ddde555007464cdfbb5f58665f8906105d4908490610de3565b60405180910390a250565b60006060806060600080861180156105f957506002548611155b61063b5760405162461bcd60e51b815260206004820152601360248201527224b73b30b634b210383937b23ab1ba1024a21760691b60448201526064016101c0565b6000868152600160208181526040808420815160c0810190925280548252928301805491939284019161066d90610c4f565b80601f016020809104026020016040519081016040528092919081815260200182805461069990610c4f565b80156106e65780601f106106bb576101008083540402835291602001916106e6565b820191906000526020600020905b8154815290600101906020018083116106c957829003601f168201915b505050505081526020016002820180546106ff90610c4f565b80601f016020809104026020016040519081016040528092919081815260200182805461072b90610c4f565b80156107785780601f1061074d57610100808354040283529160200191610778565b820191906000526020600020905b81548152906001019060200180831161075b57829003601f168201915b5050505050815260200160038201805461079190610c4f565b80601f01602080910402602001604051908101604052809291908181526020018280546107bd90610c4f565b801561080a5780601f106107df5761010080835404028352916020019161080a565b820191906000526020600020905b8154815290600101906020018083116107ed57829003601f168201915b50505091835250506004820154602082015260059091015460ff16151560409091015260a0810151909150156108825760405162461bcd60e51b815260206004820152601e60248201527f546869732070726f6475637420686173206265656e2064656c657465642e000060448201526064016101c0565b8051602082015160408301516060840151608090940151929a91995097509195509350915050565b3360009081526020819052604090206002015460ff1661090c5760405162461bcd60e51b815260206004820181905260248201527f596f75206d75737420626520612072656769737465726564206661726d65722e60448201526064016101c0565b60008111801561091e57506002548111155b6109605760405162461bcd60e51b815260206004820152601360248201527224b73b30b634b210383937b23ab1ba1024a21760691b60448201526064016101c0565b6000818152600160208190526040808320600501805460ff19169092179091555182917fc341cf326465fe622f86c468249e8c0cb03ed23ba376a6a34863a1374ac7d76991a250565b634e487b7160e01b600052604160045260246000fd5b600082601f8301126109d057600080fd5b813567ffffffffffffffff808211156109eb576109eb6109a9565b604051601f8301601f19908116603f01168101908282118183101715610a1357610a136109a9565b81604052838152866020858801011115610a2c57600080fd5b836020870160208301376000602085830101528094505050505092915050565b600080600060608486031215610a6157600080fd5b833567ffffffffffffffff80821115610a7957600080fd5b610a85878388016109bf565b94506020860135915080821115610a9b57600080fd5b610aa7878388016109bf565b93506040860135915080821115610abd57600080fd5b50610aca868287016109bf565b9150509250925092565b600060208284031215610ae657600080fd5b81356001600160a01b0381168114610afd57600080fd5b9392505050565b6000815180845260005b81811015610b2a57602081850181015186830182015201610b0e565b506000602082860101526020601f19601f83011685010191505092915050565b6001600160a01b0384168152606060208201819052600090610b6e90830185610b04565b90508215156040830152949350505050565b600060208284031215610b9257600080fd5b813567ffffffffffffffff811115610ba957600080fd5b610bb5848285016109bf565b949350505050565b600060208284031215610bcf57600080fd5b5035919050565b85815260a060208201526000610bef60a0830187610b04565b8281036040840152610c018187610b04565b90508281036060840152610c158186610b04565b9150508260808301529695505050505050565b600060018201610c4857634e487b7160e01b600052601160045260246000fd5b5060010190565b600181811c90821680610c6357607f821691505b602082108103610c8357634e487b7160e01b600052602260045260246000fd5b50919050565b601f821115610cd357600081815260208120601f850160051c81016020861015610cb05750805b601f850160051c820191505b81811015610ccf57828155600101610cbc565b5050505b505050565b815167ffffffffffffffff811115610cf257610cf26109a9565b610d0681610d008454610c4f565b84610c89565b602080601f831160018114610d3b5760008415610d235750858301515b600019600386901b1c1916600185901b178555610ccf565b600085815260208120601f198616915b82811015610d6a57888601518255948401946001909101908401610d4b565b5085821015610d885787850151600019600388901b60f8161c191681555b5050505050600190811b01905550565b608081526000610dab6080830187610b04565b8281036020840152610dbd8187610b04565b90508281036040840152610dd18186610b04565b91505082606083015295945050505050565b602081526000610afd6020830184610b0456fea26469706673582212202d24c4fda6650b90971c86d6db8a4e7835f21d8e5357b5f497eb5a335cd42c2764736f6c63430008130033",
  "immutableReferences": {},
  "source": "//supplychain.sol\r\n// SPDX-License-Identifier: MIT\r\npragma solidity ^0.8.19;\r\n\r\ncontract AgriSupplyChain {\r\n    // Structure to store farmer details\r\n    struct Farmer {\r\n        address farmerAddress;  // Address of the farmer\r\n        string name;            // Name of the farmer\r\n        bool isRegistered;      // Registration status\r\n    }\r\n\r\n    // Structure to store product details\r\n    struct Product {\r\n        uint256 id;             // Unique product ID\r\n        string name;            // Product name\r\n        string source;          // Product source (e.g., farm)\r\n        string destination;     // Product destination (e.g., warehouse)\r\n        uint256 timestamp;      // Timestamp when the product was added\r\n        bool deleted;           // Flag to mark product as deleted\r\n    }\r\n\r\n    // State variables\r\n    mapping(address => Farmer) public farmers;   // Mapping to store farmers\r\n    mapping(uint256 => Product) private products; // Mapping to store products\r\n    uint256 public productCount;                  // Counter for the total number of products\r\n\r\n    // Events\r\n    event FarmerRegistered(address indexed farmerAddress, string name);\r\n    event ProductAdded(\r\n        uint256 indexed id,\r\n        string name,\r\n        string source,\r\n        string destination,\r\n        uint256 timestamp\r\n    );\r\n    event ProductDeleted(uint256 indexed id);\r\n\r\n    // Modifier to restrict access to registered farmers\r\n    modifier onlyFarmer() {\r\n        require(farmers[msg.sender].isRegistered, \"You must be a registered farmer.\");\r\n        _;\r\n    }\r\n\r\n    // Constructor (optional)\r\n    constructor() {\r\n        productCount = 0; // Initialize product count to zero\r\n    }\r\n\r\n    // Function to register a farmer\r\n    function registerFarmer(string memory _name) public {\r\n        require(!farmers[msg.sender].isRegistered, \"Farmer is already registered.\");\r\n        require(bytes(_name).length > 0, \"Name cannot be empty.\");\r\n        \r\n        farmers[msg.sender] = Farmer({\r\n            farmerAddress: msg.sender,\r\n            name: _name,\r\n            isRegistered: true\r\n        });\r\n\r\n        emit FarmerRegistered(msg.sender, _name);\r\n    }\r\n\r\n    // Function to check if an address is a registered farmer\r\n    function isFarmerRegistered(address _farmerAddress) public view returns (bool) {\r\n        return farmers[_farmerAddress].isRegistered;\r\n    }\r\n\r\n    // Function to add a product (only for registered farmers)\r\n    function addProduct(\r\n        string memory _name,\r\n        string memory _source,\r\n        string memory _destination\r\n    ) public onlyFarmer {\r\n        require(bytes(_name).length > 0, \"Product name cannot be empty.\");\r\n        require(bytes(_source).length > 0, \"Product source cannot be empty.\");\r\n        require(bytes(_destination).length > 0, \"Product destination cannot be empty.\");\r\n\r\n        productCount++;\r\n        products[productCount] = Product({\r\n            id: productCount,\r\n            name: _name,\r\n            source: _source,\r\n            destination: _destination,\r\n            timestamp: block.timestamp,\r\n            deleted: false // Set the product as not deleted initially\r\n        });\r\n\r\n        emit ProductAdded(productCount, _name, _source, _destination, block.timestamp);\r\n    }\r\n\r\n    // Function to delete a product (only for registered farmers)\r\n    function deleteProduct(uint256 _id) public onlyFarmer {\r\n        require(_id > 0 && _id <= productCount, \"Invalid product ID.\");\r\n        \r\n        // Mark the product as deleted\r\n        products[_id].deleted = true;  // Flag the product as deleted\r\n        emit ProductDeleted(_id);\r\n    }\r\n\r\n    // Function to get a product by ID\r\n    function getProduct(uint256 _id)\r\n        public\r\n        view\r\n        returns (\r\n            uint256 id,\r\n            string memory name,\r\n            string memory source,\r\n            string memory destination,\r\n            uint256 timestamp\r\n        )\r\n    {\r\n        require(_id > 0 && _id <= productCount, \"Invalid product ID.\");\r\n        \r\n        Product memory product = products[_id];\r\n        require(!product.deleted, \"This product has been deleted.\"); // Ensure the product is not deleted\r\n\r\n        return (product.id, product.name, product.source, product.destination, product.timestamp);\r\n    }\r\n}\r\n",
  "sourcePath": "D:\\Prajeeta\\Major Project 7th sem\\Krishi Yug\\contracts\\supplychain.sol",
  "compiler": {
    "name": "solc",
    "version": "0.8.19+commit.7dd6d404.Emscripten.clang"
  },
  "schemaVersion": "3.4.16",
  "updatedAt": "2024-11-24T16:48:35.986Z",
  "networkType": "ethereum",
  "devdoc": {
    "kind": "dev",
    "methods": {},
    "version": 1
  },
  "userdoc": {
    "kind": "user",
    "methods": {},
    "version": 1
  }
}