{
  "contractName": "AgriSupplyChain",
  "abi": [
    {
      "anonymous": false,
      "inputs": [
        {
          "indexed": true,
          "internalType": "uint256",
          "name": "id",
          "type": "uint256"
        },
        {
          "indexed": false,
          "internalType": "string",
          "name": "name",
          "type": "string"
        },
        {
          "indexed": true,
          "internalType": "address",
          "name": "farmer",
          "type": "address"
        }
      ],
      "name": "CropRegistered",
      "type": "event"
    },
    {
      "anonymous": false,
      "inputs": [
        {
          "indexed": true,
          "internalType": "address",
          "name": "customer",
          "type": "address"
        },
        {
          "indexed": false,
          "internalType": "string",
          "name": "name",
          "type": "string"
        }
      ],
      "name": "CustomerRegistered",
      "type": "event"
    },
    {
      "anonymous": false,
      "inputs": [
        {
          "indexed": true,
          "internalType": "address",
          "name": "farmer",
          "type": "address"
        },
        {
          "indexed": false,
          "internalType": "string",
          "name": "name",
          "type": "string"
        }
      ],
      "name": "FarmerRegistered",
      "type": "event"
    },
    {
      "inputs": [],
      "name": "cropCount",
      "outputs": [
        {
          "internalType": "uint256",
          "name": "",
          "type": "uint256"
        }
      ],
      "stateMutability": "view",
      "type": "function",
      "constant": true
    },
    {
      "inputs": [
        {
          "internalType": "uint256",
          "name": "",
          "type": "uint256"
        }
      ],
      "name": "crops",
      "outputs": [
        {
          "internalType": "uint256",
          "name": "id",
          "type": "uint256"
        },
        {
          "internalType": "string",
          "name": "name",
          "type": "string"
        },
        {
          "internalType": "string",
          "name": "location",
          "type": "string"
        },
        {
          "internalType": "uint256",
          "name": "harvestTime",
          "type": "uint256"
        },
        {
          "internalType": "uint256",
          "name": "price",
          "type": "uint256"
        },
        {
          "internalType": "string",
          "name": "additionalInfo",
          "type": "string"
        },
        {
          "internalType": "address",
          "name": "farmer",
          "type": "address"
        }
      ],
      "stateMutability": "view",
      "type": "function",
      "constant": true
    },
    {
      "inputs": [
        {
          "internalType": "address",
          "name": "",
          "type": "address"
        }
      ],
      "name": "customers",
      "outputs": [
        {
          "internalType": "address",
          "name": "walletAddress",
          "type": "address"
        },
        {
          "internalType": "string",
          "name": "username",
          "type": "string"
        },
        {
          "internalType": "string",
          "name": "password",
          "type": "string"
        },
        {
          "internalType": "string",
          "name": "name",
          "type": "string"
        },
        {
          "internalType": "bool",
          "name": "isRegistered",
          "type": "bool"
        },
        {
          "internalType": "uint256",
          "name": "lastLogin",
          "type": "uint256"
        }
      ],
      "stateMutability": "view",
      "type": "function",
      "constant": true
    },
    {
      "inputs": [
        {
          "internalType": "address",
          "name": "",
          "type": "address"
        }
      ],
      "name": "farmers",
      "outputs": [
        {
          "internalType": "address",
          "name": "walletAddress",
          "type": "address"
        },
        {
          "internalType": "string",
          "name": "username",
          "type": "string"
        },
        {
          "internalType": "string",
          "name": "password",
          "type": "string"
        },
        {
          "internalType": "string",
          "name": "name",
          "type": "string"
        },
        {
          "internalType": "bool",
          "name": "isRegistered",
          "type": "bool"
        },
        {
          "internalType": "uint256",
          "name": "lastLogin",
          "type": "uint256"
        }
      ],
      "stateMutability": "view",
      "type": "function",
      "constant": true
    },
    {
      "inputs": [
        {
          "internalType": "string",
          "name": "_username",
          "type": "string"
        },
        {
          "internalType": "string",
          "name": "_password",
          "type": "string"
        },
        {
          "internalType": "string",
          "name": "_name",
          "type": "string"
        }
      ],
      "name": "registerFarmer",
      "outputs": [],
      "stateMutability": "nonpayable",
      "type": "function"
    },
    {
      "inputs": [
        {
          "internalType": "string",
          "name": "_username",
          "type": "string"
        },
        {
          "internalType": "string",
          "name": "_password",
          "type": "string"
        }
      ],
      "name": "loginFarmer",
      "outputs": [
        {
          "internalType": "bool",
          "name": "",
          "type": "bool"
        }
      ],
      "stateMutability": "view",
      "type": "function",
      "constant": true
    },
    {
      "inputs": [
        {
          "internalType": "string",
          "name": "_username",
          "type": "string"
        },
        {
          "internalType": "string",
          "name": "_password",
          "type": "string"
        },
        {
          "internalType": "string",
          "name": "_name",
          "type": "string"
        }
      ],
      "name": "registerCustomer",
      "outputs": [],
      "stateMutability": "nonpayable",
      "type": "function"
    },
    {
      "inputs": [
        {
          "internalType": "string",
          "name": "_username",
          "type": "string"
        },
        {
          "internalType": "string",
          "name": "_password",
          "type": "string"
        }
      ],
      "name": "loginCustomer",
      "outputs": [
        {
          "internalType": "bool",
          "name": "",
          "type": "bool"
        }
      ],
      "stateMutability": "view",
      "type": "function",
      "constant": true
    },
    {
      "inputs": [
        {
          "internalType": "string",
          "name": "_name",
          "type": "string"
        },
        {
          "internalType": "string",
          "name": "_location",
          "type": "string"
        },
        {
          "internalType": "uint256",
          "name": "_harvestTime",
          "type": "uint256"
        },
        {
          "internalType": "uint256",
          "name": "_price",
          "type": "uint256"
        },
        {
          "internalType": "string",
          "name": "_additionalInfo",
          "type": "string"
        }
      ],
      "name": "registerCrop",
      "outputs": [],
      "stateMutability": "nonpayable",
      "type": "function"
    },
    {
      "inputs": [
        {
          "internalType": "uint256",
          "name": "_id",
          "type": "uint256"
        }
      ],
      "name": "getCrop",
      "outputs": [
        {
          "internalType": "uint256",
          "name": "id",
          "type": "uint256"
        },
        {
          "internalType": "string",
          "name": "name",
          "type": "string"
        },
        {
          "internalType": "string",
          "name": "location",
          "type": "string"
        },
        {
          "internalType": "uint256",
          "name": "harvestTime",
          "type": "uint256"
        },
        {
          "internalType": "uint256",
          "name": "price",
          "type": "uint256"
        },
        {
          "internalType": "string",
          "name": "additionalInfo",
          "type": "string"
        },
        {
          "internalType": "address",
          "name": "farmer",
          "type": "address"
        }
      ],
      "stateMutability": "view",
      "type": "function",
      "constant": true
    }
  ],
  "bytecode": "0x608060405234801561001057600080fd5b5061171c806100206000396000f3fe608060405234801561001057600080fd5b506004361061009e5760003560e01c8063a604d77711610066578063a604d77714610132578063d7a84dc714610145578063dfd55a2c14610168578063f8e66a4d1461017f578063fe7aa1531461019257600080fd5b806329a566d2146100a3578063336989ae146100b8578063401b2168146100e657806370c9f1a5146100f95780638bc7fa9c1461011f575b600080fd5b6100b66100b136600461125e565b6101a5565b005b6100cb6100c63660046112e6565b61030a565b6040516100dd96959493929190611366565b60405180910390f35b6100cb6100f43660046112e6565b6104e6565b61010c6101073660046113c6565b610512565b6040516100dd97969594939291906113df565b61010c61012d3660046113c6565b6106ee565b6100b6610140366004611447565b610939565b6101586101533660046114e3565b610aca565b60405190151581526020016100dd565b61017160035481565b6040519081526020016100dd565b6100b661018d36600461125e565b610e16565b6101586101a03660046114e3565b610f69565b3360009081526020819052604090206004015460ff161561020d5760405162461bcd60e51b815260206004820152601a60248201527f4661726d657220616c726561647920726567697374657265642e00000000000060448201526064015b60405180910390fd5b6040805160c08101825233808252602080830187815283850187905260608401869052600160808501819052600060a086018190529384529183905293909120825181546001600160a01b0319166001600160a01b0390911617815592519192919082019061027c90826115d0565b506040820151600282019061029190826115d0565b50606082015160038201906102a690826115d0565b50608082015160048201805460ff191691151591909117905560a09091015160059091015560405133907f42558426a946ab6e527d7f548e7bd3e34c2a7ddde555007464cdfbb5f58665f8906102fd908490611690565b60405180910390a2505050565b6001602081905260009182526040909120805491810180546001600160a01b039093169261033790611547565b80601f016020809104026020016040519081016040528092919081815260200182805461036390611547565b80156103b05780601f10610385576101008083540402835291602001916103b0565b820191906000526020600020905b81548152906001019060200180831161039357829003601f168201915b5050505050908060020180546103c590611547565b80601f01602080910402602001604051908101604052809291908181526020018280546103f190611547565b801561043e5780601f106104135761010080835404028352916020019161043e565b820191906000526020600020905b81548152906001019060200180831161042157829003601f168201915b50505050509080600301805461045390611547565b80601f016020809104026020016040519081016040528092919081815260200182805461047f90611547565b80156104cc5780601f106104a1576101008083540402835291602001916104cc565b820191906000526020600020905b8154815290600101906020018083116104af57829003601f168201915b505050506004830154600590930154919260ff1691905086565b600060208190529081526040902080546001820180546001600160a01b03909216929161033790611547565b6002602052600090815260409020805460018201805491929161053490611547565b80601f016020809104026020016040519081016040528092919081815260200182805461056090611547565b80156105ad5780601f10610582576101008083540402835291602001916105ad565b820191906000526020600020905b81548152906001019060200180831161059057829003601f168201915b5050505050908060020180546105c290611547565b80601f01602080910402602001604051908101604052809291908181526020018280546105ee90611547565b801561063b5780601f106106105761010080835404028352916020019161063b565b820191906000526020600020905b81548152906001019060200180831161061e57829003601f168201915b50505050509080600301549080600401549080600501805461065c90611547565b80601f016020809104026020016040519081016040528092919081815260200182805461068890611547565b80156106d55780601f106106aa576101008083540402835291602001916106d5565b820191906000526020600020905b8154815290600101906020018083116106b857829003601f168201915b505050600690930154919250506001600160a01b031687565b60006060806000806060600080600260008a81526020019081526020016000206040518060e00160405290816000820154815260200160018201805461073390611547565b80601f016020809104026020016040519081016040528092919081815260200182805461075f90611547565b80156107ac5780601f10610781576101008083540402835291602001916107ac565b820191906000526020600020905b81548152906001019060200180831161078f57829003601f168201915b505050505081526020016002820180546107c590611547565b80601f01602080910402602001604051908101604052809291908181526020018280546107f190611547565b801561083e5780601f106108135761010080835404028352916020019161083e565b820191906000526020600020905b81548152906001019060200180831161082157829003601f168201915b50505050508152602001600382015481526020016004820154815260200160058201805461086b90611547565b80601f016020809104026020016040519081016040528092919081815260200182805461089790611547565b80156108e45780601f106108b9576101008083540402835291602001916108e4565b820191906000526020600020905b8154815290600101906020018083116108c757829003601f168201915b5050509183525050600691909101546001600160a01b031660209182015281519082015160408301516060840151608085015160a086015160c090960151949f939e50919c509a509850919650945092505050565b3360009081526020819052604090206004015460ff166109aa5760405162461bcd60e51b815260206004820152602660248201527f4f6e6c792072656769737465726564206661726d6572732063616e206164642060448201526531b937b8399760d11b6064820152608401610204565b600380549060006109ba836116a3565b90915550506040805160e0810182526003548082526020808301898152838501899052606084018890526080840187905260a084018690523360c0850152600092835260029091529290208151815591519091906001820190610a1d90826115d0565b5060408201516002820190610a3290826115d0565b50606082015160038201556080820151600482015560a08201516005820190610a5b90826115d0565b5060c09190910151600690910180546001600160a01b0319166001600160a01b039092169190911790556003546040513391907fc1acc370fe30e65479d5930e5d3a589fdb983cda0e121a492096448493f7475a90610abb908990611690565b60405180910390a35050505050565b33600090815260208181526040808320815160c0810190925280546001600160a01b03168252600181018054859484019190610b0590611547565b80601f0160208091040260200160405190810160405280929190818152602001828054610b3190611547565b8015610b7e5780601f10610b5357610100808354040283529160200191610b7e565b820191906000526020600020905b815481529060010190602001808311610b6157829003601f168201915b50505050508152602001600282018054610b9790611547565b80601f0160208091040260200160405190810160405280929190818152602001828054610bc390611547565b8015610c105780601f10610be557610100808354040283529160200191610c10565b820191906000526020600020905b815481529060010190602001808311610bf357829003601f168201915b50505050508152602001600382018054610c2990611547565b80601f0160208091040260200160405190810160405280929190818152602001828054610c5590611547565b8015610ca25780601f10610c7757610100808354040283529160200191610ca2565b820191906000526020600020905b815481529060010190602001808311610c8557829003601f168201915b5050509183525050600482015460ff16151560208201526005909101546040909101526080810151909150610d125760405162461bcd60e51b81526020600482015260166024820152752330b936b2b9103737ba103932b3b4b9ba32b932b21760511b6044820152606401610204565b83604051602001610d2391906116ca565b604051602081830303815290604052805190602001208160200151604051602001610d4e91906116ca565b60405160208183030381529060405280519060200120148015610dc0575082604051602001610d7d91906116ca565b604051602081830303815290604052805190602001208160400151604051602001610da891906116ca565b60405160208183030381529060405280519060200120145b610e0c5760405162461bcd60e51b815260206004820152601d60248201527f496e76616c696420757365726e616d65206f722070617373776f72642e0000006044820152606401610204565b5060019392505050565b3360009081526001602052604090206004015460ff1615610e795760405162461bcd60e51b815260206004820152601c60248201527f437573746f6d657220616c726561647920726567697374657265642e000000006044820152606401610204565b6040805160c08101825233808252602080830187815283850187905260608401869052600160808501819052600060a086018190529384529182905293909120825181546001600160a01b0319166001600160a01b03909116178155925191929190820190610ee890826115d0565b5060408201516002820190610efd90826115d0565b5060608201516003820190610f1290826115d0565b50608082015160048201805460ff191691151591909117905560a09091015160059091015560405133907f2bf7863d4068dda3123298d02ee28530519d2e96eaab6784f5f0b6184ddd2015906102fd908490611690565b336000908152600160208181526040808420815160c0810190925280546001600160a01b0316825292830180548594929384019190610fa790611547565b80601f0160208091040260200160405190810160405280929190818152602001828054610fd390611547565b80156110205780601f10610ff557610100808354040283529160200191611020565b820191906000526020600020905b81548152906001019060200180831161100357829003601f168201915b5050505050815260200160028201805461103990611547565b80601f016020809104026020016040519081016040528092919081815260200182805461106590611547565b80156110b25780601f10611087576101008083540402835291602001916110b2565b820191906000526020600020905b81548152906001019060200180831161109557829003601f168201915b505050505081526020016003820180546110cb90611547565b80601f01602080910402602001604051908101604052809291908181526020018280546110f790611547565b80156111445780601f1061111957610100808354040283529160200191611144565b820191906000526020600020905b81548152906001019060200180831161112757829003601f168201915b5050509183525050600482015460ff16151560208201526005909101546040909101526080810151909150610d125760405162461bcd60e51b815260206004820152601860248201527f437573746f6d6572206e6f7420726567697374657265642e00000000000000006044820152606401610204565b634e487b7160e01b600052604160045260246000fd5b600082601f8301126111e257600080fd5b813567ffffffffffffffff808211156111fd576111fd6111bb565b604051601f8301601f19908116603f01168101908282118183101715611225576112256111bb565b8160405283815286602085880101111561123e57600080fd5b836020870160208301376000602085830101528094505050505092915050565b60008060006060848603121561127357600080fd5b833567ffffffffffffffff8082111561128b57600080fd5b611297878388016111d1565b945060208601359150808211156112ad57600080fd5b6112b9878388016111d1565b935060408601359150808211156112cf57600080fd5b506112dc868287016111d1565b9150509250925092565b6000602082840312156112f857600080fd5b81356001600160a01b038116811461130f57600080fd5b9392505050565b60005b83811015611331578181015183820152602001611319565b50506000910152565b60008151808452611352816020860160208601611316565b601f01601f19169290920160200192915050565b6001600160a01b038716815260c06020820181905260009061138a9083018861133a565b828103604084015261139c818861133a565b905082810360608401526113b0818761133a565b9415156080840152505060a00152949350505050565b6000602082840312156113d857600080fd5b5035919050565b87815260e0602082015260006113f860e083018961133a565b828103604084015261140a818961133a565b905086606084015285608084015282810360a084015261142a818661133a565b91505060018060a01b03831660c083015298975050505050505050565b600080600080600060a0868803121561145f57600080fd5b853567ffffffffffffffff8082111561147757600080fd5b61148389838a016111d1565b9650602088013591508082111561149957600080fd5b6114a589838a016111d1565b9550604088013594506060880135935060808801359150808211156114c957600080fd5b506114d6888289016111d1565b9150509295509295909350565b600080604083850312156114f657600080fd5b823567ffffffffffffffff8082111561150e57600080fd5b61151a868387016111d1565b9350602085013591508082111561153057600080fd5b5061153d858286016111d1565b9150509250929050565b600181811c9082168061155b57607f821691505b60208210810361157b57634e487b7160e01b600052602260045260246000fd5b50919050565b601f8211156115cb57600081815260208120601f850160051c810160208610156115a85750805b601f850160051c820191505b818110156115c7578281556001016115b4565b5050505b505050565b815167ffffffffffffffff8111156115ea576115ea6111bb565b6115fe816115f88454611547565b84611581565b602080601f831160018114611633576000841561161b5750858301515b600019600386901b1c1916600185901b1785556115c7565b600085815260208120601f198616915b8281101561166257888601518255948401946001909101908401611643565b50858210156116805787850151600019600388901b60f8161c191681555b5050505050600190811b01905550565b60208152600061130f602083018461133a565b6000600182016116c357634e487b7160e01b600052601160045260246000fd5b5060010190565b600082516116dc818460208701611316565b919091019291505056fea264697066735822122047ec570626cf1f48d7ade49e84ac39550c2e72face42b9a5dae5ca95cacb043764736f6c63430008130033",
  "immutableReferences": {},
  "source": "// SPDX-License-Identifier: MIT\r\npragma solidity ^0.8.19;\r\n\r\ncontract AgriSupplyChain {\r\n    // Farmer Structure\r\n    struct Farmer {\r\n        address walletAddress;\r\n        string username;\r\n        string password;\r\n        string name;\r\n        bool isRegistered;\r\n        uint256 lastLogin;\r\n    }\r\n\r\n    // Customer Structure\r\n    struct Customer {\r\n        address walletAddress;\r\n        string username;\r\n        string password;\r\n        string name;\r\n        bool isRegistered;\r\n        uint256 lastLogin;\r\n    }\r\n\r\n    // Crop Structure\r\n    struct Crop {\r\n        uint256 id;\r\n        string name;\r\n        string location;\r\n        uint256 harvestTime; // Days required for harvest\r\n        uint256 price;\r\n        string additionalInfo;\r\n        address farmer; // Owner of the crop\r\n    }\r\n\r\n    // State variables\r\n    mapping(address => Farmer) public farmers;\r\n    mapping(address => Customer) public customers;\r\n    mapping(uint256 => Crop) public crops;\r\n    uint256 public cropCount;\r\n\r\n    // Events\r\n    event FarmerRegistered(address indexed farmer, string name);\r\n    event CustomerRegistered(address indexed customer, string name);\r\n    event CropRegistered(uint256 indexed id, string name, address indexed farmer);\r\n\r\n    // Register Farmer\r\n    function registerFarmer(\r\n        string memory _username,\r\n        string memory _password,\r\n        string memory _name\r\n    ) public {\r\n        require(!farmers[msg.sender].isRegistered, \"Farmer already registered.\");\r\n        farmers[msg.sender] = Farmer({\r\n            walletAddress: msg.sender,\r\n            username: _username,\r\n            password: _password,\r\n            name: _name,\r\n            isRegistered: true,\r\n            lastLogin: 0\r\n        });\r\n        emit FarmerRegistered(msg.sender, _name);\r\n    }\r\n\r\n     function loginFarmer(string memory _username, string memory _password) public view returns (bool) {\r\n        Farmer memory farmer = farmers[msg.sender];\r\n        require(farmer.isRegistered, \"Farmer not registered.\");\r\n        require(\r\n            keccak256(abi.encodePacked(farmer.username)) == keccak256(abi.encodePacked(_username)) &&\r\n            keccak256(abi.encodePacked(farmer.password)) == keccak256(abi.encodePacked(_password)),\r\n            \"Invalid username or password.\"\r\n        );\r\n        return true;\r\n    }\r\n\r\n    // Register Customer\r\n    function registerCustomer(\r\n        string memory _username,\r\n        string memory _password,\r\n        string memory _name\r\n    ) public {\r\n        require(!customers[msg.sender].isRegistered, \"Customer already registered.\");\r\n        customers[msg.sender] = Customer({\r\n            walletAddress: msg.sender,\r\n            username: _username,\r\n            password: _password,\r\n            name: _name,\r\n            isRegistered: true,\r\n            lastLogin: 0\r\n        });\r\n        emit CustomerRegistered(msg.sender, _name);\r\n    }\r\n\r\n    // Customer Login\r\n    function loginCustomer(string memory _username, string memory _password) public view returns (bool) {\r\n        Customer memory customer = customers[msg.sender];\r\n        require(customer.isRegistered, \"Customer not registered.\");\r\n        require(\r\n            keccak256(abi.encodePacked(customer.username)) == keccak256(abi.encodePacked(_username)) &&\r\n            keccak256(abi.encodePacked(customer.password)) == keccak256(abi.encodePacked(_password)),\r\n            \"Invalid username or password.\"\r\n        );\r\n        return true;\r\n    }\r\n\r\n    // Register Crop\r\n    function registerCrop(\r\n        string memory _name,\r\n        string memory _location,\r\n        uint256 _harvestTime,\r\n        uint256 _price,\r\n        string memory _additionalInfo\r\n    ) public {\r\n        require(farmers[msg.sender].isRegistered, \"Only registered farmers can add crops.\");\r\n        cropCount++;\r\n        crops[cropCount] = Crop({\r\n            id: cropCount,\r\n            name: _name,\r\n            location: _location,\r\n            harvestTime: _harvestTime,\r\n            price: _price,\r\n            additionalInfo: _additionalInfo,\r\n            farmer: msg.sender\r\n        });\r\n        emit CropRegistered(cropCount, _name, msg.sender);\r\n    }\r\n\r\n    // Get Crop Details\r\n    function getCrop(uint256 _id)\r\n        public\r\n        view\r\n        returns (\r\n            uint256 id,\r\n            string memory name,\r\n            string memory location,\r\n            uint256 harvestTime,\r\n            uint256 price,\r\n            string memory additionalInfo,\r\n            address farmer\r\n        )\r\n    {\r\n        Crop memory crop = crops[_id];\r\n        return (crop.id, crop.name, crop.location, crop.harvestTime, crop.price, crop.additionalInfo, crop.farmer);\r\n    }\r\n}\r\n",
  "sourcePath": "D:\\Prajeeta\\Major Project 7th sem\\Krishi Yug\\contracts\\AgriSupplyChain.sol",
  "compiler": {
    "name": "solc",
    "version": "0.8.19+commit.7dd6d404.Emscripten.clang"
  },
  "schemaVersion": "3.4.16",
  "updatedAt": "2024-12-01T07:47:41.094Z",
  "networkType": "ethereum",
  "devdoc": {
    "kind": "dev",
    "methods": {},
    "version": 1
  },
  "userdoc": {
    "kind": "user",
    "methods": {},
    "version": 1
  }
}