{
  "contractName": "AgriSupplyChain",
  "abi": [
    {
      "inputs": [],
      "stateMutability": "nonpayable",
      "type": "constructor"
    },
    {
      "anonymous": false,
      "inputs": [
        {
          "indexed": true,
          "internalType": "uint256",
          "name": "id",
          "type": "uint256"
        },
        {
          "indexed": true,
          "internalType": "address",
          "name": "customer",
          "type": "address"
        },
        {
          "indexed": true,
          "internalType": "address",
          "name": "farmer",
          "type": "address"
        },
        {
          "indexed": false,
          "internalType": "uint256",
          "name": "amount",
          "type": "uint256"
        }
      ],
      "name": "CropPurchased",
      "type": "event"
    },
    {
      "anonymous": false,
      "inputs": [
        {
          "indexed": true,
          "internalType": "uint256",
          "name": "id",
          "type": "uint256"
        },
        {
          "indexed": false,
          "internalType": "string",
          "name": "name",
          "type": "string"
        },
        {
          "indexed": true,
          "internalType": "address",
          "name": "farmer",
          "type": "address"
        }
      ],
      "name": "CropRegistered",
      "type": "event"
    },
    {
      "anonymous": false,
      "inputs": [
        {
          "indexed": true,
          "internalType": "address",
          "name": "farmer",
          "type": "address"
        },
        {
          "indexed": false,
          "internalType": "string",
          "name": "cropName",
          "type": "string"
        },
        {
          "indexed": false,
          "internalType": "uint256",
          "name": "id",
          "type": "uint256"
        }
      ],
      "name": "CropSoldOut",
      "type": "event"
    },
    {
      "anonymous": false,
      "inputs": [
        {
          "indexed": true,
          "internalType": "address",
          "name": "customer",
          "type": "address"
        },
        {
          "indexed": false,
          "internalType": "uint256",
          "name": "timestamp",
          "type": "uint256"
        }
      ],
      "name": "CustomerLoggedIn",
      "type": "event"
    },
    {
      "anonymous": false,
      "inputs": [
        {
          "indexed": true,
          "internalType": "address",
          "name": "customer",
          "type": "address"
        },
        {
          "indexed": false,
          "internalType": "string",
          "name": "name",
          "type": "string"
        }
      ],
      "name": "CustomerRegistered",
      "type": "event"
    },
    {
      "anonymous": false,
      "inputs": [
        {
          "indexed": true,
          "internalType": "address",
          "name": "farmer",
          "type": "address"
        },
        {
          "indexed": false,
          "internalType": "uint256",
          "name": "timestamp",
          "type": "uint256"
        }
      ],
      "name": "FarmerLoggedIn",
      "type": "event"
    },
    {
      "anonymous": false,
      "inputs": [
        {
          "indexed": true,
          "internalType": "address",
          "name": "farmer",
          "type": "address"
        },
        {
          "indexed": false,
          "internalType": "string",
          "name": "name",
          "type": "string"
        }
      ],
      "name": "FarmerRegistered",
      "type": "event"
    },
    {
      "inputs": [],
      "name": "admin",
      "outputs": [
        {
          "internalType": "address",
          "name": "",
          "type": "address"
        }
      ],
      "stateMutability": "view",
      "type": "function",
      "constant": true
    },
    {
      "inputs": [],
      "name": "cropCount",
      "outputs": [
        {
          "internalType": "uint256",
          "name": "",
          "type": "uint256"
        }
      ],
      "stateMutability": "view",
      "type": "function",
      "constant": true
    },
    {
      "inputs": [
        {
          "internalType": "uint256",
          "name": "",
          "type": "uint256"
        }
      ],
      "name": "crops",
      "outputs": [
        {
          "internalType": "uint256",
          "name": "id",
          "type": "uint256"
        },
        {
          "internalType": "string",
          "name": "name",
          "type": "string"
        },
        {
          "internalType": "string",
          "name": "location",
          "type": "string"
        },
        {
          "internalType": "uint256",
          "name": "quantityProduced",
          "type": "uint256"
        },
        {
          "internalType": "uint256",
          "name": "price",
          "type": "uint256"
        },
        {
          "internalType": "string",
          "name": "additionalInfo",
          "type": "string"
        },
        {
          "internalType": "address",
          "name": "farmer",
          "type": "address"
        }
      ],
      "stateMutability": "view",
      "type": "function",
      "constant": true
    },
    {
      "inputs": [
        {
          "internalType": "address",
          "name": "",
          "type": "address"
        },
        {
          "internalType": "uint256",
          "name": "",
          "type": "uint256"
        }
      ],
      "name": "customerTransactions",
      "outputs": [
        {
          "internalType": "uint256",
          "name": "cropId",
          "type": "uint256"
        },
        {
          "internalType": "address",
          "name": "farmer",
          "type": "address"
        },
        {
          "internalType": "address",
          "name": "customer",
          "type": "address"
        },
        {
          "internalType": "uint256",
          "name": "amount",
          "type": "uint256"
        },
        {
          "internalType": "uint256",
          "name": "timestamp",
          "type": "uint256"
        }
      ],
      "stateMutability": "view",
      "type": "function",
      "constant": true
    },
    {
      "inputs": [
        {
          "internalType": "address",
          "name": "",
          "type": "address"
        }
      ],
      "name": "customers",
      "outputs": [
        {
          "internalType": "address",
          "name": "walletAddress",
          "type": "address"
        },
        {
          "internalType": "string",
          "name": "username",
          "type": "string"
        },
        {
          "internalType": "string",
          "name": "password",
          "type": "string"
        },
        {
          "internalType": "string",
          "name": "name",
          "type": "string"
        },
        {
          "internalType": "bool",
          "name": "isRegistered",
          "type": "bool"
        },
        {
          "internalType": "uint256",
          "name": "lastLogin",
          "type": "uint256"
        }
      ],
      "stateMutability": "view",
      "type": "function",
      "constant": true
    },
    {
      "inputs": [],
      "name": "etherRate",
      "outputs": [
        {
          "internalType": "uint256",
          "name": "",
          "type": "uint256"
        }
      ],
      "stateMutability": "view",
      "type": "function",
      "constant": true
    },
    {
      "inputs": [
        {
          "internalType": "address",
          "name": "",
          "type": "address"
        },
        {
          "internalType": "uint256",
          "name": "",
          "type": "uint256"
        }
      ],
      "name": "farmerTransactions",
      "outputs": [
        {
          "internalType": "uint256",
          "name": "cropId",
          "type": "uint256"
        },
        {
          "internalType": "address",
          "name": "farmer",
          "type": "address"
        },
        {
          "internalType": "address",
          "name": "customer",
          "type": "address"
        },
        {
          "internalType": "uint256",
          "name": "amount",
          "type": "uint256"
        },
        {
          "internalType": "uint256",
          "name": "timestamp",
          "type": "uint256"
        }
      ],
      "stateMutability": "view",
      "type": "function",
      "constant": true
    },
    {
      "inputs": [
        {
          "internalType": "address",
          "name": "",
          "type": "address"
        }
      ],
      "name": "farmers",
      "outputs": [
        {
          "internalType": "address",
          "name": "walletAddress",
          "type": "address"
        },
        {
          "internalType": "string",
          "name": "username",
          "type": "string"
        },
        {
          "internalType": "string",
          "name": "password",
          "type": "string"
        },
        {
          "internalType": "string",
          "name": "name",
          "type": "string"
        },
        {
          "internalType": "bool",
          "name": "isRegistered",
          "type": "bool"
        },
        {
          "internalType": "uint256",
          "name": "lastLogin",
          "type": "uint256"
        }
      ],
      "stateMutability": "view",
      "type": "function",
      "constant": true
    },
    {
      "inputs": [
        {
          "internalType": "string",
          "name": "_username",
          "type": "string"
        },
        {
          "internalType": "string",
          "name": "_password",
          "type": "string"
        },
        {
          "internalType": "string",
          "name": "_name",
          "type": "string"
        }
      ],
      "name": "registerFarmer",
      "outputs": [],
      "stateMutability": "nonpayable",
      "type": "function"
    },
    {
      "inputs": [
        {
          "internalType": "string",
          "name": "_username",
          "type": "string"
        },
        {
          "internalType": "string",
          "name": "_password",
          "type": "string"
        }
      ],
      "name": "loginFarmer",
      "outputs": [],
      "stateMutability": "nonpayable",
      "type": "function"
    },
    {
      "inputs": [
        {
          "internalType": "string",
          "name": "_username",
          "type": "string"
        },
        {
          "internalType": "string",
          "name": "_password",
          "type": "string"
        },
        {
          "internalType": "string",
          "name": "_name",
          "type": "string"
        }
      ],
      "name": "registerCustomer",
      "outputs": [],
      "stateMutability": "nonpayable",
      "type": "function"
    },
    {
      "inputs": [
        {
          "internalType": "string",
          "name": "_username",
          "type": "string"
        },
        {
          "internalType": "string",
          "name": "_password",
          "type": "string"
        }
      ],
      "name": "loginCustomer",
      "outputs": [],
      "stateMutability": "nonpayable",
      "type": "function"
    },
    {
      "inputs": [
        {
          "internalType": "string",
          "name": "_name",
          "type": "string"
        },
        {
          "internalType": "string",
          "name": "_location",
          "type": "string"
        },
        {
          "internalType": "uint256",
          "name": "_quantityProduced",
          "type": "uint256"
        },
        {
          "internalType": "uint256",
          "name": "_price",
          "type": "uint256"
        },
        {
          "internalType": "string",
          "name": "_additionalInfo",
          "type": "string"
        }
      ],
      "name": "registerCrop",
      "outputs": [],
      "stateMutability": "nonpayable",
      "type": "function"
    },
    {
      "inputs": [
        {
          "internalType": "uint256",
          "name": "_id",
          "type": "uint256"
        }
      ],
      "name": "getCrop",
      "outputs": [
        {
          "internalType": "uint256",
          "name": "id",
          "type": "uint256"
        },
        {
          "internalType": "string",
          "name": "name",
          "type": "string"
        },
        {
          "internalType": "string",
          "name": "location",
          "type": "string"
        },
        {
          "internalType": "uint256",
          "name": "quantityProduced",
          "type": "uint256"
        },
        {
          "internalType": "uint256",
          "name": "price",
          "type": "uint256"
        },
        {
          "internalType": "string",
          "name": "additionalInfo",
          "type": "string"
        },
        {
          "internalType": "address",
          "name": "farmer",
          "type": "address"
        }
      ],
      "stateMutability": "view",
      "type": "function",
      "constant": true
    },
    {
      "inputs": [
        {
          "internalType": "uint256",
          "name": "cropId",
          "type": "uint256"
        },
        {
          "internalType": "uint256",
          "name": "quantity",
          "type": "uint256"
        }
      ],
      "name": "calculatePrice",
      "outputs": [
        {
          "internalType": "uint256",
          "name": "",
          "type": "uint256"
        }
      ],
      "stateMutability": "view",
      "type": "function",
      "constant": true
    },
    {
      "inputs": [
        {
          "internalType": "uint256",
          "name": "_id",
          "type": "uint256"
        },
        {
          "internalType": "uint256",
          "name": "_quantity",
          "type": "uint256"
        }
      ],
      "name": "buyCrop",
      "outputs": [],
      "stateMutability": "payable",
      "type": "function",
      "payable": true
    },
    {
      "inputs": [
        {
          "internalType": "uint256",
          "name": "_newRate",
          "type": "uint256"
        }
      ],
      "name": "setEtherRate",
      "outputs": [],
      "stateMutability": "nonpayable",
      "type": "function"
    },
    {
      "inputs": [
        {
          "internalType": "uint256",
          "name": "rupees",
          "type": "uint256"
        }
      ],
      "name": "convertRupeesToEther",
      "outputs": [
        {
          "internalType": "uint256",
          "name": "",
          "type": "uint256"
        }
      ],
      "stateMutability": "view",
      "type": "function",
      "constant": true
    },
    {
      "inputs": [],
      "name": "getFarmerTransactions",
      "outputs": [
        {
          "components": [
            {
              "internalType": "uint256",
              "name": "cropId",
              "type": "uint256"
            },
            {
              "internalType": "address",
              "name": "farmer",
              "type": "address"
            },
            {
              "internalType": "address",
              "name": "customer",
              "type": "address"
            },
            {
              "internalType": "uint256",
              "name": "amount",
              "type": "uint256"
            },
            {
              "internalType": "uint256",
              "name": "timestamp",
              "type": "uint256"
            }
          ],
          "internalType": "struct AgriSupplyChain.Transaction[]",
          "name": "",
          "type": "tuple[]"
        }
      ],
      "stateMutability": "view",
      "type": "function",
      "constant": true
    },
    {
      "inputs": [],
      "name": "getCustomerTransactions",
      "outputs": [
        {
          "components": [
            {
              "internalType": "uint256",
              "name": "cropId",
              "type": "uint256"
            },
            {
              "internalType": "address",
              "name": "farmer",
              "type": "address"
            },
            {
              "internalType": "address",
              "name": "customer",
              "type": "address"
            },
            {
              "internalType": "uint256",
              "name": "amount",
              "type": "uint256"
            },
            {
              "internalType": "uint256",
              "name": "timestamp",
              "type": "uint256"
            }
          ],
          "internalType": "struct AgriSupplyChain.Transaction[]",
          "name": "",
          "type": "tuple[]"
        }
      ],
      "stateMutability": "view",
      "type": "function",
      "constant": true
    }
  ],
  "bytecode": "0x60806040526201388060075534801561001757600080fd5b50600080546001600160a01b0319163317905561228f806100396000396000f3fe60806040526004361061011f5760003560e01c8063a604d777116100a0578063dfd55a2c11610064578063dfd55a2c14610356578063ee12533c1461036c578063f851a4401461038c578063f8e66a4d146103c4578063fe7aa153146103e457600080fd5b8063a604d777146102cb578063a6413a27146102eb578063b46d637a1461030b578063d0f7a60114610320578063d7a84dc71461033657600080fd5b806388672f82116100e757806388672f82146102025780638bc7fa9c1461022257806395768d5e146102425780639c8c711514610264578063a086dd88146102b857600080fd5b806329a566d214610124578063336989ae146101465780633e7dc0bc14610181578063401b2168146101af57806370c9f1a5146101cf575b600080fd5b34801561013057600080fd5b5061014461013f366004611b0b565b610404565b005b34801561015257600080fd5b50610166610161366004611baf565b610569565b60405161017896959493929190611c21565b60405180910390f35b34801561018d57600080fd5b506101a161019c366004611c81565b610744565b604051908152602001610178565b3480156101bb57600080fd5b506101666101ca366004611baf565b61076c565b3480156101db57600080fd5b506101ef6101ea366004611c81565b610799565b6040516101789796959493929190611c9a565b34801561020e57600080fd5b5061014461021d366004611c81565b610975565b34801561022e57600080fd5b506101ef61023d366004611c81565b610a2e565b34801561024e57600080fd5b50610257610cc4565b6040516101789190611d02565b34801561027057600080fd5b5061028461027f366004611d7c565b610d66565b604080519586526001600160a01b03948516602087015292909316918401919091526060830152608082015260a001610178565b6101446102c6366004611da6565b610dbf565b3480156102d757600080fd5b506101446102e6366004611dc8565b611314565b3480156102f757600080fd5b506101a1610306366004611da6565b611464565b34801561031757600080fd5b506102576114ea565b34801561032c57600080fd5b506101a160075481565b34801561034257600080fd5b50610144610351366004611e64565b611580565b34801561036257600080fd5b506101a160065481565b34801561037857600080fd5b50610284610387366004611d7c565b611740565b34801561039857600080fd5b506000546103ac906001600160a01b031681565b6040516001600160a01b039091168152602001610178565b3480156103d057600080fd5b506101446103df366004611b0b565b61175c565b3480156103f057600080fd5b506101446103ff366004611e64565b6118b0565b3360009081526001602052604090206004015460ff161561046c5760405162461bcd60e51b815260206004820152601a60248201527f4661726d657220616c726561647920726567697374657265642e00000000000060448201526064015b60405180910390fd5b6040805160c08101825233808252602080830187815283850187905260608401869052600160808501819052600060a086018190529384529182905293909120825181546001600160a01b0319166001600160a01b039091161781559251919291908201906104db9082611f51565b50604082015160028201906104f09082611f51565b50606082015160038201906105059082611f51565b50608082015160048201805460ff191691151591909117905560a09091015160059091015560405133907f42558426a946ab6e527d7f548e7bd3e34c2a7ddde555007464cdfbb5f58665f89061055c908490612011565b60405180910390a2505050565b600260205260009081526040902080546001820180546001600160a01b03909216929161059590611ec8565b80601f01602080910402602001604051908101604052809291908181526020018280546105c190611ec8565b801561060e5780601f106105e35761010080835404028352916020019161060e565b820191906000526020600020905b8154815290600101906020018083116105f157829003601f168201915b50505050509080600201805461062390611ec8565b80601f016020809104026020016040519081016040528092919081815260200182805461064f90611ec8565b801561069c5780601f106106715761010080835404028352916020019161069c565b820191906000526020600020905b81548152906001019060200180831161067f57829003601f168201915b5050505050908060030180546106b190611ec8565b80601f01602080910402602001604051908101604052809291908181526020018280546106dd90611ec8565b801561072a5780601f106106ff5761010080835404028352916020019161072a565b820191906000526020600020905b81548152906001019060200180831161070d57829003601f168201915b505050506004830154600590930154919260ff1691905086565b60075460009061075c83670de0b6b3a764000061203a565b6107669190612051565b92915050565b6001602081905260009182526040909120805491810180546001600160a01b039093169261059590611ec8565b600360205260009081526040902080546001820180549192916107bb90611ec8565b80601f01602080910402602001604051908101604052809291908181526020018280546107e790611ec8565b80156108345780601f1061080957610100808354040283529160200191610834565b820191906000526020600020905b81548152906001019060200180831161081757829003601f168201915b50505050509080600201805461084990611ec8565b80601f016020809104026020016040519081016040528092919081815260200182805461087590611ec8565b80156108c25780601f10610897576101008083540402835291602001916108c2565b820191906000526020600020905b8154815290600101906020018083116108a557829003601f168201915b5050505050908060030154908060040154908060050180546108e390611ec8565b80601f016020809104026020016040519081016040528092919081815260200182805461090f90611ec8565b801561095c5780601f106109315761010080835404028352916020019161095c565b820191906000526020600020905b81548152906001019060200180831161093f57829003601f168201915b505050600690930154919250506001600160a01b031687565b6000546001600160a01b031633146109cf5760405162461bcd60e51b815260206004820152601c60248201527f4f6e6c792061646d696e2063616e206578656375746520746869732e000000006044820152606401610463565b60008111610a295760405162461bcd60e51b815260206004820152602160248201527f436f6e76657273696f6e2072617465206d75737420626520706f7369746976656044820152601760f91b6064820152608401610463565b600755565b60006060806000806060600080600360008a81526020019081526020016000206040518060e001604052908160008201548152602001600182018054610a7390611ec8565b80601f0160208091040260200160405190810160405280929190818152602001828054610a9f90611ec8565b8015610aec5780601f10610ac157610100808354040283529160200191610aec565b820191906000526020600020905b815481529060010190602001808311610acf57829003601f168201915b50505050508152602001600282018054610b0590611ec8565b80601f0160208091040260200160405190810160405280929190818152602001828054610b3190611ec8565b8015610b7e5780601f10610b5357610100808354040283529160200191610b7e565b820191906000526020600020905b815481529060010190602001808311610b6157829003601f168201915b505050505081526020016003820154815260200160048201548152602001600582018054610bab90611ec8565b80601f0160208091040260200160405190810160405280929190818152602001828054610bd790611ec8565b8015610c245780601f10610bf957610100808354040283529160200191610c24565b820191906000526020600020905b815481529060010190602001808311610c0757829003601f168201915b5050509183525050600691909101546001600160a01b03166020909101528051909150600003610c8d5760405162461bcd60e51b815260206004820152601460248201527321b937b8103237b2b9903737ba1032bc34b9ba1760611b6044820152606401610463565b8051602082015160408301516060840151608085015160a086015160c090960151949e939d50919b50995097509195509350915050565b336000908152600460209081526040808320805482518185028101850190935280835260609492939192909184015b82821015610d5d5760008481526020908190206040805160a08101825260058602909201805483526001808201546001600160a01b039081168587015260028301541692840192909252600381015460608401526004015460808301529083529092019101610cf3565b50505050905090565b60056020528160005260406000208181548110610d8257600080fd5b6000918252602090912060059091020180546001820154600283015460038401546004909401549295506001600160a01b03918216945016919085565b3360009081526002602052604090206004015460ff16610df15760405162461bcd60e51b815260040161046390612073565b6000610dfd8383611464565b90503481811015610e495760405162461bcd60e51b815260206004820152601660248201527524b739bab33334b1b4b2b73a1022aa241039b2b73a1760511b6044820152606401610463565b81811115610e8957336108fc610e5f84846120be565b6040518115909202916000818181858888f19350505050158015610e87573d6000803e3d6000fd5b505b60008481526003602052604081208054909103610edf5760405162461bcd60e51b815260206004820152601460248201527321b937b8103237b2b9903737ba1032bc34b9ba1760611b6044820152606401610463565b60008411610f3b5760405162461bcd60e51b815260206004820152602360248201527f5175616e74697479206d7573742062652067726561746572207468616e207a6560448201526239379760e91b6064820152608401610463565b8381600301541015610f8f5760405162461bcd60e51b815260206004820152601e60248201527f4e6f7420656e6f756768207175616e7469747920617661696c61626c652e00006044820152606401610463565b83816003016000828254610fa391906120be565b9091555050600381015460000361100457600681015481546040516001600160a01b03909216917f2f8a62d83be3e21a01f4dff9bd63898bfa19e244e8638f01d8da285e7c43eb7591610ffb916001860191906120d1565b60405180910390a25b60068101546040516000916001600160a01b03169085908381818185875af1925050503d8060008114611053576040519150601f19603f3d011682016040523d82523d6000602084013e611058565b606091505b50509050806110a95760405162461bcd60e51b815260206004820152601960248201527f5061796d656e7420746f206661726d6572206661696c65642e000000000000006044820152606401610463565b60006040518060a001604052808881526020018460060160009054906101000a90046001600160a01b03166001600160a01b03168152602001336001600160a01b03168152602001868152602001428152509050600460008460060160009054906101000a90046001600160a01b03166001600160a01b03166001600160a01b031681526020019081526020016000208190806001815401808255809150506001900390600052602060002090600502016000909190919091506000820151816000015560208201518160010160006101000a8154816001600160a01b0302191690836001600160a01b0316021790555060408201518160020160006101000a8154816001600160a01b0302191690836001600160a01b031602179055506060820151816003015560808201518160040155505060056000336001600160a01b03166001600160a01b031681526020019081526020016000208190806001815401808255809150506001900390600052602060002090600502016000909190919091506000820151816000015560208201518160010160006101000a8154816001600160a01b0302191690836001600160a01b0316021790555060408201518160020160006101000a8154816001600160a01b0302191690836001600160a01b03160217905550606082015181600301556080820151816004015550508260060160009054906101000a90046001600160a01b03166001600160a01b0316336001600160a01b0316887f2299b4cd9d087cdc255d89434e324744167a23928d822da7ae3c8fff3a2fed4c8860405161130391815260200190565b60405180910390a450505050505050565b3360009081526001602052604090206004015460ff166113465760405162461bcd60e51b815260040161046390612165565b60068054906000611356836121ae565b90915550506040805160e0810182526006548082526020808301898152838501899052606084018890526080840187905260a084018690523360c08501526000928352600390915292902081518155915190919060018201906113b99082611f51565b50604082015160028201906113ce9082611f51565b50606082015160038201556080820151600482015560a082015160058201906113f79082611f51565b5060c09190910151600691820180546001600160a01b0319166001600160a01b03909216919091179055546040513391907fc1acc370fe30e65479d5930e5d3a589fdb983cda0e121a492096448493f7475a90611455908990612011565b60405180910390a35050505050565b6000828152600360208190526040822001548211156114c55760405162461bcd60e51b815260206004820181905260248201527f496e73756666696369656e74207175616e7469747920617661696c61626c652e6044820152606401610463565b6000838152600360205260408120600401546114e290849061203a565b949350505050565b336000908152600560209081526040808320805482518185028101850190935280835260609492939192909184018215610d5d5760008481526020908190206040805160a08101825260058602909201805483526001808201546001600160a01b039081168587015260028301541692840192909252600381015460608401526004015460808301529083529092019101610cf3565b3360009081526001602052604090206004015460ff166115b25760405162461bcd60e51b815260040161046390612165565b816040516020016115c391906121c7565b60408051601f198184030181528282528051602091820120336000908152600180845293902090936115fa939190910191016121e3565b60405160208183030381529060405280519060200120146116515760405162461bcd60e51b815260206004820152601160248201527024b73b30b634b2103ab9b2b93730b6b29760791b6044820152606401610463565b8060405160200161166291906121c7565b60408051601f198184030181528282528051602091820120336000908152600183529290922091926116989260020191016121e3565b60405160208183030381529060405280519060200120146116ef5760405162461bcd60e51b815260206004820152601160248201527024b73b30b634b2103830b9b9bbb7b9321760791b6044820152606401610463565b3360008181526001602090815260409182902042600590910181905591519182527fb9eb663bbd7d3a14d2cbd2be0e54e554faa7b006f9e0c7880eb7587d2a9f94af91015b60405180910390a25050565b60046020528160005260406000208181548110610d8257600080fd5b3360009081526002602052604090206004015460ff16156117bf5760405162461bcd60e51b815260206004820152601c60248201527f437573746f6d657220616c726561647920726567697374657265642e000000006044820152606401610463565b6040805160c08101825233808252602080830187815283850187905260608401869052600160808501819052600060a08601819052938452600290925293909120825181546001600160a01b0319166001600160a01b0390911617815592519192919082019061182f9082611f51565b50604082015160028201906118449082611f51565b50606082015160038201906118599082611f51565b50608082015160048201805460ff191691151591909117905560a09091015160059091015560405133907f2bf7863d4068dda3123298d02ee28530519d2e96eaab6784f5f0b6184ddd20159061055c908490612011565b3360009081526002602052604090206004015460ff166118e25760405162461bcd60e51b815260040161046390612073565b816040516020016118f391906121c7565b60408051601f198184030181528282528051602091820120336000908152600283529290922091926119299260010191016121e3565b60405160208183030381529060405280519060200120146119805760405162461bcd60e51b815260206004820152601160248201527024b73b30b634b2103ab9b2b93730b6b29760791b6044820152606401610463565b8060405160200161199191906121c7565b60408051601f198184030181528282528051602091820120336000908152600280845293902090936119c8939190910191016121e3565b6040516020818303038152906040528051906020012014611a1f5760405162461bcd60e51b815260206004820152601160248201527024b73b30b634b2103830b9b9bbb7b9321760791b6044820152606401610463565b3360008181526002602090815260409182902042600590910181905591519182527f3711c88cf1f8804cf5d507909644d217fe253da461776b63dc6d821a0d031ffb9101611734565b634e487b7160e01b600052604160045260246000fd5b600082601f830112611a8f57600080fd5b813567ffffffffffffffff80821115611aaa57611aaa611a68565b604051601f8301601f19908116603f01168101908282118183101715611ad257611ad2611a68565b81604052838152866020858801011115611aeb57600080fd5b836020870160208301376000602085830101528094505050505092915050565b600080600060608486031215611b2057600080fd5b833567ffffffffffffffff80821115611b3857600080fd5b611b4487838801611a7e565b94506020860135915080821115611b5a57600080fd5b611b6687838801611a7e565b93506040860135915080821115611b7c57600080fd5b50611b8986828701611a7e565b9150509250925092565b80356001600160a01b0381168114611baa57600080fd5b919050565b600060208284031215611bc157600080fd5b611bca82611b93565b9392505050565b60005b83811015611bec578181015183820152602001611bd4565b50506000910152565b60008151808452611c0d816020860160208601611bd1565b601f01601f19169290920160200192915050565b6001600160a01b038716815260c060208201819052600090611c4590830188611bf5565b8281036040840152611c578188611bf5565b90508281036060840152611c6b8187611bf5565b9415156080840152505060a00152949350505050565b600060208284031215611c9357600080fd5b5035919050565b87815260e060208201526000611cb360e0830189611bf5565b8281036040840152611cc58189611bf5565b905086606084015285608084015282810360a0840152611ce58186611bf5565b91505060018060a01b03831660c083015298975050505050505050565b602080825282518282018190526000919060409081850190868401855b82811015611d6f57815180518552868101516001600160a01b0390811688870152868201511686860152606080820151908601526080908101519085015260a09093019290850190600101611d1f565b5091979650505050505050565b60008060408385031215611d8f57600080fd5b611d9883611b93565b946020939093013593505050565b60008060408385031215611db957600080fd5b50508035926020909101359150565b600080600080600060a08688031215611de057600080fd5b853567ffffffffffffffff80821115611df857600080fd5b611e0489838a01611a7e565b96506020880135915080821115611e1a57600080fd5b611e2689838a01611a7e565b955060408801359450606088013593506080880135915080821115611e4a57600080fd5b50611e5788828901611a7e565b9150509295509295909350565b60008060408385031215611e7757600080fd5b823567ffffffffffffffff80821115611e8f57600080fd5b611e9b86838701611a7e565b93506020850135915080821115611eb157600080fd5b50611ebe85828601611a7e565b9150509250929050565b600181811c90821680611edc57607f821691505b602082108103611efc57634e487b7160e01b600052602260045260246000fd5b50919050565b601f821115611f4c57600081815260208120601f850160051c81016020861015611f295750805b601f850160051c820191505b81811015611f4857828155600101611f35565b5050505b505050565b815167ffffffffffffffff811115611f6b57611f6b611a68565b611f7f81611f798454611ec8565b84611f02565b602080601f831160018114611fb45760008415611f9c5750858301515b600019600386901b1c1916600185901b178555611f48565b600085815260208120601f198616915b82811015611fe357888601518255948401946001909101908401611fc4565b50858210156120015787850151600019600388901b60f8161c191681555b5050505050600190811b01905550565b602081526000611bca6020830184611bf5565b634e487b7160e01b600052601160045260246000fd5b808202811582820484141761076657610766612024565b60008261206e57634e487b7160e01b600052601260045260246000fd5b500490565b6020808252602b908201527f4f6e6c79207265676973746572656420637573746f6d6572732063616e20657860408201526a32b1baba32903a3434b99760a91b606082015260800190565b8181038181111561076657610766612024565b6040815260008084546120e381611ec8565b8060408601526060600180841660008114612105576001811461211f57612150565b60ff1985168884015283151560051b880183019550612150565b8960005260208060002060005b868110156121475781548b820187015290840190820161212c565b8a018501975050505b50505050506020929092019290925292915050565b60208082526029908201527f4f6e6c792072656769737465726564206661726d6572732063616e20657865636040820152683aba32903a3434b99760b91b606082015260800190565b6000600182016121c0576121c0612024565b5060010190565b600082516121d9818460208701611bd1565b9190910192915050565b60008083546121f181611ec8565b60018281168015612209576001811461221e5761224d565b60ff198416875282151583028701945061224d565b8760005260208060002060005b858110156122445781548a82015290840190820161222b565b50505082870194505b5092969550505050505056fea2646970667358221220648f845f63271280e9fb11e40da479ed327491f8404e4cdb4403b841907b28eb64736f6c63430008130033",
  "immutableReferences": {},
  "source": "//AgriSupplyChain.sol\r\n// SPDX-License-Identifier: MIT\r\npragma solidity ^0.8.19;\r\n\r\ncontract AgriSupplyChain {\r\n    address public admin;\r\n\r\n    struct Farmer {\r\n        address walletAddress;\r\n        string username;\r\n        string password;\r\n        string name;\r\n        bool isRegistered;\r\n        uint256 lastLogin;\r\n    }\r\n\r\n    struct Customer {\r\n        address walletAddress;\r\n        string username;\r\n        string password;\r\n        string name;\r\n        bool isRegistered;\r\n        uint256 lastLogin;\r\n    }\r\n\r\n    struct Crop {\r\n        uint256 id;\r\n        string name;\r\n        string location;\r\n        uint256 quantityProduced;\r\n        uint256 price; // Price in rupees\r\n        string additionalInfo;\r\n        address farmer; // Owner of the crop\r\n    }\r\n\r\n    struct Transaction {\r\n        uint256 cropId;\r\n        address farmer;\r\n        address customer;\r\n        uint256 amount; // Paid in ether\r\n        uint256 timestamp;\r\n    }\r\n\r\n    mapping(address => Farmer) public farmers;\r\n    mapping(address => Customer) public customers;\r\n    mapping(uint256 => Crop) public crops;\r\n    mapping(address => Transaction[]) public farmerTransactions;\r\n    mapping(address => Transaction[]) public customerTransactions;\r\n    uint256 public cropCount;\r\n    uint256 public etherRate = 80000; // Conversion rate from rupees to ether\r\n\r\n    event FarmerRegistered(address indexed farmer, string name);\r\n    event CustomerRegistered(address indexed customer, string name);\r\n    event CropRegistered(uint256 indexed id, string name, address indexed farmer);\r\n    event CropPurchased(uint256 indexed id, address indexed customer, address indexed farmer, uint256 amount);\r\n    event CropSoldOut(address indexed farmer, string cropName, uint256 id);\r\n    event FarmerLoggedIn(address indexed farmer, uint256 timestamp);\r\n    event CustomerLoggedIn(address indexed customer, uint256 timestamp);\r\n\r\n    modifier onlyFarmer() {\r\n        require(farmers[msg.sender].isRegistered, \"Only registered farmers can execute this.\");\r\n        _;\r\n    }\r\n\r\n    modifier onlyCustomer() {\r\n        require(customers[msg.sender].isRegistered, \"Only registered customers can execute this.\");\r\n        _;\r\n    }\r\n\r\n    modifier onlyAdmin() {\r\n        require(msg.sender == admin, \"Only admin can execute this.\");\r\n        _;\r\n    }\r\n\r\n    constructor() {\r\n        admin = msg.sender;\r\n    }\r\n\r\n    function registerFarmer(\r\n        string memory _username,\r\n        string memory _password,\r\n        string memory _name\r\n    ) public {\r\n        require(!farmers[msg.sender].isRegistered, \"Farmer already registered.\");\r\n        farmers[msg.sender] = Farmer({\r\n            walletAddress: msg.sender,\r\n            username: _username,\r\n            password: _password,\r\n            name: _name,\r\n            isRegistered: true,\r\n            lastLogin: 0\r\n        });\r\n        emit FarmerRegistered(msg.sender, _name);\r\n    }\r\n\r\n    function loginFarmer(string memory _username, string memory _password) public onlyFarmer {\r\n        require(\r\n            keccak256(abi.encodePacked(farmers[msg.sender].username)) == keccak256(abi.encodePacked(_username)),\r\n            \"Invalid username.\"\r\n        );\r\n        require(\r\n            keccak256(abi.encodePacked(farmers[msg.sender].password)) == keccak256(abi.encodePacked(_password)),\r\n            \"Invalid password.\"\r\n        );\r\n        farmers[msg.sender].lastLogin = block.timestamp;\r\n        emit FarmerLoggedIn(msg.sender, block.timestamp);\r\n    }\r\n\r\n    function registerCustomer(\r\n        string memory _username,\r\n        string memory _password,\r\n        string memory _name\r\n    ) public {\r\n        require(!customers[msg.sender].isRegistered, \"Customer already registered.\");\r\n        customers[msg.sender] = Customer({\r\n            walletAddress: msg.sender,\r\n            username: _username,\r\n            password: _password,\r\n            name: _name,\r\n            isRegistered: true,\r\n            lastLogin: 0\r\n        });\r\n        emit CustomerRegistered(msg.sender, _name);\r\n    }\r\n\r\n    function loginCustomer(string memory _username, string memory _password) public onlyCustomer {\r\n        require(\r\n            keccak256(abi.encodePacked(customers[msg.sender].username)) == keccak256(abi.encodePacked(_username)),\r\n            \"Invalid username.\"\r\n        );\r\n        require(\r\n            keccak256(abi.encodePacked(customers[msg.sender].password)) == keccak256(abi.encodePacked(_password)),\r\n            \"Invalid password.\"\r\n        );\r\n        customers[msg.sender].lastLogin = block.timestamp;\r\n        emit CustomerLoggedIn(msg.sender, block.timestamp);\r\n    }\r\n\r\n    function registerCrop(\r\n        string memory _name,\r\n        string memory _location,\r\n        uint256 _quantityProduced,\r\n        uint256 _price,\r\n        string memory _additionalInfo\r\n    ) public onlyFarmer {\r\n        cropCount++;\r\n        crops[cropCount] = Crop({\r\n            id: cropCount,\r\n            name: _name,\r\n            location: _location,\r\n            quantityProduced: _quantityProduced,\r\n            price: _price,\r\n            additionalInfo: _additionalInfo,\r\n            farmer: msg.sender\r\n        });\r\n        emit CropRegistered(cropCount, _name, msg.sender);\r\n    }\r\n\r\n    function getCrop(uint256 _id) public view returns (\r\n        uint256 id,\r\n        string memory name,\r\n        string memory location,\r\n        uint256 quantityProduced,\r\n        uint256 price,\r\n        string memory additionalInfo,\r\n        address farmer\r\n    ) {\r\n        Crop memory crop = crops[_id];\r\n        require(crop.id != 0, \"Crop does not exist.\");\r\n        return (\r\n            crop.id,\r\n            crop.name,\r\n            crop.location,\r\n            crop.quantityProduced,\r\n            crop.price,\r\n            crop.additionalInfo,\r\n            crop.farmer\r\n        );\r\n    }\r\n\r\n    // Function to calculate the price based on quantity and crop ID\r\nfunction calculatePrice(uint256 cropId, uint256 quantity) public view returns (uint256) {\r\n    // Check if the quantity requested is available in the crop\r\n    require(crops[cropId].quantityProduced >= quantity, \"Insufficient quantity available.\");\r\n\r\n    // Calculate the total price in wei\r\n    uint256 totalPrice = crops[cropId].price * quantity;\r\n    return totalPrice;\r\n}\r\n\r\n// Function to buy a crop\r\nfunction buyCrop(uint256 _id, uint256 _quantity) public payable onlyCustomer {\r\n    // Calculate the price for the requested crop and quantity\r\n    uint256 price = calculatePrice(_id, _quantity);\r\n    uint256 receivedValue = msg.value;\r\n\r\n    // Ensure that the amount of ETH sent is sufficient for the total price\r\n    require(receivedValue >= price, \"Insufficient ETH sent.\");\r\n\r\n    // Refund any excess amount if it is greater than the price\r\n    if (receivedValue > price) {\r\n        payable(msg.sender).transfer(receivedValue - price);\r\n    }\r\n\r\n    // Verify the crop exists and other conditions\r\n    Crop storage crop = crops[_id];\r\n    require(crop.id != 0, \"Crop does not exist.\");\r\n    require(_quantity > 0, \"Quantity must be greater than zero.\");\r\n    require(crop.quantityProduced >= _quantity, \"Not enough quantity available.\");\r\n\r\n    // Update the quantity of the crop after purchase\r\n    crop.quantityProduced -= _quantity;\r\n\r\n    // If the quantity reaches zero, emit the CropSoldOut event\r\n    if (crop.quantityProduced == 0) {\r\n        emit CropSoldOut(crop.farmer, crop.name, crop.id);\r\n    }\r\n\r\n    // Transfer the received value to the farmer\r\n    (bool success, ) = crop.farmer.call{value: price}(\"\");\r\n    require(success, \"Payment to farmer failed.\");\r\n\r\n    // Log the transaction for both farmer and customer\r\n    Transaction memory txn = Transaction({\r\n        cropId: _id,\r\n        farmer: crop.farmer,\r\n        customer: msg.sender,\r\n        amount: price,\r\n        timestamp: block.timestamp\r\n    });\r\n    farmerTransactions[crop.farmer].push(txn);\r\n    customerTransactions[msg.sender].push(txn);\r\n\r\n    // Emit event to indicate a successful crop purchase\r\n    emit CropPurchased(_id, msg.sender, crop.farmer, price);\r\n}\r\n\r\n\r\n\r\n    function setEtherRate(uint256 _newRate) public onlyAdmin {\r\n        require(_newRate > 0, \"Conversion rate must be positive.\");\r\n        etherRate = _newRate;\r\n    }\r\n\r\n    function convertRupeesToEther(uint256 rupees) public view returns (uint256) {\r\n    return (rupees * 1 ether) / etherRate; // Define conversionRate (e.g., 100 INR = 1 Ether)\r\n}\r\n\r\n\r\n    function getFarmerTransactions() public view returns (Transaction[] memory) {\r\n        return farmerTransactions[msg.sender];\r\n    }\r\n\r\n    function getCustomerTransactions() public view returns (Transaction[] memory) {\r\n        return customerTransactions[msg.sender];\r\n    }\r\n}",
  "sourcePath": "D:\\Prajeeta\\Major Project 7th sem\\Krishi Yug\\contracts\\AgriSupplyChain.sol",
  "compiler": {
    "name": "solc",
    "version": "0.8.19+commit.7dd6d404.Emscripten.clang"
  },
  "schemaVersion": "3.4.16",
  "updatedAt": "2024-12-03T07:51:31.263Z",
  "networkType": "ethereum",
  "devdoc": {
    "kind": "dev",
    "methods": {},
    "version": 1
  },
  "userdoc": {
    "kind": "user",
    "methods": {},
    "version": 1
  }
}