{
  "contractName": "AgriSupplyChain",
  "abi": [
    {
      "inputs": [],
      "stateMutability": "nonpayable",
      "type": "constructor"
    },
    {
      "anonymous": false,
      "inputs": [
        {
          "indexed": true,
          "internalType": "uint256",
          "name": "id",
          "type": "uint256"
        },
        {
          "indexed": true,
          "internalType": "address",
          "name": "customer",
          "type": "address"
        },
        {
          "indexed": true,
          "internalType": "address",
          "name": "farmer",
          "type": "address"
        },
        {
          "indexed": false,
          "internalType": "uint256",
          "name": "amount",
          "type": "uint256"
        }
      ],
      "name": "CropPurchased",
      "type": "event"
    },
    {
      "anonymous": false,
      "inputs": [
        {
          "indexed": true,
          "internalType": "uint256",
          "name": "id",
          "type": "uint256"
        },
        {
          "indexed": false,
          "internalType": "string",
          "name": "name",
          "type": "string"
        },
        {
          "indexed": true,
          "internalType": "address",
          "name": "farmer",
          "type": "address"
        }
      ],
      "name": "CropRegistered",
      "type": "event"
    },
    {
      "anonymous": false,
      "inputs": [
        {
          "indexed": true,
          "internalType": "address",
          "name": "farmer",
          "type": "address"
        },
        {
          "indexed": false,
          "internalType": "string",
          "name": "cropName",
          "type": "string"
        },
        {
          "indexed": false,
          "internalType": "uint256",
          "name": "id",
          "type": "uint256"
        }
      ],
      "name": "CropSoldOut",
      "type": "event"
    },
    {
      "anonymous": false,
      "inputs": [
        {
          "indexed": true,
          "internalType": "address",
          "name": "customer",
          "type": "address"
        },
        {
          "indexed": false,
          "internalType": "uint256",
          "name": "timestamp",
          "type": "uint256"
        }
      ],
      "name": "CustomerLoggedIn",
      "type": "event"
    },
    {
      "anonymous": false,
      "inputs": [
        {
          "indexed": true,
          "internalType": "address",
          "name": "customer",
          "type": "address"
        },
        {
          "indexed": false,
          "internalType": "string",
          "name": "name",
          "type": "string"
        }
      ],
      "name": "CustomerRegistered",
      "type": "event"
    },
    {
      "anonymous": false,
      "inputs": [
        {
          "indexed": true,
          "internalType": "address",
          "name": "farmer",
          "type": "address"
        },
        {
          "indexed": false,
          "internalType": "uint256",
          "name": "timestamp",
          "type": "uint256"
        }
      ],
      "name": "FarmerLoggedIn",
      "type": "event"
    },
    {
      "anonymous": false,
      "inputs": [
        {
          "indexed": true,
          "internalType": "address",
          "name": "farmer",
          "type": "address"
        },
        {
          "indexed": false,
          "internalType": "string",
          "name": "name",
          "type": "string"
        }
      ],
      "name": "FarmerRegistered",
      "type": "event"
    },
    {
      "inputs": [],
      "name": "admin",
      "outputs": [
        {
          "internalType": "address",
          "name": "",
          "type": "address"
        }
      ],
      "stateMutability": "view",
      "type": "function",
      "constant": true
    },
    {
      "inputs": [],
      "name": "cropCount",
      "outputs": [
        {
          "internalType": "uint256",
          "name": "",
          "type": "uint256"
        }
      ],
      "stateMutability": "view",
      "type": "function",
      "constant": true
    },
    {
      "inputs": [
        {
          "internalType": "uint256",
          "name": "",
          "type": "uint256"
        }
      ],
      "name": "crops",
      "outputs": [
        {
          "internalType": "uint256",
          "name": "id",
          "type": "uint256"
        },
        {
          "internalType": "string",
          "name": "name",
          "type": "string"
        },
        {
          "internalType": "string",
          "name": "location",
          "type": "string"
        },
        {
          "internalType": "uint256",
          "name": "quantityProduced",
          "type": "uint256"
        },
        {
          "internalType": "uint256",
          "name": "price",
          "type": "uint256"
        },
        {
          "internalType": "string",
          "name": "additionalInfo",
          "type": "string"
        },
        {
          "internalType": "address",
          "name": "farmer",
          "type": "address"
        }
      ],
      "stateMutability": "view",
      "type": "function",
      "constant": true
    },
    {
      "inputs": [
        {
          "internalType": "address",
          "name": "",
          "type": "address"
        },
        {
          "internalType": "uint256",
          "name": "",
          "type": "uint256"
        }
      ],
      "name": "customerTransactions",
      "outputs": [
        {
          "internalType": "uint256",
          "name": "cropId",
          "type": "uint256"
        },
        {
          "internalType": "address",
          "name": "farmer",
          "type": "address"
        },
        {
          "internalType": "address",
          "name": "customer",
          "type": "address"
        },
        {
          "internalType": "uint256",
          "name": "amount",
          "type": "uint256"
        },
        {
          "internalType": "uint256",
          "name": "timestamp",
          "type": "uint256"
        }
      ],
      "stateMutability": "view",
      "type": "function",
      "constant": true
    },
    {
      "inputs": [
        {
          "internalType": "address",
          "name": "",
          "type": "address"
        }
      ],
      "name": "customers",
      "outputs": [
        {
          "internalType": "address",
          "name": "walletAddress",
          "type": "address"
        },
        {
          "internalType": "string",
          "name": "username",
          "type": "string"
        },
        {
          "internalType": "string",
          "name": "password",
          "type": "string"
        },
        {
          "internalType": "string",
          "name": "name",
          "type": "string"
        },
        {
          "internalType": "bool",
          "name": "isRegistered",
          "type": "bool"
        },
        {
          "internalType": "uint256",
          "name": "lastLogin",
          "type": "uint256"
        }
      ],
      "stateMutability": "view",
      "type": "function",
      "constant": true
    },
    {
      "inputs": [],
      "name": "etherRate",
      "outputs": [
        {
          "internalType": "uint256",
          "name": "",
          "type": "uint256"
        }
      ],
      "stateMutability": "view",
      "type": "function",
      "constant": true
    },
    {
      "inputs": [
        {
          "internalType": "address",
          "name": "",
          "type": "address"
        },
        {
          "internalType": "uint256",
          "name": "",
          "type": "uint256"
        }
      ],
      "name": "farmerTransactions",
      "outputs": [
        {
          "internalType": "uint256",
          "name": "cropId",
          "type": "uint256"
        },
        {
          "internalType": "address",
          "name": "farmer",
          "type": "address"
        },
        {
          "internalType": "address",
          "name": "customer",
          "type": "address"
        },
        {
          "internalType": "uint256",
          "name": "amount",
          "type": "uint256"
        },
        {
          "internalType": "uint256",
          "name": "timestamp",
          "type": "uint256"
        }
      ],
      "stateMutability": "view",
      "type": "function",
      "constant": true
    },
    {
      "inputs": [
        {
          "internalType": "address",
          "name": "",
          "type": "address"
        }
      ],
      "name": "farmers",
      "outputs": [
        {
          "internalType": "address",
          "name": "walletAddress",
          "type": "address"
        },
        {
          "internalType": "string",
          "name": "username",
          "type": "string"
        },
        {
          "internalType": "string",
          "name": "password",
          "type": "string"
        },
        {
          "internalType": "string",
          "name": "name",
          "type": "string"
        },
        {
          "internalType": "bool",
          "name": "isRegistered",
          "type": "bool"
        },
        {
          "internalType": "uint256",
          "name": "lastLogin",
          "type": "uint256"
        }
      ],
      "stateMutability": "view",
      "type": "function",
      "constant": true
    },
    {
      "inputs": [
        {
          "internalType": "uint256",
          "name": "",
          "type": "uint256"
        },
        {
          "internalType": "uint256",
          "name": "",
          "type": "uint256"
        }
      ],
      "name": "orders",
      "outputs": [
        {
          "internalType": "address",
          "name": "customer",
          "type": "address"
        },
        {
          "internalType": "string",
          "name": "customerName",
          "type": "string"
        },
        {
          "internalType": "string",
          "name": "customerAddress",
          "type": "string"
        },
        {
          "internalType": "string",
          "name": "customerContact",
          "type": "string"
        },
        {
          "internalType": "string",
          "name": "cropName",
          "type": "string"
        },
        {
          "internalType": "string",
          "name": "harvestLocation",
          "type": "string"
        },
        {
          "internalType": "string",
          "name": "deliveredTo",
          "type": "string"
        },
        {
          "internalType": "uint256",
          "name": "pricePerUnit",
          "type": "uint256"
        },
        {
          "internalType": "uint256",
          "name": "quantityPurchased",
          "type": "uint256"
        },
        {
          "internalType": "uint256",
          "name": "expectedDeliveryDate",
          "type": "uint256"
        }
      ],
      "stateMutability": "view",
      "type": "function",
      "constant": true
    },
    {
      "inputs": [
        {
          "internalType": "string",
          "name": "_username",
          "type": "string"
        },
        {
          "internalType": "string",
          "name": "_password",
          "type": "string"
        },
        {
          "internalType": "string",
          "name": "_name",
          "type": "string"
        }
      ],
      "name": "registerFarmer",
      "outputs": [],
      "stateMutability": "nonpayable",
      "type": "function"
    },
    {
      "inputs": [
        {
          "internalType": "string",
          "name": "_username",
          "type": "string"
        },
        {
          "internalType": "string",
          "name": "_password",
          "type": "string"
        }
      ],
      "name": "loginFarmer",
      "outputs": [],
      "stateMutability": "nonpayable",
      "type": "function"
    },
    {
      "inputs": [
        {
          "internalType": "string",
          "name": "_username",
          "type": "string"
        },
        {
          "internalType": "string",
          "name": "_password",
          "type": "string"
        },
        {
          "internalType": "string",
          "name": "_name",
          "type": "string"
        }
      ],
      "name": "registerCustomer",
      "outputs": [],
      "stateMutability": "nonpayable",
      "type": "function"
    },
    {
      "inputs": [
        {
          "internalType": "string",
          "name": "_username",
          "type": "string"
        },
        {
          "internalType": "string",
          "name": "_password",
          "type": "string"
        }
      ],
      "name": "loginCustomer",
      "outputs": [],
      "stateMutability": "nonpayable",
      "type": "function"
    },
    {
      "inputs": [
        {
          "internalType": "string",
          "name": "_name",
          "type": "string"
        },
        {
          "internalType": "string",
          "name": "_location",
          "type": "string"
        },
        {
          "internalType": "uint256",
          "name": "_quantityProduced",
          "type": "uint256"
        },
        {
          "internalType": "uint256",
          "name": "_price",
          "type": "uint256"
        },
        {
          "internalType": "string",
          "name": "_additionalInfo",
          "type": "string"
        }
      ],
      "name": "registerCrop",
      "outputs": [],
      "stateMutability": "nonpayable",
      "type": "function"
    },
    {
      "inputs": [
        {
          "internalType": "uint256",
          "name": "_id",
          "type": "uint256"
        }
      ],
      "name": "getCrop",
      "outputs": [
        {
          "internalType": "uint256",
          "name": "id",
          "type": "uint256"
        },
        {
          "internalType": "string",
          "name": "name",
          "type": "string"
        },
        {
          "internalType": "string",
          "name": "location",
          "type": "string"
        },
        {
          "internalType": "uint256",
          "name": "quantityProduced",
          "type": "uint256"
        },
        {
          "internalType": "uint256",
          "name": "price",
          "type": "uint256"
        },
        {
          "internalType": "string",
          "name": "additionalInfo",
          "type": "string"
        },
        {
          "internalType": "address",
          "name": "farmer",
          "type": "address"
        }
      ],
      "stateMutability": "view",
      "type": "function",
      "constant": true
    },
    {
      "inputs": [
        {
          "internalType": "uint256",
          "name": "cropId",
          "type": "uint256"
        },
        {
          "internalType": "uint256",
          "name": "quantity",
          "type": "uint256"
        }
      ],
      "name": "calculatePrice",
      "outputs": [
        {
          "internalType": "uint256",
          "name": "",
          "type": "uint256"
        }
      ],
      "stateMutability": "view",
      "type": "function",
      "constant": true
    },
    {
      "inputs": [
        {
          "internalType": "uint256",
          "name": "_id",
          "type": "uint256"
        },
        {
          "internalType": "uint256",
          "name": "_quantity",
          "type": "uint256"
        }
      ],
      "name": "buyCrop",
      "outputs": [],
      "stateMutability": "payable",
      "type": "function",
      "payable": true
    },
    {
      "inputs": [
        {
          "internalType": "uint256",
          "name": "_newRate",
          "type": "uint256"
        }
      ],
      "name": "setEtherRate",
      "outputs": [],
      "stateMutability": "nonpayable",
      "type": "function"
    },
    {
      "inputs": [
        {
          "internalType": "uint256",
          "name": "rupees",
          "type": "uint256"
        }
      ],
      "name": "convertRupeesToEther",
      "outputs": [
        {
          "internalType": "uint256",
          "name": "",
          "type": "uint256"
        }
      ],
      "stateMutability": "view",
      "type": "function",
      "constant": true
    },
    {
      "inputs": [],
      "name": "getFarmerTransactions",
      "outputs": [
        {
          "components": [
            {
              "internalType": "uint256",
              "name": "cropId",
              "type": "uint256"
            },
            {
              "internalType": "address",
              "name": "farmer",
              "type": "address"
            },
            {
              "internalType": "address",
              "name": "customer",
              "type": "address"
            },
            {
              "internalType": "uint256",
              "name": "amount",
              "type": "uint256"
            },
            {
              "internalType": "uint256",
              "name": "timestamp",
              "type": "uint256"
            }
          ],
          "internalType": "struct AgriSupplyChain.Transaction[]",
          "name": "",
          "type": "tuple[]"
        }
      ],
      "stateMutability": "view",
      "type": "function",
      "constant": true
    },
    {
      "inputs": [],
      "name": "getCustomerTransactions",
      "outputs": [
        {
          "components": [
            {
              "internalType": "uint256",
              "name": "cropId",
              "type": "uint256"
            },
            {
              "internalType": "address",
              "name": "farmer",
              "type": "address"
            },
            {
              "internalType": "address",
              "name": "customer",
              "type": "address"
            },
            {
              "internalType": "uint256",
              "name": "amount",
              "type": "uint256"
            },
            {
              "internalType": "uint256",
              "name": "timestamp",
              "type": "uint256"
            }
          ],
          "internalType": "struct AgriSupplyChain.Transaction[]",
          "name": "",
          "type": "tuple[]"
        }
      ],
      "stateMutability": "view",
      "type": "function",
      "constant": true
    },
    {
      "inputs": [
        {
          "internalType": "uint256",
          "name": "cropId",
          "type": "uint256"
        }
      ],
      "name": "getOrders",
      "outputs": [
        {
          "components": [
            {
              "internalType": "address",
              "name": "customer",
              "type": "address"
            },
            {
              "internalType": "string",
              "name": "customerName",
              "type": "string"
            },
            {
              "internalType": "string",
              "name": "customerAddress",
              "type": "string"
            },
            {
              "internalType": "string",
              "name": "customerContact",
              "type": "string"
            },
            {
              "internalType": "string",
              "name": "cropName",
              "type": "string"
            },
            {
              "internalType": "string",
              "name": "harvestLocation",
              "type": "string"
            },
            {
              "internalType": "string",
              "name": "deliveredTo",
              "type": "string"
            },
            {
              "internalType": "uint256",
              "name": "pricePerUnit",
              "type": "uint256"
            },
            {
              "internalType": "uint256",
              "name": "quantityPurchased",
              "type": "uint256"
            },
            {
              "internalType": "uint256",
              "name": "expectedDeliveryDate",
              "type": "uint256"
            }
          ],
          "internalType": "struct AgriSupplyChain.Order[]",
          "name": "",
          "type": "tuple[]"
        }
      ],
      "stateMutability": "view",
      "type": "function",
      "constant": true
    }
  ],
  "bytecode": "0x60806040526201388060075534801561001757600080fd5b50600080546001600160a01b03191633179055612c98806100396000396000f3fe6080604052600436106101355760003560e01c8063a604d777116100ab578063d7a84dc71161006f578063d7a84dc7146103af578063dfd55a2c146103cf578063ee12533c146103e5578063f851a44014610405578063f8e66a4d1461043d578063fe7aa1531461045d57600080fd5b8063a604d7771461030e578063a6413a271461032e578063b46d637a1461034e578063b94a000f14610363578063d0f7a6011461039957600080fd5b806370c9f1a5116100fd57806370c9f1a51461021257806388672f82146102455780638bc7fa9c1461026557806395768d5e146102855780639c8c7115146102a7578063a086dd88146102fb57600080fd5b806305e0141d1461013a57806329a566d214610170578063336989ae146101925780633e7dc0bc146101c4578063401b2168146101f2575b600080fd5b34801561014657600080fd5b5061015a61015536600461229c565b61047d565b6040516101679190612305565b60405180910390f35b34801561017c57600080fd5b5061019061018b3660046124cf565b610890565b005b34801561019e57600080fd5b506101b26101ad366004612573565b6109f5565b60405161016796959493929190612595565b3480156101d057600080fd5b506101e46101df36600461229c565b610bd0565b604051908152602001610167565b3480156101fe57600080fd5b506101b261020d366004612573565b610bf8565b34801561021e57600080fd5b5061023261022d36600461229c565b610c25565b60405161016797969594939291906125f5565b34801561025157600080fd5b5061019061026036600461229c565b610e01565b34801561027157600080fd5b5061023261028036600461229c565b610eba565b34801561029157600080fd5b5061029a611150565b604051610167919061265d565b3480156102b357600080fd5b506102c76102c23660046126d7565b6111f2565b604080519586526001600160a01b03948516602087015292909316918401919091526060830152608082015260a001610167565b610190610309366004612701565b61124b565b34801561031a57600080fd5b50610190610329366004612723565b6117a0565b34801561033a57600080fd5b506101e4610349366004612701565b6118f0565b34801561035a57600080fd5b5061029a611976565b34801561036f57600080fd5b5061038361037e366004612701565b611a0c565b6040516101679a999897969594939291906127bf565b3480156103a557600080fd5b506101e460075481565b3480156103bb57600080fd5b506101906103ca36600461286d565b611db4565b3480156103db57600080fd5b506101e460065481565b3480156103f157600080fd5b506102c76104003660046126d7565b611f74565b34801561041157600080fd5b50600054610425906001600160a01b031681565b6040516001600160a01b039091168152602001610167565b34801561044957600080fd5b506101906104583660046124cf565b611f90565b34801561046957600080fd5b5061019061047836600461286d565b6120e4565b606060086000838152602001908152602001600020805480602002602001604051908101604052809291908181526020016000905b82821015610885576000848152602090819020604080516101408101909152600a850290910180546001600160a01b0316825260018101805492939192918401916104fc906128d1565b80601f0160208091040260200160405190810160405280929190818152602001828054610528906128d1565b80156105755780601f1061054a57610100808354040283529160200191610575565b820191906000526020600020905b81548152906001019060200180831161055857829003601f168201915b5050505050815260200160028201805461058e906128d1565b80601f01602080910402602001604051908101604052809291908181526020018280546105ba906128d1565b80156106075780601f106105dc57610100808354040283529160200191610607565b820191906000526020600020905b8154815290600101906020018083116105ea57829003601f168201915b50505050508152602001600382018054610620906128d1565b80601f016020809104026020016040519081016040528092919081815260200182805461064c906128d1565b80156106995780601f1061066e57610100808354040283529160200191610699565b820191906000526020600020905b81548152906001019060200180831161067c57829003601f168201915b505050505081526020016004820180546106b2906128d1565b80601f01602080910402602001604051908101604052809291908181526020018280546106de906128d1565b801561072b5780601f106107005761010080835404028352916020019161072b565b820191906000526020600020905b81548152906001019060200180831161070e57829003601f168201915b50505050508152602001600582018054610744906128d1565b80601f0160208091040260200160405190810160405280929190818152602001828054610770906128d1565b80156107bd5780601f10610792576101008083540402835291602001916107bd565b820191906000526020600020905b8154815290600101906020018083116107a057829003601f168201915b505050505081526020016006820180546107d6906128d1565b80601f0160208091040260200160405190810160405280929190818152602001828054610802906128d1565b801561084f5780601f106108245761010080835404028352916020019161084f565b820191906000526020600020905b81548152906001019060200180831161083257829003601f168201915b505050505081526020016007820154815260200160088201548152602001600982015481525050815260200190600101906104b2565b505050509050919050565b3360009081526001602052604090206004015460ff16156108f85760405162461bcd60e51b815260206004820152601a60248201527f4661726d657220616c726561647920726567697374657265642e00000000000060448201526064015b60405180910390fd5b6040805160c08101825233808252602080830187815283850187905260608401869052600160808501819052600060a086018190529384529182905293909120825181546001600160a01b0319166001600160a01b03909116178155925191929190820190610967908261295a565b506040820151600282019061097c908261295a565b5060608201516003820190610991908261295a565b50608082015160048201805460ff191691151591909117905560a09091015160059091015560405133907f42558426a946ab6e527d7f548e7bd3e34c2a7ddde555007464cdfbb5f58665f8906109e8908490612a1a565b60405180910390a2505050565b600260205260009081526040902080546001820180546001600160a01b039092169291610a21906128d1565b80601f0160208091040260200160405190810160405280929190818152602001828054610a4d906128d1565b8015610a9a5780601f10610a6f57610100808354040283529160200191610a9a565b820191906000526020600020905b815481529060010190602001808311610a7d57829003601f168201915b505050505090806002018054610aaf906128d1565b80601f0160208091040260200160405190810160405280929190818152602001828054610adb906128d1565b8015610b285780601f10610afd57610100808354040283529160200191610b28565b820191906000526020600020905b815481529060010190602001808311610b0b57829003601f168201915b505050505090806003018054610b3d906128d1565b80601f0160208091040260200160405190810160405280929190818152602001828054610b69906128d1565b8015610bb65780601f10610b8b57610100808354040283529160200191610bb6565b820191906000526020600020905b815481529060010190602001808311610b9957829003601f168201915b505050506004830154600590930154919260ff1691905086565b600754600090610be883670de0b6b3a7640000612a43565b610bf29190612a5a565b92915050565b6001602081905260009182526040909120805491810180546001600160a01b0390931692610a21906128d1565b60036020526000908152604090208054600182018054919291610c47906128d1565b80601f0160208091040260200160405190810160405280929190818152602001828054610c73906128d1565b8015610cc05780601f10610c9557610100808354040283529160200191610cc0565b820191906000526020600020905b815481529060010190602001808311610ca357829003601f168201915b505050505090806002018054610cd5906128d1565b80601f0160208091040260200160405190810160405280929190818152602001828054610d01906128d1565b8015610d4e5780601f10610d2357610100808354040283529160200191610d4e565b820191906000526020600020905b815481529060010190602001808311610d3157829003601f168201915b505050505090806003015490806004015490806005018054610d6f906128d1565b80601f0160208091040260200160405190810160405280929190818152602001828054610d9b906128d1565b8015610de85780601f10610dbd57610100808354040283529160200191610de8565b820191906000526020600020905b815481529060010190602001808311610dcb57829003601f168201915b505050600690930154919250506001600160a01b031687565b6000546001600160a01b03163314610e5b5760405162461bcd60e51b815260206004820152601c60248201527f4f6e6c792061646d696e2063616e206578656375746520746869732e0000000060448201526064016108ef565b60008111610eb55760405162461bcd60e51b815260206004820152602160248201527f436f6e76657273696f6e2072617465206d75737420626520706f7369746976656044820152601760f91b60648201526084016108ef565b600755565b60006060806000806060600080600360008a81526020019081526020016000206040518060e001604052908160008201548152602001600182018054610eff906128d1565b80601f0160208091040260200160405190810160405280929190818152602001828054610f2b906128d1565b8015610f785780601f10610f4d57610100808354040283529160200191610f78565b820191906000526020600020905b815481529060010190602001808311610f5b57829003601f168201915b50505050508152602001600282018054610f91906128d1565b80601f0160208091040260200160405190810160405280929190818152602001828054610fbd906128d1565b801561100a5780601f10610fdf5761010080835404028352916020019161100a565b820191906000526020600020905b815481529060010190602001808311610fed57829003601f168201915b505050505081526020016003820154815260200160048201548152602001600582018054611037906128d1565b80601f0160208091040260200160405190810160405280929190818152602001828054611063906128d1565b80156110b05780601f10611085576101008083540402835291602001916110b0565b820191906000526020600020905b81548152906001019060200180831161109357829003601f168201915b5050509183525050600691909101546001600160a01b031660209091015280519091506000036111195760405162461bcd60e51b815260206004820152601460248201527321b937b8103237b2b9903737ba1032bc34b9ba1760611b60448201526064016108ef565b8051602082015160408301516060840151608085015160a086015160c090960151949e939d50919b50995097509195509350915050565b336000908152600460209081526040808320805482518185028101850190935280835260609492939192909184015b828210156111e95760008481526020908190206040805160a08101825260058602909201805483526001808201546001600160a01b03908116858701526002830154169284019290925260038101546060840152600401546080830152908352909201910161117f565b50505050905090565b6005602052816000526040600020818154811061120e57600080fd5b6000918252602090912060059091020180546001820154600283015460038401546004909401549295506001600160a01b03918216945016919085565b3360009081526002602052604090206004015460ff1661127d5760405162461bcd60e51b81526004016108ef90612a7c565b600061128983836118f0565b905034818110156112d55760405162461bcd60e51b815260206004820152601660248201527524b739bab33334b1b4b2b73a1022aa241039b2b73a1760511b60448201526064016108ef565b8181111561131557336108fc6112eb8484612ac7565b6040518115909202916000818181858888f19350505050158015611313573d6000803e3d6000fd5b505b6000848152600360205260408120805490910361136b5760405162461bcd60e51b815260206004820152601460248201527321b937b8103237b2b9903737ba1032bc34b9ba1760611b60448201526064016108ef565b600084116113c75760405162461bcd60e51b815260206004820152602360248201527f5175616e74697479206d7573742062652067726561746572207468616e207a6560448201526239379760e91b60648201526084016108ef565b838160030154101561141b5760405162461bcd60e51b815260206004820152601e60248201527f4e6f7420656e6f756768207175616e7469747920617661696c61626c652e000060448201526064016108ef565b8381600301600082825461142f9190612ac7565b9091555050600381015460000361149057600681015481546040516001600160a01b03909216917f2f8a62d83be3e21a01f4dff9bd63898bfa19e244e8638f01d8da285e7c43eb759161148791600186019190612ada565b60405180910390a25b60068101546040516000916001600160a01b03169085908381818185875af1925050503d80600081146114df576040519150601f19603f3d011682016040523d82523d6000602084013e6114e4565b606091505b50509050806115355760405162461bcd60e51b815260206004820152601960248201527f5061796d656e7420746f206661726d6572206661696c65642e0000000000000060448201526064016108ef565b60006040518060a001604052808881526020018460060160009054906101000a90046001600160a01b03166001600160a01b03168152602001336001600160a01b03168152602001868152602001428152509050600460008460060160009054906101000a90046001600160a01b03166001600160a01b03166001600160a01b031681526020019081526020016000208190806001815401808255809150506001900390600052602060002090600502016000909190919091506000820151816000015560208201518160010160006101000a8154816001600160a01b0302191690836001600160a01b0316021790555060408201518160020160006101000a8154816001600160a01b0302191690836001600160a01b031602179055506060820151816003015560808201518160040155505060056000336001600160a01b03166001600160a01b031681526020019081526020016000208190806001815401808255809150506001900390600052602060002090600502016000909190919091506000820151816000015560208201518160010160006101000a8154816001600160a01b0302191690836001600160a01b0316021790555060408201518160020160006101000a8154816001600160a01b0302191690836001600160a01b03160217905550606082015181600301556080820151816004015550508260060160009054906101000a90046001600160a01b03166001600160a01b0316336001600160a01b0316887f2299b4cd9d087cdc255d89434e324744167a23928d822da7ae3c8fff3a2fed4c8860405161178f91815260200190565b60405180910390a450505050505050565b3360009081526001602052604090206004015460ff166117d25760405162461bcd60e51b81526004016108ef90612b6e565b600680549060006117e283612bb7565b90915550506040805160e0810182526006548082526020808301898152838501899052606084018890526080840187905260a084018690523360c0850152600092835260039091529290208151815591519091906001820190611845908261295a565b506040820151600282019061185a908261295a565b50606082015160038201556080820151600482015560a08201516005820190611883908261295a565b5060c09190910151600691820180546001600160a01b0319166001600160a01b03909216919091179055546040513391907fc1acc370fe30e65479d5930e5d3a589fdb983cda0e121a492096448493f7475a906118e1908990612a1a565b60405180910390a35050505050565b6000828152600360208190526040822001548211156119515760405162461bcd60e51b815260206004820181905260248201527f496e73756666696369656e74207175616e7469747920617661696c61626c652e60448201526064016108ef565b60008381526003602052604081206004015461196e908490612a43565b949350505050565b3360009081526005602090815260408083208054825181850281018501909352808352606094929391929091840182156111e95760008481526020908190206040805160a08101825260058602909201805483526001808201546001600160a01b03908116858701526002830154169284019290925260038101546060840152600401546080830152908352909201910161117f565b60086020528160005260406000208181548110611a2857600080fd5b60009182526020909120600a9091020180546001820180546001600160a01b039092169450919250611a59906128d1565b80601f0160208091040260200160405190810160405280929190818152602001828054611a85906128d1565b8015611ad25780601f10611aa757610100808354040283529160200191611ad2565b820191906000526020600020905b815481529060010190602001808311611ab557829003601f168201915b505050505090806002018054611ae7906128d1565b80601f0160208091040260200160405190810160405280929190818152602001828054611b13906128d1565b8015611b605780601f10611b3557610100808354040283529160200191611b60565b820191906000526020600020905b815481529060010190602001808311611b4357829003601f168201915b505050505090806003018054611b75906128d1565b80601f0160208091040260200160405190810160405280929190818152602001828054611ba1906128d1565b8015611bee5780601f10611bc357610100808354040283529160200191611bee565b820191906000526020600020905b815481529060010190602001808311611bd157829003601f168201915b505050505090806004018054611c03906128d1565b80601f0160208091040260200160405190810160405280929190818152602001828054611c2f906128d1565b8015611c7c5780601f10611c5157610100808354040283529160200191611c7c565b820191906000526020600020905b815481529060010190602001808311611c5f57829003601f168201915b505050505090806005018054611c91906128d1565b80601f0160208091040260200160405190810160405280929190818152602001828054611cbd906128d1565b8015611d0a5780601f10611cdf57610100808354040283529160200191611d0a565b820191906000526020600020905b815481529060010190602001808311611ced57829003601f168201915b505050505090806006018054611d1f906128d1565b80601f0160208091040260200160405190810160405280929190818152602001828054611d4b906128d1565b8015611d985780601f10611d6d57610100808354040283529160200191611d98565b820191906000526020600020905b815481529060010190602001808311611d7b57829003601f168201915b505050505090806007015490806008015490806009015490508a565b3360009081526001602052604090206004015460ff16611de65760405162461bcd60e51b81526004016108ef90612b6e565b81604051602001611df79190612bd0565b60408051601f19818403018152828252805160209182012033600090815260018084529390209093611e2e93919091019101612bec565b6040516020818303038152906040528051906020012014611e855760405162461bcd60e51b815260206004820152601160248201527024b73b30b634b2103ab9b2b93730b6b29760791b60448201526064016108ef565b80604051602001611e969190612bd0565b60408051601f19818403018152828252805160209182012033600090815260018352929092209192611ecc926002019101612bec565b6040516020818303038152906040528051906020012014611f235760405162461bcd60e51b815260206004820152601160248201527024b73b30b634b2103830b9b9bbb7b9321760791b60448201526064016108ef565b3360008181526001602090815260409182902042600590910181905591519182527fb9eb663bbd7d3a14d2cbd2be0e54e554faa7b006f9e0c7880eb7587d2a9f94af91015b60405180910390a25050565b6004602052816000526040600020818154811061120e57600080fd5b3360009081526002602052604090206004015460ff1615611ff35760405162461bcd60e51b815260206004820152601c60248201527f437573746f6d657220616c726561647920726567697374657265642e0000000060448201526064016108ef565b6040805160c08101825233808252602080830187815283850187905260608401869052600160808501819052600060a08601819052938452600290925293909120825181546001600160a01b0319166001600160a01b03909116178155925191929190820190612063908261295a565b5060408201516002820190612078908261295a565b506060820151600382019061208d908261295a565b50608082015160048201805460ff191691151591909117905560a09091015160059091015560405133907f2bf7863d4068dda3123298d02ee28530519d2e96eaab6784f5f0b6184ddd2015906109e8908490612a1a565b3360009081526002602052604090206004015460ff166121165760405162461bcd60e51b81526004016108ef90612a7c565b816040516020016121279190612bd0565b60408051601f1981840301815282825280516020918201203360009081526002835292909220919261215d926001019101612bec565b60405160208183030381529060405280519060200120146121b45760405162461bcd60e51b815260206004820152601160248201527024b73b30b634b2103ab9b2b93730b6b29760791b60448201526064016108ef565b806040516020016121c59190612bd0565b60408051601f198184030181528282528051602091820120336000908152600280845293902090936121fc93919091019101612bec565b60405160208183030381529060405280519060200120146122535760405162461bcd60e51b815260206004820152601160248201527024b73b30b634b2103830b9b9bbb7b9321760791b60448201526064016108ef565b3360008181526002602090815260409182902042600590910181905591519182527f3711c88cf1f8804cf5d507909644d217fe253da461776b63dc6d821a0d031ffb9101611f68565b6000602082840312156122ae57600080fd5b5035919050565b60005b838110156122d05781810151838201526020016122b8565b50506000910152565b600081518084526122f18160208601602086016122b5565b601f01601f19169290920160200192915050565b60006020808301818452808551808352604092508286019150828160051b87010184880160005b8381101561241e57888303603f19018552815180516001600160a01b0316845261014088820151818a870152612364828701826122d9565b915050878201518582038987015261237c82826122d9565b9150506060808301518683038288015261239683826122d9565b92505050608080830151868303828801526123b183826122d9565b9250505060a080830151868303828801526123cc83826122d9565b9250505060c080830151868303828801526123e783826122d9565b60e085810151908901526101008086015190890152610120948501519490970193909352505050938601939086019060010161232c565b509098975050505050505050565b634e487b7160e01b600052604160045260246000fd5b600082601f83011261245357600080fd5b813567ffffffffffffffff8082111561246e5761246e61242c565b604051601f8301601f19908116603f011681019082821181831017156124965761249661242c565b816040528381528660208588010111156124af57600080fd5b836020870160208301376000602085830101528094505050505092915050565b6000806000606084860312156124e457600080fd5b833567ffffffffffffffff808211156124fc57600080fd5b61250887838801612442565b9450602086013591508082111561251e57600080fd5b61252a87838801612442565b9350604086013591508082111561254057600080fd5b5061254d86828701612442565b9150509250925092565b80356001600160a01b038116811461256e57600080fd5b919050565b60006020828403121561258557600080fd5b61258e82612557565b9392505050565b6001600160a01b038716815260c0602082018190526000906125b9908301886122d9565b82810360408401526125cb81886122d9565b905082810360608401526125df81876122d9565b9415156080840152505060a00152949350505050565b87815260e06020820152600061260e60e08301896122d9565b828103604084015261262081896122d9565b905086606084015285608084015282810360a084015261264081866122d9565b91505060018060a01b03831660c083015298975050505050505050565b602080825282518282018190526000919060409081850190868401855b828110156126ca57815180518552868101516001600160a01b0390811688870152868201511686860152606080820151908601526080908101519085015260a0909301929085019060010161267a565b5091979650505050505050565b600080604083850312156126ea57600080fd5b6126f383612557565b946020939093013593505050565b6000806040838503121561271457600080fd5b50508035926020909101359150565b600080600080600060a0868803121561273b57600080fd5b853567ffffffffffffffff8082111561275357600080fd5b61275f89838a01612442565b9650602088013591508082111561277557600080fd5b61278189838a01612442565b9550604088013594506060880135935060808801359150808211156127a557600080fd5b506127b288828901612442565b9150509295509295909350565b6001600160a01b038b168152610140602082018190526000906127e48382018d6122d9565b905082810360408401526127f8818c6122d9565b9050828103606084015261280c818b6122d9565b90508281036080840152612820818a6122d9565b905082810360a084015261283481896122d9565b905082810360c084015261284881886122d9565b60e0840196909652505061010081019290925261012090910152979650505050505050565b6000806040838503121561288057600080fd5b823567ffffffffffffffff8082111561289857600080fd5b6128a486838701612442565b935060208501359150808211156128ba57600080fd5b506128c785828601612442565b9150509250929050565b600181811c908216806128e557607f821691505b60208210810361290557634e487b7160e01b600052602260045260246000fd5b50919050565b601f82111561295557600081815260208120601f850160051c810160208610156129325750805b601f850160051c820191505b818110156129515782815560010161293e565b5050505b505050565b815167ffffffffffffffff8111156129745761297461242c565b6129888161298284546128d1565b8461290b565b602080601f8311600181146129bd57600084156129a55750858301515b600019600386901b1c1916600185901b178555612951565b600085815260208120601f198616915b828110156129ec578886015182559484019460019091019084016129cd565b5085821015612a0a5787850151600019600388901b60f8161c191681555b5050505050600190811b01905550565b60208152600061258e60208301846122d9565b634e487b7160e01b600052601160045260246000fd5b8082028115828204841417610bf257610bf2612a2d565b600082612a7757634e487b7160e01b600052601260045260246000fd5b500490565b6020808252602b908201527f4f6e6c79207265676973746572656420637573746f6d6572732063616e20657860408201526a32b1baba32903a3434b99760a91b606082015260800190565b81810381811115610bf257610bf2612a2d565b604081526000808454612aec816128d1565b8060408601526060600180841660008114612b0e5760018114612b2857612b59565b60ff1985168884015283151560051b880183019550612b59565b8960005260208060002060005b86811015612b505781548b8201870152908401908201612b35565b8a018501975050505b50505050506020929092019290925292915050565b60208082526029908201527f4f6e6c792072656769737465726564206661726d6572732063616e20657865636040820152683aba32903a3434b99760b91b606082015260800190565b600060018201612bc957612bc9612a2d565b5060010190565b60008251612be28184602087016122b5565b9190910192915050565b6000808354612bfa816128d1565b60018281168015612c125760018114612c2757612c56565b60ff1984168752821515830287019450612c56565b8760005260208060002060005b85811015612c4d5781548a820152908401908201612c34565b50505082870194505b5092969550505050505056fea26469706673582212203820708e891365553776cb264abd434b4903af8a85b5ce946a4bd0063e1c1ac364736f6c63430008130033",
  "immutableReferences": {},
  "source": "//AgriSupplyChain.sol\n// SPDX-License-Identifier: MIT\npragma solidity ^0.8.19;\n\ncontract AgriSupplyChain {\n    address public admin;\n\n    struct Farmer {\n        address walletAddress;\n        string username;\n        string password;\n        string name;\n        bool isRegistered;\n        uint256 lastLogin;\n    }\n\n    struct Customer {\n        address walletAddress;\n        string username;\n        string password;\n        string name;\n        bool isRegistered;\n        uint256 lastLogin;\n    }\n\n    struct Crop {\n        uint256 id;\n        string name;\n        string location;\n        uint256 quantityProduced;\n        uint256 price; // Price in rupees\n        string additionalInfo;\n        address farmer; // Owner of the crop\n    }\n\n    struct Transaction {\n        uint256 cropId;\n        address farmer;\n        address customer;\n        uint256 amount; // Paid in ether\n        uint256 timestamp;\n    }\n\n    mapping(address => Farmer) public farmers;\n    mapping(address => Customer) public customers;\n    mapping(uint256 => Crop) public crops;\n    mapping(address => Transaction[]) public farmerTransactions;\n    mapping(address => Transaction[]) public customerTransactions;\n    uint256 public cropCount;\n    uint256 public etherRate = 80000; // Conversion rate from rupees to ether\n\n    event FarmerRegistered(address indexed farmer, string name);\n    event CustomerRegistered(address indexed customer, string name);\n    event CropRegistered(uint256 indexed id, string name, address indexed farmer);\n    event CropPurchased(uint256 indexed id, address indexed customer, address indexed farmer, uint256 amount);\n    event CropSoldOut(address indexed farmer, string cropName, uint256 id);\n    event FarmerLoggedIn(address indexed farmer, uint256 timestamp);\n    event CustomerLoggedIn(address indexed customer, uint256 timestamp);\n\n    modifier onlyFarmer() {\n        require(farmers[msg.sender].isRegistered, \"Only registered farmers can execute this.\");\n        _;\n    }\n\n    modifier onlyCustomer() {\n        require(customers[msg.sender].isRegistered, \"Only registered customers can execute this.\");\n        _;\n    }\n\n    modifier onlyAdmin() {\n        require(msg.sender == admin, \"Only admin can execute this.\");\n        _;\n    }\n\n    constructor() {\n        admin = msg.sender;\n    }\n\n    function registerFarmer(\n        string memory _username,\n        string memory _password,\n        string memory _name\n    ) public {\n        require(!farmers[msg.sender].isRegistered, \"Farmer already registered.\");\n        farmers[msg.sender] = Farmer({\n            walletAddress: msg.sender,\n            username: _username,\n            password: _password,\n            name: _name,\n            isRegistered: true,\n            lastLogin: 0\n        });\n        emit FarmerRegistered(msg.sender, _name);\n    }\n\n    function loginFarmer(string memory _username, string memory _password) public onlyFarmer {\n        require(\n            keccak256(abi.encodePacked(farmers[msg.sender].username)) == keccak256(abi.encodePacked(_username)),\n            \"Invalid username.\"\n        );\n        require(\n            keccak256(abi.encodePacked(farmers[msg.sender].password)) == keccak256(abi.encodePacked(_password)),\n            \"Invalid password.\"\n        );\n        farmers[msg.sender].lastLogin = block.timestamp;\n        emit FarmerLoggedIn(msg.sender, block.timestamp);\n    }\n\n    function registerCustomer(\n        string memory _username,\n        string memory _password,\n        string memory _name\n    ) public {\n        require(!customers[msg.sender].isRegistered, \"Customer already registered.\");\n        customers[msg.sender] = Customer({\n            walletAddress: msg.sender,\n            username: _username,\n            password: _password,\n            name: _name,\n            isRegistered: true,\n            lastLogin: 0\n        });\n        emit CustomerRegistered(msg.sender, _name);\n    }\n\n    function loginCustomer(string memory _username, string memory _password) public onlyCustomer {\n        require(\n            keccak256(abi.encodePacked(customers[msg.sender].username)) == keccak256(abi.encodePacked(_username)),\n            \"Invalid username.\"\n        );\n        require(\n            keccak256(abi.encodePacked(customers[msg.sender].password)) == keccak256(abi.encodePacked(_password)),\n            \"Invalid password.\"\n        );\n        customers[msg.sender].lastLogin = block.timestamp;\n        emit CustomerLoggedIn(msg.sender, block.timestamp);\n    }\n\n    function registerCrop(\n        string memory _name,\n        string memory _location,\n        uint256 _quantityProduced,\n        uint256 _price,\n        string memory _additionalInfo\n    ) public onlyFarmer {\n        cropCount++;\n        crops[cropCount] = Crop({\n            id: cropCount,\n            name: _name,\n            location: _location,\n            quantityProduced: _quantityProduced,\n            price: _price,\n            additionalInfo: _additionalInfo,\n            farmer: msg.sender\n        });\n        emit CropRegistered(cropCount, _name, msg.sender);\n    }\n\n    function getCrop(uint256 _id) public view returns (\n        uint256 id,\n        string memory name,\n        string memory location,\n        uint256 quantityProduced,\n        uint256 price,\n        string memory additionalInfo,\n        address farmer\n    ) {\n        Crop memory crop = crops[_id];\n        require(crop.id != 0, \"Crop does not exist.\");\n        return (\n            crop.id,\n            crop.name,\n            crop.location,\n            crop.quantityProduced,\n            crop.price,\n            crop.additionalInfo,\n            crop.farmer\n        );\n    }\n\n    // Function to calculate the price based on quantity and crop ID\nfunction calculatePrice(uint256 cropId, uint256 quantity) public view returns (uint256) {\n    // Check if the quantity requested is available in the crop\n    require(crops[cropId].quantityProduced >= quantity, \"Insufficient quantity available.\");\n\n    // Calculate the total price in wei\n    uint256 totalPrice = crops[cropId].price * quantity;\n    return totalPrice;\n}\n\n// Function to buy a crop\nfunction buyCrop(uint256 _id, uint256 _quantity) public payable onlyCustomer {\n    // Calculate the price for the requested crop and quantity\n    uint256 price = calculatePrice(_id, _quantity);\n    uint256 receivedValue = msg.value;\n\n    // Ensure that the amount of ETH sent is sufficient for the total price\n    require(receivedValue >= price, \"Insufficient ETH sent.\");\n\n    // Refund any excess amount if it is greater than the price\n    if (receivedValue > price) {\n        payable(msg.sender).transfer(receivedValue - price);\n    }\n\n    // Verify the crop exists and other conditions\n    Crop storage crop = crops[_id];\n    require(crop.id != 0, \"Crop does not exist.\");\n    require(_quantity > 0, \"Quantity must be greater than zero.\");\n    require(crop.quantityProduced >= _quantity, \"Not enough quantity available.\");\n\n    // Update the quantity of the crop after purchase\n    crop.quantityProduced -= _quantity;\n\n    // If the quantity reaches zero, emit the CropSoldOut event\n    if (crop.quantityProduced == 0) {\n        emit CropSoldOut(crop.farmer, crop.name, crop.id);\n    }\n\n    // Transfer the received value to the farmer\n    (bool success, ) = crop.farmer.call{value: price}(\"\");\n    require(success, \"Payment to farmer failed.\");\n\n    // Log the transaction for both farmer and customer\n    Transaction memory txn = Transaction({\n        cropId: _id,\n        farmer: crop.farmer,\n        customer: msg.sender,\n        amount: price,\n        timestamp: block.timestamp\n    });\n    farmerTransactions[crop.farmer].push(txn);\n    customerTransactions[msg.sender].push(txn);\n\n    // Emit event to indicate a successful crop purchase\n    emit CropPurchased(_id, msg.sender, crop.farmer, price);\n}\n\n\n\n    function setEtherRate(uint256 _newRate) public onlyAdmin {\n        require(_newRate > 0, \"Conversion rate must be positive.\");\n        etherRate = _newRate;\n    }\n\n    function convertRupeesToEther(uint256 rupees) public view returns (uint256) {\n    return (rupees * 1 ether) / etherRate; // Define conversionRate (e.g., 100 INR = 1 Ether)\n}\n\n\n    function getFarmerTransactions() public view returns (Transaction[] memory) {\n        return farmerTransactions[msg.sender];\n    }\n\n    function getCustomerTransactions() public view returns (Transaction[] memory) {\n        return customerTransactions[msg.sender];\n    }\n    // Define a struct for order details\n    struct Order {\n        address customer;\n        string customerName;\n        string customerAddress;\n        string customerContact;\n        string cropName;\n        string harvestLocation;\n        string deliveredTo;\n        uint pricePerUnit;\n        uint quantityPurchased;\n        uint expectedDeliveryDate;\n    }\n\n    // Map cropId to an array of orders\n    mapping(uint => Order[]) public orders;\n\n    // Function to get orders by cropId\n    function getOrders(uint cropId) public view returns (Order[] memory) {\n        return orders[cropId];\n    }\n\n}",
  "sourcePath": "D:\\Prajeeta\\Major Project 7th sem\\Krishi Yug\\contracts\\AgriSupplyChain.sol",
  "compiler": {
    "name": "solc",
    "version": "0.8.19+commit.7dd6d404.Emscripten.clang"
  },
  "schemaVersion": "3.4.16",
  "updatedAt": "2024-12-04T06:05:43.191Z",
  "networkType": "ethereum",
  "devdoc": {
    "kind": "dev",
    "methods": {},
    "version": 1
  },
  "userdoc": {
    "kind": "user",
    "methods": {},
    "version": 1
  }
}