{
  "contractName": "AgriSupplyChain",
  "abi": [
    {
      "inputs": [],
      "stateMutability": "nonpayable",
      "type": "constructor"
    },
    {
      "anonymous": false,
      "inputs": [
        {
          "indexed": true,
          "internalType": "uint256",
          "name": "id",
          "type": "uint256"
        },
        {
          "indexed": true,
          "internalType": "address",
          "name": "customer",
          "type": "address"
        },
        {
          "indexed": true,
          "internalType": "address",
          "name": "farmer",
          "type": "address"
        },
        {
          "indexed": false,
          "internalType": "uint256",
          "name": "amount",
          "type": "uint256"
        }
      ],
      "name": "CropPurchased",
      "type": "event"
    },
    {
      "anonymous": false,
      "inputs": [
        {
          "indexed": true,
          "internalType": "uint256",
          "name": "id",
          "type": "uint256"
        },
        {
          "indexed": false,
          "internalType": "string",
          "name": "name",
          "type": "string"
        },
        {
          "indexed": true,
          "internalType": "address",
          "name": "farmer",
          "type": "address"
        }
      ],
      "name": "CropRegistered",
      "type": "event"
    },
    {
      "anonymous": false,
      "inputs": [
        {
          "indexed": true,
          "internalType": "address",
          "name": "farmer",
          "type": "address"
        },
        {
          "indexed": false,
          "internalType": "string",
          "name": "cropName",
          "type": "string"
        },
        {
          "indexed": false,
          "internalType": "uint256",
          "name": "id",
          "type": "uint256"
        }
      ],
      "name": "CropSoldOut",
      "type": "event"
    },
    {
      "anonymous": false,
      "inputs": [
        {
          "indexed": true,
          "internalType": "address",
          "name": "customer",
          "type": "address"
        },
        {
          "indexed": false,
          "internalType": "uint256",
          "name": "timestamp",
          "type": "uint256"
        }
      ],
      "name": "CustomerLoggedIn",
      "type": "event"
    },
    {
      "anonymous": false,
      "inputs": [
        {
          "indexed": true,
          "internalType": "address",
          "name": "customer",
          "type": "address"
        },
        {
          "indexed": false,
          "internalType": "string",
          "name": "name",
          "type": "string"
        }
      ],
      "name": "CustomerRegistered",
      "type": "event"
    },
    {
      "anonymous": false,
      "inputs": [
        {
          "indexed": true,
          "internalType": "address",
          "name": "farmer",
          "type": "address"
        },
        {
          "indexed": false,
          "internalType": "uint256",
          "name": "timestamp",
          "type": "uint256"
        }
      ],
      "name": "FarmerLoggedIn",
      "type": "event"
    },
    {
      "anonymous": false,
      "inputs": [
        {
          "indexed": true,
          "internalType": "address",
          "name": "farmer",
          "type": "address"
        },
        {
          "indexed": false,
          "internalType": "string",
          "name": "name",
          "type": "string"
        }
      ],
      "name": "FarmerRegistered",
      "type": "event"
    },
    {
      "inputs": [],
      "name": "admin",
      "outputs": [
        {
          "internalType": "address",
          "name": "",
          "type": "address"
        }
      ],
      "stateMutability": "view",
      "type": "function",
      "constant": true
    },
    {
      "inputs": [],
      "name": "cropCount",
      "outputs": [
        {
          "internalType": "uint256",
          "name": "",
          "type": "uint256"
        }
      ],
      "stateMutability": "view",
      "type": "function",
      "constant": true
    },
    {
      "inputs": [
        {
          "internalType": "uint256",
          "name": "",
          "type": "uint256"
        }
      ],
      "name": "crops",
      "outputs": [
        {
          "internalType": "uint256",
          "name": "id",
          "type": "uint256"
        },
        {
          "internalType": "string",
          "name": "name",
          "type": "string"
        },
        {
          "internalType": "string",
          "name": "location",
          "type": "string"
        },
        {
          "internalType": "uint256",
          "name": "quantityProduced",
          "type": "uint256"
        },
        {
          "internalType": "uint256",
          "name": "price",
          "type": "uint256"
        },
        {
          "internalType": "string",
          "name": "additionalInfo",
          "type": "string"
        },
        {
          "internalType": "address",
          "name": "farmer",
          "type": "address"
        }
      ],
      "stateMutability": "view",
      "type": "function",
      "constant": true
    },
    {
      "inputs": [
        {
          "internalType": "address",
          "name": "",
          "type": "address"
        },
        {
          "internalType": "uint256",
          "name": "",
          "type": "uint256"
        }
      ],
      "name": "customerTransactions",
      "outputs": [
        {
          "internalType": "uint256",
          "name": "cropId",
          "type": "uint256"
        },
        {
          "internalType": "address",
          "name": "farmer",
          "type": "address"
        },
        {
          "internalType": "address",
          "name": "customer",
          "type": "address"
        },
        {
          "internalType": "uint256",
          "name": "amount",
          "type": "uint256"
        },
        {
          "internalType": "uint256",
          "name": "timestamp",
          "type": "uint256"
        }
      ],
      "stateMutability": "view",
      "type": "function",
      "constant": true
    },
    {
      "inputs": [
        {
          "internalType": "address",
          "name": "",
          "type": "address"
        }
      ],
      "name": "customers",
      "outputs": [
        {
          "internalType": "address",
          "name": "walletAddress",
          "type": "address"
        },
        {
          "internalType": "string",
          "name": "username",
          "type": "string"
        },
        {
          "internalType": "string",
          "name": "password",
          "type": "string"
        },
        {
          "internalType": "string",
          "name": "name",
          "type": "string"
        },
        {
          "internalType": "bool",
          "name": "isRegistered",
          "type": "bool"
        },
        {
          "internalType": "uint256",
          "name": "lastLogin",
          "type": "uint256"
        }
      ],
      "stateMutability": "view",
      "type": "function",
      "constant": true
    },
    {
      "inputs": [],
      "name": "etherRate",
      "outputs": [
        {
          "internalType": "uint256",
          "name": "",
          "type": "uint256"
        }
      ],
      "stateMutability": "view",
      "type": "function",
      "constant": true
    },
    {
      "inputs": [
        {
          "internalType": "address",
          "name": "",
          "type": "address"
        },
        {
          "internalType": "uint256",
          "name": "",
          "type": "uint256"
        }
      ],
      "name": "farmerTransactions",
      "outputs": [
        {
          "internalType": "uint256",
          "name": "cropId",
          "type": "uint256"
        },
        {
          "internalType": "address",
          "name": "farmer",
          "type": "address"
        },
        {
          "internalType": "address",
          "name": "customer",
          "type": "address"
        },
        {
          "internalType": "uint256",
          "name": "amount",
          "type": "uint256"
        },
        {
          "internalType": "uint256",
          "name": "timestamp",
          "type": "uint256"
        }
      ],
      "stateMutability": "view",
      "type": "function",
      "constant": true
    },
    {
      "inputs": [
        {
          "internalType": "address",
          "name": "",
          "type": "address"
        }
      ],
      "name": "farmers",
      "outputs": [
        {
          "internalType": "address",
          "name": "walletAddress",
          "type": "address"
        },
        {
          "internalType": "string",
          "name": "username",
          "type": "string"
        },
        {
          "internalType": "string",
          "name": "password",
          "type": "string"
        },
        {
          "internalType": "string",
          "name": "name",
          "type": "string"
        },
        {
          "internalType": "bool",
          "name": "isRegistered",
          "type": "bool"
        },
        {
          "internalType": "uint256",
          "name": "lastLogin",
          "type": "uint256"
        }
      ],
      "stateMutability": "view",
      "type": "function",
      "constant": true
    },
    {
      "inputs": [
        {
          "internalType": "string",
          "name": "_username",
          "type": "string"
        },
        {
          "internalType": "string",
          "name": "_password",
          "type": "string"
        },
        {
          "internalType": "string",
          "name": "_name",
          "type": "string"
        }
      ],
      "name": "registerFarmer",
      "outputs": [],
      "stateMutability": "nonpayable",
      "type": "function"
    },
    {
      "inputs": [
        {
          "internalType": "string",
          "name": "_username",
          "type": "string"
        },
        {
          "internalType": "string",
          "name": "_password",
          "type": "string"
        }
      ],
      "name": "loginFarmer",
      "outputs": [],
      "stateMutability": "nonpayable",
      "type": "function"
    },
    {
      "inputs": [
        {
          "internalType": "string",
          "name": "_username",
          "type": "string"
        },
        {
          "internalType": "string",
          "name": "_password",
          "type": "string"
        },
        {
          "internalType": "string",
          "name": "_name",
          "type": "string"
        }
      ],
      "name": "registerCustomer",
      "outputs": [],
      "stateMutability": "nonpayable",
      "type": "function"
    },
    {
      "inputs": [
        {
          "internalType": "string",
          "name": "_username",
          "type": "string"
        },
        {
          "internalType": "string",
          "name": "_password",
          "type": "string"
        }
      ],
      "name": "loginCustomer",
      "outputs": [],
      "stateMutability": "nonpayable",
      "type": "function"
    },
    {
      "inputs": [
        {
          "internalType": "string",
          "name": "_name",
          "type": "string"
        },
        {
          "internalType": "string",
          "name": "_location",
          "type": "string"
        },
        {
          "internalType": "uint256",
          "name": "_quantityProduced",
          "type": "uint256"
        },
        {
          "internalType": "uint256",
          "name": "_price",
          "type": "uint256"
        },
        {
          "internalType": "string",
          "name": "_additionalInfo",
          "type": "string"
        }
      ],
      "name": "registerCrop",
      "outputs": [],
      "stateMutability": "nonpayable",
      "type": "function"
    },
    {
      "inputs": [
        {
          "internalType": "uint256",
          "name": "_id",
          "type": "uint256"
        }
      ],
      "name": "getCrop",
      "outputs": [
        {
          "internalType": "uint256",
          "name": "id",
          "type": "uint256"
        },
        {
          "internalType": "string",
          "name": "name",
          "type": "string"
        },
        {
          "internalType": "string",
          "name": "location",
          "type": "string"
        },
        {
          "internalType": "uint256",
          "name": "quantityProduced",
          "type": "uint256"
        },
        {
          "internalType": "uint256",
          "name": "price",
          "type": "uint256"
        },
        {
          "internalType": "string",
          "name": "additionalInfo",
          "type": "string"
        },
        {
          "internalType": "address",
          "name": "farmer",
          "type": "address"
        }
      ],
      "stateMutability": "view",
      "type": "function",
      "constant": true
    },
    {
      "inputs": [
        {
          "internalType": "uint256",
          "name": "_id",
          "type": "uint256"
        },
        {
          "internalType": "uint256",
          "name": "_quantity",
          "type": "uint256"
        }
      ],
      "name": "buyCrop",
      "outputs": [],
      "stateMutability": "payable",
      "type": "function",
      "payable": true
    },
    {
      "inputs": [
        {
          "internalType": "uint256",
          "name": "_newRate",
          "type": "uint256"
        }
      ],
      "name": "setEtherRate",
      "outputs": [],
      "stateMutability": "nonpayable",
      "type": "function"
    },
    {
      "inputs": [
        {
          "internalType": "uint256",
          "name": "rupees",
          "type": "uint256"
        }
      ],
      "name": "convertRupeesToEther",
      "outputs": [
        {
          "internalType": "uint256",
          "name": "",
          "type": "uint256"
        }
      ],
      "stateMutability": "view",
      "type": "function",
      "constant": true
    },
    {
      "inputs": [],
      "name": "getFarmerTransactions",
      "outputs": [
        {
          "components": [
            {
              "internalType": "uint256",
              "name": "cropId",
              "type": "uint256"
            },
            {
              "internalType": "address",
              "name": "farmer",
              "type": "address"
            },
            {
              "internalType": "address",
              "name": "customer",
              "type": "address"
            },
            {
              "internalType": "uint256",
              "name": "amount",
              "type": "uint256"
            },
            {
              "internalType": "uint256",
              "name": "timestamp",
              "type": "uint256"
            }
          ],
          "internalType": "struct AgriSupplyChain.Transaction[]",
          "name": "",
          "type": "tuple[]"
        }
      ],
      "stateMutability": "view",
      "type": "function",
      "constant": true
    },
    {
      "inputs": [],
      "name": "getCustomerTransactions",
      "outputs": [
        {
          "components": [
            {
              "internalType": "uint256",
              "name": "cropId",
              "type": "uint256"
            },
            {
              "internalType": "address",
              "name": "farmer",
              "type": "address"
            },
            {
              "internalType": "address",
              "name": "customer",
              "type": "address"
            },
            {
              "internalType": "uint256",
              "name": "amount",
              "type": "uint256"
            },
            {
              "internalType": "uint256",
              "name": "timestamp",
              "type": "uint256"
            }
          ],
          "internalType": "struct AgriSupplyChain.Transaction[]",
          "name": "",
          "type": "tuple[]"
        }
      ],
      "stateMutability": "view",
      "type": "function",
      "constant": true
    }
  ],
  "bytecode": "0x60806040526201388060075534801561001757600080fd5b50600080546001600160a01b031916331790556121b0806100396000396000f3fe6080604052600436106101145760003560e01c8063a086dd88116100a0578063dfd55a2c11610064578063dfd55a2c1461032b578063ee12533c14610341578063f851a44014610361578063f8e66a4d14610399578063fe7aa153146103b957600080fd5b8063a086dd88146102ad578063a604d777146102c0578063b46d637a146102e0578063d0f7a601146102f5578063d7a84dc71461030b57600080fd5b806370c9f1a5116100e757806370c9f1a5146101c457806388672f82146101f75780638bc7fa9c1461021757806395768d5e146102375780639c8c71151461025957600080fd5b806329a566d214610119578063336989ae1461013b5780633e7dc0bc14610176578063401b2168146101a4575b600080fd5b34801561012557600080fd5b50610139610134366004611a2c565b6103d9565b005b34801561014757600080fd5b5061015b610156366004611ad0565b61053e565b60405161016d96959493929190611b42565b60405180910390f35b34801561018257600080fd5b50610196610191366004611ba2565b610719565b60405190815260200161016d565b3480156101b057600080fd5b5061015b6101bf366004611ad0565b610741565b3480156101d057600080fd5b506101e46101df366004611ba2565b61076e565b60405161016d9796959493929190611bbb565b34801561020357600080fd5b50610139610212366004611ba2565b61094a565b34801561022357600080fd5b506101e4610232366004611ba2565b610a03565b34801561024357600080fd5b5061024c610c99565b60405161016d9190611c23565b34801561026557600080fd5b50610279610274366004611c9d565b610d3b565b604080519586526001600160a01b03948516602087015292909316918401919091526060830152608082015260a00161016d565b6101396102bb366004611cc7565b610d94565b3480156102cc57600080fd5b506101396102db366004611ce9565b6112bb565b3480156102ec57600080fd5b5061024c61140b565b34801561030157600080fd5b5061019660075481565b34801561031757600080fd5b50610139610326366004611d85565b6114a1565b34801561033757600080fd5b5061019660065481565b34801561034d57600080fd5b5061027961035c366004611c9d565b611661565b34801561036d57600080fd5b50600054610381906001600160a01b031681565b6040516001600160a01b03909116815260200161016d565b3480156103a557600080fd5b506101396103b4366004611a2c565b61167d565b3480156103c557600080fd5b506101396103d4366004611d85565b6117d1565b3360009081526001602052604090206004015460ff16156104415760405162461bcd60e51b815260206004820152601a60248201527f4661726d657220616c726561647920726567697374657265642e00000000000060448201526064015b60405180910390fd5b6040805160c08101825233808252602080830187815283850187905260608401869052600160808501819052600060a086018190529384529182905293909120825181546001600160a01b0319166001600160a01b039091161781559251919291908201906104b09082611e72565b50604082015160028201906104c59082611e72565b50606082015160038201906104da9082611e72565b50608082015160048201805460ff191691151591909117905560a09091015160059091015560405133907f42558426a946ab6e527d7f548e7bd3e34c2a7ddde555007464cdfbb5f58665f890610531908490611f32565b60405180910390a2505050565b600260205260009081526040902080546001820180546001600160a01b03909216929161056a90611de9565b80601f016020809104026020016040519081016040528092919081815260200182805461059690611de9565b80156105e35780601f106105b8576101008083540402835291602001916105e3565b820191906000526020600020905b8154815290600101906020018083116105c657829003601f168201915b5050505050908060020180546105f890611de9565b80601f016020809104026020016040519081016040528092919081815260200182805461062490611de9565b80156106715780601f1061064657610100808354040283529160200191610671565b820191906000526020600020905b81548152906001019060200180831161065457829003601f168201915b50505050509080600301805461068690611de9565b80601f01602080910402602001604051908101604052809291908181526020018280546106b290611de9565b80156106ff5780601f106106d4576101008083540402835291602001916106ff565b820191906000526020600020905b8154815290600101906020018083116106e257829003601f168201915b505050506004830154600590930154919260ff1691905086565b60075460009061073183670de0b6b3a7640000611f5b565b61073b9190611f72565b92915050565b6001602081905260009182526040909120805491810180546001600160a01b039093169261056a90611de9565b6003602052600090815260409020805460018201805491929161079090611de9565b80601f01602080910402602001604051908101604052809291908181526020018280546107bc90611de9565b80156108095780601f106107de57610100808354040283529160200191610809565b820191906000526020600020905b8154815290600101906020018083116107ec57829003601f168201915b50505050509080600201805461081e90611de9565b80601f016020809104026020016040519081016040528092919081815260200182805461084a90611de9565b80156108975780601f1061086c57610100808354040283529160200191610897565b820191906000526020600020905b81548152906001019060200180831161087a57829003601f168201915b5050505050908060030154908060040154908060050180546108b890611de9565b80601f01602080910402602001604051908101604052809291908181526020018280546108e490611de9565b80156109315780601f1061090657610100808354040283529160200191610931565b820191906000526020600020905b81548152906001019060200180831161091457829003601f168201915b505050600690930154919250506001600160a01b031687565b6000546001600160a01b031633146109a45760405162461bcd60e51b815260206004820152601c60248201527f4f6e6c792061646d696e2063616e206578656375746520746869732e000000006044820152606401610438565b600081116109fe5760405162461bcd60e51b815260206004820152602160248201527f436f6e76657273696f6e2072617465206d75737420626520706f7369746976656044820152601760f91b6064820152608401610438565b600755565b60006060806000806060600080600360008a81526020019081526020016000206040518060e001604052908160008201548152602001600182018054610a4890611de9565b80601f0160208091040260200160405190810160405280929190818152602001828054610a7490611de9565b8015610ac15780601f10610a9657610100808354040283529160200191610ac1565b820191906000526020600020905b815481529060010190602001808311610aa457829003601f168201915b50505050508152602001600282018054610ada90611de9565b80601f0160208091040260200160405190810160405280929190818152602001828054610b0690611de9565b8015610b535780601f10610b2857610100808354040283529160200191610b53565b820191906000526020600020905b815481529060010190602001808311610b3657829003601f168201915b505050505081526020016003820154815260200160048201548152602001600582018054610b8090611de9565b80601f0160208091040260200160405190810160405280929190818152602001828054610bac90611de9565b8015610bf95780601f10610bce57610100808354040283529160200191610bf9565b820191906000526020600020905b815481529060010190602001808311610bdc57829003601f168201915b5050509183525050600691909101546001600160a01b03166020909101528051909150600003610c625760405162461bcd60e51b815260206004820152601460248201527321b937b8103237b2b9903737ba1032bc34b9ba1760611b6044820152606401610438565b8051602082015160408301516060840151608085015160a086015160c090960151949e939d50919b50995097509195509350915050565b336000908152600460209081526040808320805482518185028101850190935280835260609492939192909184015b82821015610d325760008481526020908190206040805160a08101825260058602909201805483526001808201546001600160a01b039081168587015260028301541692840192909252600381015460608401526004015460808301529083529092019101610cc8565b50505050905090565b60056020528160005260406000208181548110610d5757600080fd5b6000918252602090912060059091020180546001820154600283015460038401546004909401549295506001600160a01b03918216945016919085565b3360009081526002602052604090206004015460ff16610dc65760405162461bcd60e51b815260040161043890611f94565b60008281526003602052604081208054909103610e1c5760405162461bcd60e51b815260206004820152601460248201527321b937b8103237b2b9903737ba1032bc34b9ba1760611b6044820152606401610438565b60008211610e785760405162461bcd60e51b815260206004820152602360248201527f5175616e74697479206d7573742062652067726561746572207468616e207a6560448201526239379760e91b6064820152608401610438565b8181600301541015610ecc5760405162461bcd60e51b815260206004820152601e60248201527f4e6f7420656e6f756768207175616e7469747920617661696c61626c652e00006044820152606401610438565b6000828260040154610ede9190611f5b565b90506000610eeb82610719565b905080341015610f365760405162461bcd60e51b815260206004820152601660248201527524b739bab33334b1b4b2b73a1022aa241039b2b73a1760511b6044820152606401610438565b83836003016000828254610f4a9190611fdf565b90915550506003830154600003610fab57600683015483546040516001600160a01b03909216917f2f8a62d83be3e21a01f4dff9bd63898bfa19e244e8638f01d8da285e7c43eb7591610fa291600188019190611ff2565b60405180910390a25b60068301546040516000916001600160a01b03169034908381818185875af1925050503d8060008114610ffa576040519150601f19603f3d011682016040523d82523d6000602084013e610fff565b606091505b50509050806110505760405162461bcd60e51b815260206004820152601960248201527f5061796d656e7420746f206661726d6572206661696c65642e000000000000006044820152606401610438565b60006040518060a001604052808881526020018660060160009054906101000a90046001600160a01b03166001600160a01b03168152602001336001600160a01b03168152602001348152602001428152509050600460008660060160009054906101000a90046001600160a01b03166001600160a01b03166001600160a01b031681526020019081526020016000208190806001815401808255809150506001900390600052602060002090600502016000909190919091506000820151816000015560208201518160010160006101000a8154816001600160a01b0302191690836001600160a01b0316021790555060408201518160020160006101000a8154816001600160a01b0302191690836001600160a01b031602179055506060820151816003015560808201518160040155505060056000336001600160a01b03166001600160a01b031681526020019081526020016000208190806001815401808255809150506001900390600052602060002090600502016000909190919091506000820151816000015560208201518160010160006101000a8154816001600160a01b0302191690836001600160a01b0316021790555060408201518160020160006101000a8154816001600160a01b0302191690836001600160a01b03160217905550606082015181600301556080820151816004015550508460060160009054906101000a90046001600160a01b03166001600160a01b0316336001600160a01b0316887f2299b4cd9d087cdc255d89434e324744167a23928d822da7ae3c8fff3a2fed4c346040516112aa91815260200190565b60405180910390a450505050505050565b3360009081526001602052604090206004015460ff166112ed5760405162461bcd60e51b815260040161043890612086565b600680549060006112fd836120cf565b90915550506040805160e0810182526006548082526020808301898152838501899052606084018890526080840187905260a084018690523360c08501526000928352600390915292902081518155915190919060018201906113609082611e72565b50604082015160028201906113759082611e72565b50606082015160038201556080820151600482015560a0820151600582019061139e9082611e72565b5060c09190910151600691820180546001600160a01b0319166001600160a01b03909216919091179055546040513391907fc1acc370fe30e65479d5930e5d3a589fdb983cda0e121a492096448493f7475a906113fc908990611f32565b60405180910390a35050505050565b336000908152600560209081526040808320805482518185028101850190935280835260609492939192909184018215610d325760008481526020908190206040805160a08101825260058602909201805483526001808201546001600160a01b039081168587015260028301541692840192909252600381015460608401526004015460808301529083529092019101610cc8565b3360009081526001602052604090206004015460ff166114d35760405162461bcd60e51b815260040161043890612086565b816040516020016114e491906120e8565b60408051601f1981840301815282825280516020918201203360009081526001808452939020909361151b93919091019101612104565b60405160208183030381529060405280519060200120146115725760405162461bcd60e51b815260206004820152601160248201527024b73b30b634b2103ab9b2b93730b6b29760791b6044820152606401610438565b8060405160200161158391906120e8565b60408051601f198184030181528282528051602091820120336000908152600183529290922091926115b9926002019101612104565b60405160208183030381529060405280519060200120146116105760405162461bcd60e51b815260206004820152601160248201527024b73b30b634b2103830b9b9bbb7b9321760791b6044820152606401610438565b3360008181526001602090815260409182902042600590910181905591519182527fb9eb663bbd7d3a14d2cbd2be0e54e554faa7b006f9e0c7880eb7587d2a9f94af91015b60405180910390a25050565b60046020528160005260406000208181548110610d5757600080fd5b3360009081526002602052604090206004015460ff16156116e05760405162461bcd60e51b815260206004820152601c60248201527f437573746f6d657220616c726561647920726567697374657265642e000000006044820152606401610438565b6040805160c08101825233808252602080830187815283850187905260608401869052600160808501819052600060a08601819052938452600290925293909120825181546001600160a01b0319166001600160a01b039091161781559251919291908201906117509082611e72565b50604082015160028201906117659082611e72565b506060820151600382019061177a9082611e72565b50608082015160048201805460ff191691151591909117905560a09091015160059091015560405133907f2bf7863d4068dda3123298d02ee28530519d2e96eaab6784f5f0b6184ddd201590610531908490611f32565b3360009081526002602052604090206004015460ff166118035760405162461bcd60e51b815260040161043890611f94565b8160405160200161181491906120e8565b60408051601f1981840301815282825280516020918201203360009081526002835292909220919261184a926001019101612104565b60405160208183030381529060405280519060200120146118a15760405162461bcd60e51b815260206004820152601160248201527024b73b30b634b2103ab9b2b93730b6b29760791b6044820152606401610438565b806040516020016118b291906120e8565b60408051601f198184030181528282528051602091820120336000908152600280845293902090936118e993919091019101612104565b60405160208183030381529060405280519060200120146119405760405162461bcd60e51b815260206004820152601160248201527024b73b30b634b2103830b9b9bbb7b9321760791b6044820152606401610438565b3360008181526002602090815260409182902042600590910181905591519182527f3711c88cf1f8804cf5d507909644d217fe253da461776b63dc6d821a0d031ffb9101611655565b634e487b7160e01b600052604160045260246000fd5b600082601f8301126119b057600080fd5b813567ffffffffffffffff808211156119cb576119cb611989565b604051601f8301601f19908116603f011681019082821181831017156119f3576119f3611989565b81604052838152866020858801011115611a0c57600080fd5b836020870160208301376000602085830101528094505050505092915050565b600080600060608486031215611a4157600080fd5b833567ffffffffffffffff80821115611a5957600080fd5b611a658783880161199f565b94506020860135915080821115611a7b57600080fd5b611a878783880161199f565b93506040860135915080821115611a9d57600080fd5b50611aaa8682870161199f565b9150509250925092565b80356001600160a01b0381168114611acb57600080fd5b919050565b600060208284031215611ae257600080fd5b611aeb82611ab4565b9392505050565b60005b83811015611b0d578181015183820152602001611af5565b50506000910152565b60008151808452611b2e816020860160208601611af2565b601f01601f19169290920160200192915050565b6001600160a01b038716815260c060208201819052600090611b6690830188611b16565b8281036040840152611b788188611b16565b90508281036060840152611b8c8187611b16565b9415156080840152505060a00152949350505050565b600060208284031215611bb457600080fd5b5035919050565b87815260e060208201526000611bd460e0830189611b16565b8281036040840152611be68189611b16565b905086606084015285608084015282810360a0840152611c068186611b16565b91505060018060a01b03831660c083015298975050505050505050565b602080825282518282018190526000919060409081850190868401855b82811015611c9057815180518552868101516001600160a01b0390811688870152868201511686860152606080820151908601526080908101519085015260a09093019290850190600101611c40565b5091979650505050505050565b60008060408385031215611cb057600080fd5b611cb983611ab4565b946020939093013593505050565b60008060408385031215611cda57600080fd5b50508035926020909101359150565b600080600080600060a08688031215611d0157600080fd5b853567ffffffffffffffff80821115611d1957600080fd5b611d2589838a0161199f565b96506020880135915080821115611d3b57600080fd5b611d4789838a0161199f565b955060408801359450606088013593506080880135915080821115611d6b57600080fd5b50611d788882890161199f565b9150509295509295909350565b60008060408385031215611d9857600080fd5b823567ffffffffffffffff80821115611db057600080fd5b611dbc8683870161199f565b93506020850135915080821115611dd257600080fd5b50611ddf8582860161199f565b9150509250929050565b600181811c90821680611dfd57607f821691505b602082108103611e1d57634e487b7160e01b600052602260045260246000fd5b50919050565b601f821115611e6d57600081815260208120601f850160051c81016020861015611e4a5750805b601f850160051c820191505b81811015611e6957828155600101611e56565b5050505b505050565b815167ffffffffffffffff811115611e8c57611e8c611989565b611ea081611e9a8454611de9565b84611e23565b602080601f831160018114611ed55760008415611ebd5750858301515b600019600386901b1c1916600185901b178555611e69565b600085815260208120601f198616915b82811015611f0457888601518255948401946001909101908401611ee5565b5085821015611f225787850151600019600388901b60f8161c191681555b5050505050600190811b01905550565b602081526000611aeb6020830184611b16565b634e487b7160e01b600052601160045260246000fd5b808202811582820484141761073b5761073b611f45565b600082611f8f57634e487b7160e01b600052601260045260246000fd5b500490565b6020808252602b908201527f4f6e6c79207265676973746572656420637573746f6d6572732063616e20657860408201526a32b1baba32903a3434b99760a91b606082015260800190565b8181038181111561073b5761073b611f45565b60408152600080845461200481611de9565b8060408601526060600180841660008114612026576001811461204057612071565b60ff1985168884015283151560051b880183019550612071565b8960005260208060002060005b868110156120685781548b820187015290840190820161204d565b8a018501975050505b50505050506020929092019290925292915050565b60208082526029908201527f4f6e6c792072656769737465726564206661726d6572732063616e20657865636040820152683aba32903a3434b99760b91b606082015260800190565b6000600182016120e1576120e1611f45565b5060010190565b600082516120fa818460208701611af2565b9190910192915050565b600080835461211281611de9565b6001828116801561212a576001811461213f5761216e565b60ff198416875282151583028701945061216e565b8760005260208060002060005b858110156121655781548a82015290840190820161214c565b50505082870194505b5092969550505050505056fea26469706673582212205fc65316be4265645d8d33f0d76b7125303fd832ec13c4e9933b0d83c91f80e164736f6c63430008130033",
  "immutableReferences": {},
  "source": "// SPDX-License-Identifier: MIT\r\npragma solidity ^0.8.19;\r\n\r\ncontract AgriSupplyChain {\r\n    address public admin;\r\n\r\n    struct Farmer {\r\n        address walletAddress;\r\n        string username;\r\n        string password;\r\n        string name;\r\n        bool isRegistered;\r\n        uint256 lastLogin;\r\n    }\r\n\r\n    struct Customer {\r\n        address walletAddress;\r\n        string username;\r\n        string password;\r\n        string name;\r\n        bool isRegistered;\r\n        uint256 lastLogin;\r\n    }\r\n\r\n    struct Crop {\r\n        uint256 id;\r\n        string name;\r\n        string location;\r\n        uint256 quantityProduced;\r\n        uint256 price; // Price in rupees\r\n        string additionalInfo;\r\n        address farmer; // Owner of the crop\r\n    }\r\n\r\n    struct Transaction {\r\n        uint256 cropId;\r\n        address farmer;\r\n        address customer;\r\n        uint256 amount; // Paid in ether\r\n        uint256 timestamp;\r\n    }\r\n\r\n    mapping(address => Farmer) public farmers;\r\n    mapping(address => Customer) public customers;\r\n    mapping(uint256 => Crop) public crops;\r\n    mapping(address => Transaction[]) public farmerTransactions;\r\n    mapping(address => Transaction[]) public customerTransactions;\r\n    uint256 public cropCount;\r\n    uint256 public etherRate = 80000; // Conversion rate from rupees to ether\r\n\r\n    event FarmerRegistered(address indexed farmer, string name);\r\n    event CustomerRegistered(address indexed customer, string name);\r\n    event CropRegistered(uint256 indexed id, string name, address indexed farmer);\r\n    event CropPurchased(uint256 indexed id, address indexed customer, address indexed farmer, uint256 amount);\r\n    event CropSoldOut(address indexed farmer, string cropName, uint256 id);\r\n    event FarmerLoggedIn(address indexed farmer, uint256 timestamp);\r\n    event CustomerLoggedIn(address indexed customer, uint256 timestamp);\r\n\r\n    modifier onlyFarmer() {\r\n        require(farmers[msg.sender].isRegistered, \"Only registered farmers can execute this.\");\r\n        _;\r\n    }\r\n\r\n    modifier onlyCustomer() {\r\n        require(customers[msg.sender].isRegistered, \"Only registered customers can execute this.\");\r\n        _;\r\n    }\r\n\r\n    modifier onlyAdmin() {\r\n        require(msg.sender == admin, \"Only admin can execute this.\");\r\n        _;\r\n    }\r\n\r\n    constructor() {\r\n        admin = msg.sender;\r\n    }\r\n\r\n    function registerFarmer(\r\n        string memory _username,\r\n        string memory _password,\r\n        string memory _name\r\n    ) public {\r\n        require(!farmers[msg.sender].isRegistered, \"Farmer already registered.\");\r\n        farmers[msg.sender] = Farmer({\r\n            walletAddress: msg.sender,\r\n            username: _username,\r\n            password: _password,\r\n            name: _name,\r\n            isRegistered: true,\r\n            lastLogin: 0\r\n        });\r\n        emit FarmerRegistered(msg.sender, _name);\r\n    }\r\n\r\n    function loginFarmer(string memory _username, string memory _password) public onlyFarmer {\r\n        require(\r\n            keccak256(abi.encodePacked(farmers[msg.sender].username)) == keccak256(abi.encodePacked(_username)),\r\n            \"Invalid username.\"\r\n        );\r\n        require(\r\n            keccak256(abi.encodePacked(farmers[msg.sender].password)) == keccak256(abi.encodePacked(_password)),\r\n            \"Invalid password.\"\r\n        );\r\n        farmers[msg.sender].lastLogin = block.timestamp;\r\n        emit FarmerLoggedIn(msg.sender, block.timestamp);\r\n    }\r\n\r\n    function registerCustomer(\r\n        string memory _username,\r\n        string memory _password,\r\n        string memory _name\r\n    ) public {\r\n        require(!customers[msg.sender].isRegistered, \"Customer already registered.\");\r\n        customers[msg.sender] = Customer({\r\n            walletAddress: msg.sender,\r\n            username: _username,\r\n            password: _password,\r\n            name: _name,\r\n            isRegistered: true,\r\n            lastLogin: 0\r\n        });\r\n        emit CustomerRegistered(msg.sender, _name);\r\n    }\r\n\r\n    function loginCustomer(string memory _username, string memory _password) public onlyCustomer {\r\n        require(\r\n            keccak256(abi.encodePacked(customers[msg.sender].username)) == keccak256(abi.encodePacked(_username)),\r\n            \"Invalid username.\"\r\n        );\r\n        require(\r\n            keccak256(abi.encodePacked(customers[msg.sender].password)) == keccak256(abi.encodePacked(_password)),\r\n            \"Invalid password.\"\r\n        );\r\n        customers[msg.sender].lastLogin = block.timestamp;\r\n        emit CustomerLoggedIn(msg.sender, block.timestamp);\r\n    }\r\n\r\n    function registerCrop(\r\n        string memory _name,\r\n        string memory _location,\r\n        uint256 _quantityProduced,\r\n        uint256 _price,\r\n        string memory _additionalInfo\r\n    ) public onlyFarmer {\r\n        cropCount++;\r\n        crops[cropCount] = Crop({\r\n            id: cropCount,\r\n            name: _name,\r\n            location: _location,\r\n            quantityProduced: _quantityProduced,\r\n            price: _price,\r\n            additionalInfo: _additionalInfo,\r\n            farmer: msg.sender\r\n        });\r\n        emit CropRegistered(cropCount, _name, msg.sender);\r\n    }\r\n\r\n    function getCrop(uint256 _id) public view returns (\r\n        uint256 id,\r\n        string memory name,\r\n        string memory location,\r\n        uint256 quantityProduced,\r\n        uint256 price,\r\n        string memory additionalInfo,\r\n        address farmer\r\n    ) {\r\n        Crop memory crop = crops[_id];\r\n        require(crop.id != 0, \"Crop does not exist.\");\r\n        return (\r\n            crop.id,\r\n            crop.name,\r\n            crop.location,\r\n            crop.quantityProduced,\r\n            crop.price,\r\n            crop.additionalInfo,\r\n            crop.farmer\r\n        );\r\n    }\r\n\r\n    function buyCrop(uint256 _id, uint256 _quantity) public payable onlyCustomer {\r\n        Crop storage crop = crops[_id];\r\n        require(crop.id != 0, \"Crop does not exist.\");\r\n        require(_quantity > 0, \"Quantity must be greater than zero.\");\r\n        require(crop.quantityProduced >= _quantity, \"Not enough quantity available.\");\r\n\r\n        uint256 totalPriceInRupees = crop.price * _quantity;\r\n        uint256 totalPriceInEther = convertRupeesToEther(totalPriceInRupees);\r\n        require(msg.value >= totalPriceInEther, \"Insufficient ETH sent.\");\r\n\r\n        crop.quantityProduced -= _quantity;\r\n\r\n        if (crop.quantityProduced == 0) {\r\n            emit CropSoldOut(crop.farmer, crop.name, crop.id);\r\n        }\r\n\r\n        (bool success, ) = crop.farmer.call{value: msg.value}(\"\");\r\n        require(success, \"Payment to farmer failed.\");\r\n\r\n        Transaction memory txn = Transaction({\r\n            cropId: _id,\r\n            farmer: crop.farmer,\r\n            customer: msg.sender,\r\n            amount: msg.value,\r\n            timestamp: block.timestamp\r\n        });\r\n        farmerTransactions[crop.farmer].push(txn);\r\n        customerTransactions[msg.sender].push(txn);\r\n\r\n        emit CropPurchased(_id, msg.sender, crop.farmer, msg.value);\r\n    }\r\n\r\n    function setEtherRate(uint256 _newRate) public onlyAdmin {\r\n        require(_newRate > 0, \"Conversion rate must be positive.\");\r\n        etherRate = _newRate;\r\n    }\r\n\r\n    function convertRupeesToEther(uint256 rupees) public view returns (uint256) {\r\n        return (rupees * 1 ether) / etherRate;\r\n    }\r\n\r\n    function getFarmerTransactions() public view returns (Transaction[] memory) {\r\n        return farmerTransactions[msg.sender];\r\n    }\r\n\r\n    function getCustomerTransactions() public view returns (Transaction[] memory) {\r\n        return customerTransactions[msg.sender];\r\n    }\r\n}",
  "sourcePath": "D:\\Prajeeta\\Major Project 7th sem\\Krishi Yug\\contracts\\AgriSupplyChain.sol",
  "compiler": {
    "name": "solc",
    "version": "0.8.19+commit.7dd6d404.Emscripten.clang"
  },
  "schemaVersion": "3.4.16",
  "updatedAt": "2024-12-02T15:16:39.306Z",
  "networkType": "ethereum",
  "devdoc": {
    "kind": "dev",
    "methods": {},
    "version": 1
  },
  "userdoc": {
    "kind": "user",
    "methods": {},
    "version": 1
  }
}